{
	"data": {
		"bytecode": {
			"linkReferences": {},
			"object": "6101806040526005601355603260145534801561001a575f5ffd5b50604051616178380380616178833981810160405281019061003c91906105d9565b816040518060400160405280600a81526020017f4d79546f6b656e50726f00000000000000000000000000000000000000000000815250806040518060400160405280600181526020017f31000000000000000000000000000000000000000000000000000000000000008152506040518060400160405280600a81526020017f4d79546f6b656e50726f000000000000000000000000000000000000000000008152506040518060400160405280600381526020017f4d5450000000000000000000000000000000000000000000000000000000000081525081600390816101259190610854565b5080600490816101359190610854565b50505061014c60058361030d60201b90919060201c565b610120818152505061016860068261030d60201b90919060201c565b6101408181525050818051906020012060e08181525050808051906020012061010081815250504660a081815250506101a561035a60201b60201c565b608081815250503073ffffffffffffffffffffffffffffffffffffffff1660c08173ffffffffffffffffffffffffffffffffffffffff16815250505050505f73ffffffffffffffffffffffffffffffffffffffff168173ffffffffffffffffffffffffffffffffffffffff1603610253575f6040517f1e4fbdf700000000000000000000000000000000000000000000000000000000815260040161024a9190610932565b60405180910390fd5b610262816103b460201b60201c565b506001600e819055508060105f6101000a81548173ffffffffffffffffffffffffffffffffffffffff021916908373ffffffffffffffffffffffffffffffffffffffff1602179055506102bc8260016103ea60201b60201c565b6102cd8160016103ea60201b60201c565b6102db61044260201b60201c565b600a6102e79190610ab3565b633b9aca006102f69190610afd565b610160818152505060196012819055505050610ccf565b5f60208351101561032e576103278361044a60201b60201c565b9050610354565b8261033e836104af60201b60201c565b5f01908161034c9190610854565b5060ff5f1b90505b92915050565b5f7f8b73c3c69bb8fe3d512ecc4cf759cc79239f7b179b0ffacaa9a75d522b39400f60e051610100514630604051602001610399959493929190610b65565b60405160208183030381529060405280519060200120905090565b600d5f6101000a81549073ffffffffffffffffffffffffffffffffffffffff02191690556103e7816104b860201b60201c565b50565b8060115f8473ffffffffffffffffffffffffffffffffffffffff1673ffffffffffffffffffffffffffffffffffffffff1681526020019081526020015f205f6101000a81548160ff0219169083151502179055505050565b5f6012905090565b5f5f829050601f8151111561049657826040517f305a27a900000000000000000000000000000000000000000000000000000000815260040161048d9190610c1c565b60405180910390fd5b8051816104a290610c69565b5f1c175f1b915050919050565b5f819050919050565b5f600c5f9054906101000a900473ffffffffffffffffffffffffffffffffffffffff16905081600c5f6101000a81548173ffffffffffffffffffffffffffffffffffffffff021916908373ffffffffffffffffffffffffffffffffffffffff1602179055508173ffffffffffffffffffffffffffffffffffffffff168173ffffffffffffffffffffffffffffffffffffffff167f8be0079c531659141344cd1fd0a4f28419497f9722a3daafe3b4186f6b6457e060405160405180910390a35050565b5f5ffd5b5f73ffffffffffffffffffffffffffffffffffffffff82169050919050565b5f6105a88261057f565b9050919050565b6105b88161059e565b81146105c2575f5ffd5b50565b5f815190506105d3816105af565b92915050565b5f5f604083850312156105ef576105ee61057b565b5b5f6105fc858286016105c5565b925050602061060d858286016105c5565b9150509250929050565b5f81519050919050565b7f4e487b71000000000000000000000000000000000000000000000000000000005f52604160045260245ffd5b7f4e487b71000000000000000000000000000000000000000000000000000000005f52602260045260245ffd5b5f600282049050600182168061069257607f821691505b6020821081036106a5576106a461064e565b5b50919050565b5f819050815f5260205f209050919050565b5f6020601f8301049050919050565b5f82821b905092915050565b5f600883026107077fffffffffffffffffffffffffffffffffffffffffffffffffffffffffffffffff826106cc565b61071186836106cc565b95508019841693508086168417925050509392505050565b5f819050919050565b5f819050919050565b5f61075561075061074b84610729565b610732565b610729565b9050919050565b5f819050919050565b61076e8361073b565b61078261077a8261075c565b8484546106d8565b825550505050565b5f5f905090565b61079961078a565b6107a4818484610765565b505050565b5b818110156107c7576107bc5f82610791565b6001810190506107aa565b5050565b601f82111561080c576107dd816106ab565b6107e6846106bd565b810160208510156107f5578190505b610809610801856106bd565b8301826107a9565b50505b505050565b5f82821c905092915050565b5f61082c5f1984600802610811565b1980831691505092915050565b5f610844838361081d565b9150826002028217905092915050565b61085d82610617565b67ffffffffffffffff81111561087657610875610621565b5b610880825461067b565b61088b8282856107cb565b5f60209050601f8311600181146108bc575f84156108aa578287015190505b6108b48582610839565b86555061091b565b601f1984166108ca866106ab565b5f5b828110156108f1578489015182556001820191506020850194506020810190506108cc565b8683101561090e578489015161090a601f89168261081d565b8355505b6001600288020188555050505b505050505050565b61092c8161059e565b82525050565b5f6020820190506109455f830184610923565b92915050565b7f4e487b71000000000000000000000000000000000000000000000000000000005f52601160045260245ffd5b5f8160011c9050919050565b5f5f8291508390505b60018511156109cd578086048111156109a9576109a861094b565b5b60018516156109b85780820291505b80810290506109c685610978565b945061098d565b94509492505050565b5f826109e55760019050610aa0565b816109f2575f9050610aa0565b8160018114610a085760028114610a1257610a41565b6001915050610aa0565b60ff841115610a2457610a2361094b565b5b8360020a915084821115610a3b57610a3a61094b565b5b50610aa0565b5060208310610133831016604e8410600b8410161715610a765782820a905083811115610a7157610a7061094b565b5b610aa0565b610a838484846001610984565b92509050818404811115610a9a57610a9961094b565b5b81810290505b9392505050565b5f60ff82169050919050565b5f610abd82610729565b9150610ac883610aa7565b9250610af57fffffffffffffffffffffffffffffffffffffffffffffffffffffffffffffffff84846109d6565b905092915050565b5f610b0782610729565b9150610b1283610729565b9250828202610b2081610729565b91508282048414831517610b3757610b3661094b565b5b5092915050565b5f819050919050565b610b5081610b3e565b82525050565b610b5f81610729565b82525050565b5f60a082019050610b785f830188610b47565b610b856020830187610b47565b610b926040830186610b47565b610b9f6060830185610b56565b610bac6080830184610923565b9695505050505050565b5f82825260208201905092915050565b8281835e5f83830152505050565b5f601f19601f8301169050919050565b5f610bee82610617565b610bf88185610bb6565b9350610c08818560208601610bc6565b610c1181610bd4565b840191505092915050565b5f6020820190508181035f830152610c348184610be4565b905092915050565b5f81519050919050565b5f819050602082019050919050565b5f610c608251610b3e565b80915050919050565b5f610c7382610c3c565b82610c7d84610c46565b9050610c8881610c55565b92506020821015610cc857610cc37fffffffffffffffffffffffffffffffffffffffffffffffffffffffffffffffff836020036008026106cc565b831692505b5050919050565b60805160a05160c05160e05161010051610120516101405161016051615447610d315f395f8181610dc40152611a4501525f6126bb01525f61268001525f612d8301525f612d6201525f61200001525f61205601525f61207f01526154475ff3fe608060405234801561000f575f5ffd5b5060043610610376575f3560e01c80637fd6f15c116101d1578063b88a802f11610102578063e085c45e116100a0578063ecefc7051161007a578063ecefc70514610a0a578063f0f4426014610a28578063f1127ed814610a44578063f2fde38b14610a7457610376565b8063e085c45e146109b0578063e30c3978146109ce578063ece6c0d3146109ec57610376565b8063d0fb2483116100dc578063d0fb24831461092a578063d505accf14610946578063d5abeb0114610962578063dd62ed3e1461098057610376565b8063b88a802f146108e6578063c2624e1e146108f0578063c3cda5201461090e57610376565b806395d89b411161016f578063a2309ff811610149578063a2309ff81461085e578063a694fc3a1461087c578063a9059cbb14610898578063b0bb1050146108c857610376565b806395d89b41146107f25780639ab24eb0146108105780639c9867641461084057610376565b806384b0196e116101ab57806384b0196e146107625780638da5cb5b146107865780638e539e8c146107a457806391ddadf4146107d457610376565b80637fd6f15c1461071c578063817b1cd21461073a5780638456cb591461075857610376565b80634fbee193116102ab57806361d027b311610249578063715018a611610223578063715018a6146106bc57806379ba5097146106c657806379cc6790146106d05780637ecebe00146106ec57610376565b806361d027b31461063e5780636fcfff451461065c57806370a082311461068c57610376565b806359c134031161028557806359c13403146105b65780635c19a95c146105d45780635c975abb146105f0578063602172671461060e57610376565b80634fbee1931461053a578063587cde1e1461056a578063590ffdce1461059a57610376565b8063313ce567116103185780633f4ba83a116102f25780633f4ba83a146104da57806340c10f19146104e457806342966c68146105005780634bf5d7e91461051c57610376565b8063313ce5671461046e5780633644e5151461048c5780633a46b1a8146104aa57610376565b806318160ddd1161035457806318160ddd146103e657806323b872dd14610404578063288264e3146104345780632e17de781461045257610376565b806306fdde031461037a578063095ea7b3146103985780630c56ae3b146103c8575b5f5ffd5b610382610a90565b60405161038f9190614298565b60405180910390f35b6103b260048036038101906103ad9190614349565b610b20565b6040516103bf91906143a1565b60405180910390f35b6103d0610b42565b6040516103dd91906143c9565b60405180910390f35b6103ee610b4b565b6040516103fb91906143c9565b60405180910390f35b61041e600480360381019061041991906143e2565b610b54565b60405161042b91906143a1565b60405180910390f35b61043c610b82565b60405161044991906143c9565b60405180910390f35b61046c60048036038101906104679190614432565b610b87565b005b610476610d0e565b6040516104839190614478565b60405180910390f35b610494610d16565b6040516104a191906144a9565b60405180910390f35b6104c460048036038101906104bf9190614349565b610d24565b6040516104d191906143c9565b60405180910390f35b6104e2610da0565b005b6104fe60048036038101906104f99190614349565b610db2565b005b61051a60048036038101906105159190614432565b610eae565b005b610524610eca565b6040516105319190614298565b60405180910390f35b610554600480360381019061054f91906144c2565b610f5e565b60405161056191906143a1565b60405180910390f35b610584600480360381019061057f91906144c2565b610fb0565b60405161059191906144fc565b60405180910390f35b6105b460048036038101906105af919061453f565b611015565b005b6105be611079565b6040516105cb91906143c9565b60405180910390f35b6105ee60048036038101906105e991906144c2565b61107f565b005b6105f8611098565b60405161060591906143a1565b60405180910390f35b610628600480360381019061062391906144c2565b6110ad565b60405161063591906143c9565b60405180910390f35b6106466110f5565b60405161065391906144fc565b60405180910390f35b610676600480360381019061067191906144c2565b61111d565b604051610683919061459b565b60405180910390f35b6106a660048036038101906106a191906144c2565b61112e565b6040516106b391906143c9565b60405180910390f35b6106c4611173565b005b6106ce611186565b005b6106ea60048036038101906106e59190614349565b611214565b005b610706600480360381019061070191906144c2565b611234565b60405161071391906143c9565b60405180910390f35b610724611245565b60405161073191906143c9565b60405180910390f35b61074261124b565b60405161074f91906143c9565b60405180910390f35b610760611254565b005b61076a611266565b60405161077d97969594939291906146a5565b60405180910390f35b61078e61130b565b60405161079b91906144fc565b60405180910390f35b6107be60048036038101906107b99190614432565b611333565b6040516107cb91906143c9565b60405180910390f35b6107dc611373565b6040516107e99190614747565b60405180910390f35b6107fa611381565b6040516108079190614298565b60405180910390f35b61082a600480360381019061082591906144c2565b611411565b60405161083791906143c9565b60405180910390f35b61084861147a565b60405161085591906143c9565b60405180910390f35b61086661147f565b60405161087391906143c9565b60405180910390f35b61089660048036038101906108919190614432565b611488565b005b6108b260048036038101906108ad9190614349565b6115dd565b6040516108bf91906143a1565b60405180910390f35b6108d06115ff565b6040516108dd91906143c9565b60405180910390f35b6108ee611604565b005b6108f86117d5565b60405161090591906143c9565b60405180910390f35b610928600480360381019061092391906147b4565b6117db565b005b610944600480360381019061093f919061483d565b6118a0565b005b610960600480360381019061095b919061487b565b6118fd565b005b61096a611a42565b60405161097791906143c9565b60405180910390f35b61099a60048036038101906109959190614918565b611a69565b6040516109a791906143c9565b60405180910390f35b6109b8611aeb565b6040516109c591906143c9565b60405180910390f35b6109d6611af0565b6040516109e391906144fc565b60405180910390f35b6109f4611b18565b604051610a0191906143c9565b60405180910390f35b610a12611b1d565b604051610a1f91906143c9565b60405180910390f35b610a426004803603810190610a3d91906144c2565b611b23565b005b610a5e6004803603810190610a599190614980565b611c2a565b604051610a6b9190614a2e565b60405180910390f35b610a8e6004803603810190610a8991906144c2565b611c44565b005b606060038054610a9f90614a74565b80601f0160208091040260200160405190810160405280929190818152602001828054610acb90614a74565b8015610b165780601f10610aed57610100808354040283529160200191610b16565b820191905f5260205f20905b815481529060010190602001808311610af957829003601f168201915b5050505050905090565b5f5f610b2a611cf0565b9050610b37818585611cf7565b600191505092915050565b5f601754905090565b5f600254905090565b5f5f610b5e611cf0565b9050610b6b858285611d09565b610b76858585611d9c565b60019150509392505050565b603281565b610b8f611e8c565b610b97611ed2565b5f60155f3373ffffffffffffffffffffffffffffffffffffffff1673ffffffffffffffffffffffffffffffffffffffff1681526020019081526020015f2090505f82118015610be9575081815f015410155b610c28576040517f08c379a0000000000000000000000000000000000000000000000000000000008152600401610c1f90614aee565b60405180910390fd5b8060030154431015610c6f576040517f08c379a0000000000000000000000000000000000000000000000000000000008152600401610c6690614b56565b60405180910390fd5b610c7833611f13565b81815f015f828254610c8a9190614ba1565b925050819055508160165f828254610ca29190614ba1565b92505081905550610cb4303384611d9c565b3373ffffffffffffffffffffffffffffffffffffffff167f0f5bb82176feb1b5e747e28471aa92156a04d9f3ab9f45f28e2d704232b93f7583604051610cfa91906143c9565b60405180910390a250610d0b611ff3565b50565b5f6012905090565b5f610d1f611ffd565b905090565b5f610d7c610d31836120b3565b600a5f8673ffffffffffffffffffffffffffffffffffffffff1673ffffffffffffffffffffffffffffffffffffffff1681526020019081526020015f2061211e90919063ffffffff16565b79ffffffffffffffffffffffffffffffffffffffffffffffffffff16905092915050565b610da861220e565b610db0612295565b565b610dba611e8c565b610dc261220e565b7f000000000000000000000000000000000000000000000000000000000000000081600f54610df19190614bd4565b1115610e32576040517f08c379a0000000000000000000000000000000000000000000000000000000008152600401610e2990614c51565b60405180910390fd5b610e3c82826122f6565b80600f5f828254610e4d9190614bd4565b925050819055508173ffffffffffffffffffffffffffffffffffffffff167f0f6798a560793a54c3bcfe86a93cde1e73087d944c0ea20544137d412139688582604051610e9a91906143c9565b60405180910390a2610eaa611ff3565b5050565b610eb6611e8c565b610ebf81612375565b610ec7611ff3565b50565b6060610ed4612389565b65ffffffffffff16610ee4611373565b65ffffffffffff1614610f23576040517f6ff0714000000000000000000000000000000000000000000000000000000000815260040160405180910390fd5b6040518060400160405280601d81526020017f6d6f64653d626c6f636b6e756d6265722666726f6d3d64656661756c74000000815250905090565b5f60115f8373ffffffffffffffffffffffffffffffffffffffff1673ffffffffffffffffffffffffffffffffffffffff1681526020019081526020015f205f9054906101000a900460ff169050919050565b5f60095f8373ffffffffffffffffffffffffffffffffffffffff1673ffffffffffffffffffffffffffffffffffffffff1681526020019081526020015f205f9054906101000a900473ffffffffffffffffffffffffffffffffffffffff169050919050565b61101d61220e565b6110278282612398565b8173ffffffffffffffffffffffffffffffffffffffff167f8cacdd64bcff95db0485e736ffb5686b2d0c4b27996f3e38e285b8996779048b8260405161106d91906143a1565b60405180910390a25050565b60135481565b5f611088611cf0565b905061109481836123f0565b5050565b5f60085f9054906101000a900460ff16905090565b5f60155f8373ffffffffffffffffffffffffffffffffffffffff1673ffffffffffffffffffffffffffffffffffffffff1681526020019081526020015f205f01549050919050565b5f60105f9054906101000a900473ffffffffffffffffffffffffffffffffffffffff16905090565b5f61112782612500565b9050919050565b5f5f5f8373ffffffffffffffffffffffffffffffffffffffff1673ffffffffffffffffffffffffffffffffffffffff1681526020019081526020015f20549050919050565b61117b61220e565b6111845f612555565b565b5f61118f611cf0565b90508073ffffffffffffffffffffffffffffffffffffffff166111b0611af0565b73ffffffffffffffffffffffffffffffffffffffff161461120857806040517f118cdaa70000000000000000000000000000000000000000000000000000000081526004016111ff91906144fc565b60405180910390fd5b61121181612555565b50565b61122682611220611cf0565b83611d09565b6112308282612585565b5050565b5f61123e82612604565b9050919050565b60125481565b5f601654905090565b61125c61220e565b611264612615565b565b5f6060805f5f5f6060611277612677565b61127f6126b2565b46305f5f1b5f67ffffffffffffffff81111561129e5761129d614c6f565b5b6040519080825280602002602001820160405280156112cc5781602001602082028036833780820191505090505b507f0f00000000000000000000000000000000000000000000000000000000000000959493929190965096509650965096509650965090919293949596565b5f600c5f9054906101000a900473ffffffffffffffffffffffffffffffffffffffff16905090565b5f611350611340836120b3565b600b61211e90919063ffffffff16565b79ffffffffffffffffffffffffffffffffffffffffffffffffffff169050919050565b5f61137c612389565b905090565b60606004805461139090614a74565b80601f01602080910402602001604051908101604052809291908181526020018280546113bc90614a74565b80156114075780601f106113de57610100808354040283529160200191611407565b820191905f5260205f20905b8154815290600101906020018083116113ea57829003601f168201915b5050505050905090565b5f611457600a5f8473ffffffffffffffffffffffffffffffffffffffff1673ffffffffffffffffffffffffffffffffffffffff1681526020019081526020015f206126ed565b79ffffffffffffffffffffffffffffffffffffffffffffffffffff169050919050565b601481565b5f600f54905090565b611490611e8c565b611498611ed2565b5f81116114da576040517f08c379a00000000000000000000000000000000000000000000000000000000081526004016114d190614ce6565b60405180910390fd5b6114e333611f13565b6114ee333083611d9c565b5f60155f3373ffffffffffffffffffffffffffffffffffffffff1673ffffffffffffffffffffffffffffffffffffffff1681526020019081526020015f20905081815f015f8282546115409190614bd4565b925050819055506014436115549190614bd4565b81600301819055504381600201819055508160165f8282546115769190614bd4565b925050819055503373ffffffffffffffffffffffffffffffffffffffff167f1449c6dd7851abc30abf37f57715f492010519147cc2652fbc38202c18a6ee908383600301546040516115c9929190614d04565b60405180910390a2506115da611ff3565b50565b5f5f6115e7611cf0565b90506115f4818585611d9c565b600191505092915050565b600581565b61160c611e8c565b611614611ed2565b5f60155f3373ffffffffffffffffffffffffffffffffffffffff1673ffffffffffffffffffffffffffffffffffffffff1681526020019081526020015f209050600581600201546116659190614bd4565b4310156116a7576040517f08c379a000000000000000000000000000000000000000000000000000000000815260040161169e90614d75565b60405180910390fd5b6116b033611f13565b5f816001015490505f81116116fa576040517f08c379a00000000000000000000000000000000000000000000000000000000081526004016116f190614ddd565b60405180910390fd5b5f6064601460175461170c9190614dfb565b6117169190614e69565b905080821115611724578091505b6017548211156117345760175491505b8160175f8282546117459190614ba1565b9250508190555081836001015f82825461175f9190614ba1565b9250508190555043836002018190555061177a303384611d9c565b3373ffffffffffffffffffffffffffffffffffffffff167f106f923f993c2149d49b4255ff723acafa1f2d94393f561d3eda32ae348f7241836040516117c091906143c9565b60405180910390a25050506117d3611ff3565b565b60145481565b8342111561182057836040517f4683af0e00000000000000000000000000000000000000000000000000000000815260040161181791906143c9565b60405180910390fd5b5f6118816118797fe48329057bfd03d55e49b547132e39cffd9c1820ad7b9d4c5307691425d15adf89898960405160200161185e9493929190614e99565b6040516020818303038152906040528051906020012061274f565b858585612768565b905061188d8187612796565b61189781886123f0565b50505050505050565b6118a861220e565b808211156118eb576040517f08c379a00000000000000000000000000000000000000000000000000000000081526004016118e290614f26565b60405180910390fd5b81601381905550806014819055505050565b8342111561194257836040517f6279130200000000000000000000000000000000000000000000000000000000815260040161193991906143c9565b60405180910390fd5b5f7f6e71edae12b1b97f4d1f60370fef10105fa2faae0126114a169c64845d6126c98888886119708c6127ed565b8960405160200161198696959493929190614f44565b6040516020818303038152906040528051906020012090505f6119a88261274f565b90505f6119b782878787612768565b90508973ffffffffffffffffffffffffffffffffffffffff168173ffffffffffffffffffffffffffffffffffffffff1614611a2b57808a6040517f4b800e46000000000000000000000000000000000000000000000000000000008152600401611a22929190614fa3565b60405180910390fd5b611a368a8a8a611cf7565b50505050505050505050565b5f7f0000000000000000000000000000000000000000000000000000000000000000905090565b5f60015f8473ffffffffffffffffffffffffffffffffffffffff1673ffffffffffffffffffffffffffffffffffffffff1681526020019081526020015f205f8373ffffffffffffffffffffffffffffffffffffffff1673ffffffffffffffffffffffffffffffffffffffff1681526020019081526020015f2054905092915050565b601481565b5f600d5f9054906101000a900473ffffffffffffffffffffffffffffffffffffffff16905090565b601481565b6103e881565b611b2b61220e565b5f73ffffffffffffffffffffffffffffffffffffffff168173ffffffffffffffffffffffffffffffffffffffff1603611b99576040517f08c379a0000000000000000000000000000000000000000000000000000000008152600401611b9090615014565b60405180910390fd5b8060105f6101000a81548173ffffffffffffffffffffffffffffffffffffffff021916908373ffffffffffffffffffffffffffffffffffffffff160217905550611be4816001612398565b8073ffffffffffffffffffffffffffffffffffffffff167f7dae230f18360d76a040c81f050aa14eb9d6dc7901b20fc5d855e2a20fe814d160405160405180910390a250565b611c326141ec565b611c3c8383612840565b905092915050565b611c4c61220e565b80600d5f6101000a81548173ffffffffffffffffffffffffffffffffffffffff021916908373ffffffffffffffffffffffffffffffffffffffff1602179055508073ffffffffffffffffffffffffffffffffffffffff16611cab61130b565b73ffffffffffffffffffffffffffffffffffffffff167f38d16b8cac22d99fc7c124b9cd0de2d3fa1faef420bfe791d8c362d765e2270060405160405180910390a350565b5f33905090565b611d04838383600161289f565b505050565b5f611d148484611a69565b90507fffffffffffffffffffffffffffffffffffffffffffffffffffffffffffffffff811015611d965781811015611d87578281836040517ffb8f41b2000000000000000000000000000000000000000000000000000000008152600401611d7e93929190615032565b60405180910390fd5b611d9584848484035f61289f565b5b50505050565b5f73ffffffffffffffffffffffffffffffffffffffff168373ffffffffffffffffffffffffffffffffffffffff1603611e0c575f6040517f96c6fd1e000000000000000000000000000000000000000000000000000000008152600401611e0391906144fc565b60405180910390fd5b5f73ffffffffffffffffffffffffffffffffffffffff168273ffffffffffffffffffffffffffffffffffffffff1603611e7c575f6040517fec442f05000000000000000000000000000000000000000000000000000000008152600401611e7391906144fc565b60405180910390fd5b611e87838383612a6e565b505050565b6002600e5403611ec8576040517f3ee5aeb500000000000000000000000000000000000000000000000000000000815260040160405180910390fd5b6002600e81905550565b611eda611098565b15611f11576040517fd93c066500000000000000000000000000000000000000000000000000000000815260040160405180910390fd5b565b5f6016541480611f2457505f601754145b611ff057601654670de0b6b3a7640000601754611f419190614dfb565b611f4b9190614e69565b6018819055505f60155f8373ffffffffffffffffffffffffffffffffffffffff1673ffffffffffffffffffffffffffffffffffffffff1681526020019081526020015f2090505f815f01541115611fee575f8160010154670de0b6b3a7640000601854845f0154611fbc9190614dfb565b611fc69190614e69565b611fd09190614ba1565b905080826001015f828254611fe59190614bd4565b92505081905550505b505b50565b6001600e81905550565b5f7f000000000000000000000000000000000000000000000000000000000000000073ffffffffffffffffffffffffffffffffffffffff163073ffffffffffffffffffffffffffffffffffffffff1614801561207857507f000000000000000000000000000000000000000000000000000000000000000046145b156120a5577f000000000000000000000000000000000000000000000000000000000000000090506120b0565b6120ad612d3e565b90505b90565b5f5f6120bd611373565b90508065ffffffffffff16831061210d5782816040517fecd3f81e000000000000000000000000000000000000000000000000000000008152600401612104929190615067565b60405180910390fd5b61211683612dd3565b915050919050565b5f5f835f018054905090505f5f90505f82905060058311156121a2575f61214484612e2c565b8461214f9190614ba1565b905061215d875f0182612fc6565b5f015f9054906101000a900465ffffffffffff1665ffffffffffff168665ffffffffffff161015612190578091506121a0565b60018161219d9190614bd4565b92505b505b5f6121b1875f01878585612fd8565b90505f8114612200576121d2875f016001836121cd9190614ba1565b612fc6565b5f0160069054906101000a900479ffffffffffffffffffffffffffffffffffffffffffffffffffff16612202565b5f5b94505050505092915050565b612216611cf0565b73ffffffffffffffffffffffffffffffffffffffff1661223461130b565b73ffffffffffffffffffffffffffffffffffffffff161461229357612257611cf0565b6040517f118cdaa700000000000000000000000000000000000000000000000000000000815260040161228a91906144fc565b60405180910390fd5b565b61229d61304d565b5f60085f6101000a81548160ff0219169083151502179055507f5db9ee0a495bf2e6ff9c91a7834c1ba4fdd244a5e8aa4e537bd38aeae4b073aa6122df611cf0565b6040516122ec91906144fc565b60405180910390a1565b5f73ffffffffffffffffffffffffffffffffffffffff168273ffffffffffffffffffffffffffffffffffffffff1603612366575f6040517fec442f0500000000000000000000000000000000000000000000000000000000815260040161235d91906144fc565b60405180910390fd5b6123715f8383612a6e565b5050565b612386612380611cf0565b82612585565b50565b5f61239343612dd3565b905090565b8060115f8473ffffffffffffffffffffffffffffffffffffffff1673ffffffffffffffffffffffffffffffffffffffff1681526020019081526020015f205f6101000a81548160ff0219169083151502179055505050565b5f6123fa83610fb0565b90508160095f8573ffffffffffffffffffffffffffffffffffffffff1673ffffffffffffffffffffffffffffffffffffffff1681526020019081526020015f205f6101000a81548173ffffffffffffffffffffffffffffffffffffffff021916908373ffffffffffffffffffffffffffffffffffffffff1602179055508173ffffffffffffffffffffffffffffffffffffffff168173ffffffffffffffffffffffffffffffffffffffff168473ffffffffffffffffffffffffffffffffffffffff167f3134e8a2e6d97e929a7e54011ea5485d7d196dd5f0ba4d4ef95803e8e3fc257f60405160405180910390a46124fb81836124f68661308d565b61309e565b505050565b5f61254e612549600a5f8573ffffffffffffffffffffffffffffffffffffffff1673ffffffffffffffffffffffffffffffffffffffff1681526020019081526020015f2061330e565b61331d565b9050919050565b600d5f6101000a81549073ffffffffffffffffffffffffffffffffffffffff021916905561258281613374565b50565b5f73ffffffffffffffffffffffffffffffffffffffff168273ffffffffffffffffffffffffffffffffffffffff16036125f5575f6040517f96c6fd1e0000000000000000000000000000000000000000000000000000000081526004016125ec91906144fc565b60405180910390fd5b612600825f83612a6e565b5050565b5f61260e82613437565b9050919050565b61261d611ed2565b600160085f6101000a81548160ff0219169083151502179055507f62e78cea01bee320cd4e420270b5ea74000d11b0c9f74754ebdbfc544b05a258612660611cf0565b60405161266d91906144fc565b60405180910390a1565b60606126ad60057f000000000000000000000000000000000000000000000000000000000000000061347d90919063ffffffff16565b905090565b60606126e860067f000000000000000000000000000000000000000000000000000000000000000061347d90919063ffffffff16565b905090565b5f5f825f018054905090505f811461274557612717835f016001836127129190614ba1565b612fc6565b5f0160069054906101000a900479ffffffffffffffffffffffffffffffffffffffffffffffffffff16612747565b5f5b915050919050565b5f61276161275b611ffd565b8361352a565b9050919050565b5f5f5f5f6127788888888861356a565b9250925092506127888282613651565b829350505050949350505050565b5f6127a0836127ed565b90508082146127e85782816040517f752d88c00000000000000000000000000000000000000000000000000000000081526004016127df92919061508e565b60405180910390fd5b505050565b5f60075f8373ffffffffffffffffffffffffffffffffffffffff1673ffffffffffffffffffffffffffffffffffffffff1681526020019081526020015f205f815480929190600101919050559050919050565b6128486141ec565b61289782600a5f8673ffffffffffffffffffffffffffffffffffffffff1673ffffffffffffffffffffffffffffffffffffffff1681526020019081526020015f206137b390919063ffffffff16565b905092915050565b5f73ffffffffffffffffffffffffffffffffffffffff168473ffffffffffffffffffffffffffffffffffffffff160361290f575f6040517fe602df0500000000000000000000000000000000000000000000000000000000815260040161290691906144fc565b60405180910390fd5b5f73ffffffffffffffffffffffffffffffffffffffff168373ffffffffffffffffffffffffffffffffffffffff160361297f575f6040517f94280d6200000000000000000000000000000000000000000000000000000000815260040161297691906144fc565b60405180910390fd5b8160015f8673ffffffffffffffffffffffffffffffffffffffff1673ffffffffffffffffffffffffffffffffffffffff1681526020019081526020015f205f8573ffffffffffffffffffffffffffffffffffffffff1673ffffffffffffffffffffffffffffffffffffffff1681526020019081526020015f20819055508015612a68578273ffffffffffffffffffffffffffffffffffffffff168473ffffffffffffffffffffffffffffffffffffffff167f8c5be1e5ebec7d5bd14f71427d1e84f3dd0314c0f7b2291e5b200ac8c7c3b92584604051612a5f91906143c9565b60405180910390a35b50505050565b612a76611098565b15612ab6576040517f08c379a0000000000000000000000000000000000000000000000000000000008152600401612aad906150ff565b60405180910390fd5b612abe613882565b60115f8473ffffffffffffffffffffffffffffffffffffffff1673ffffffffffffffffffffffffffffffffffffffff1681526020019081526020015f205f9054906101000a900460ff1680612b59575060115f8373ffffffffffffffffffffffffffffffffffffffff1673ffffffffffffffffffffffffffffffffffffffff1681526020019081526020015f205f9054906101000a900460ff165b80612b8f57505f73ffffffffffffffffffffffffffffffffffffffff168373ffffffffffffffffffffffffffffffffffffffff16145b80612bc557505f73ffffffffffffffffffffffffffffffffffffffff168273ffffffffffffffffffffffffffffffffffffffff16145b15612bda57612bd583838361395d565b612d39565b5f6103e860125483612bec9190614dfb565b612bf69190614e69565b90505f6064601483612c089190614dfb565b612c129190614e69565b90505f6064603284612c249190614dfb565b612c2e9190614e69565b90505f818385612c3e9190614ba1565b612c489190614ba1565b90505f8486612c579190614ba1565b90505f841115612c6c57612c6b8885612585565b5b5f831115612c8d578260175f828254612c859190614bd4565b925050819055505b5f821115612cc257612cc18860105f9054906101000a900473ffffffffffffffffffffffffffffffffffffffff168461395d565b5b612ccd88888361395d565b612cd688611f13565b612cdf87611f13565b8773ffffffffffffffffffffffffffffffffffffffff167f21a7b6b5ac599135cf56546d5f241513068ab2cd71844c3bb1205c40930e4dd686868686604051612d2b949392919061511d565b60405180910390a250505050505b505050565b5f7f8b73c3c69bb8fe3d512ecc4cf759cc79239f7b179b0ffacaa9a75d522b39400f7f00000000000000000000000000000000000000000000000000000000000000007f00000000000000000000000000000000000000000000000000000000000000004630604051602001612db8959493929190615160565b60405160208183030381529060405280519060200120905090565b5f65ffffffffffff8016821115612e24576030826040517f6dfcc650000000000000000000000000000000000000000000000000000000008152600401612e1b9291906151f3565b60405180910390fd5b819050919050565b5f60018211612e3d57819050612fc1565b5f8290505f600190507001000000000000000000000000000000008210612e6d57608082901c9150604081901b90505b680100000000000000008210612e8c57604082901c9150602081901b90505b6401000000008210612ea757602082901c9150601081901b90505b620100008210612ec057601082901c9150600881901b90505b6101008210612ed857600882901c9150600481901b90505b60108210612eef57600482901c9150600281901b90505b60048210612eff57600181901b90505b600181600302901c90506001818581612f1b57612f1a614e3c565b5b048201901c90506001818581612f3457612f33614e3c565b5b048201901c90506001818581612f4d57612f4c614e3c565b5b048201901c90506001818581612f6657612f65614e3c565b5b048201901c90506001818581612f7f57612f7e614e3c565b5b048201901c90506001818581612f9857612f97614e3c565b5b048201901c9050612fba818581612fb257612fb1614e3c565b5b048211613a0b565b8103925050505b919050565b5f825f528160205f2001905092915050565b5f5b81831015613042575f612fed8484613a16565b90508465ffffffffffff166130028783612fc6565b5f015f9054906101000a900465ffffffffffff1665ffffffffffff16111561302c5780925061303c565b6001816130399190614bd4565b93505b50612fda565b819050949350505050565b613055611098565b61308b576040517f8dfc202b00000000000000000000000000000000000000000000000000000000815260040160405180910390fd5b565b5f6130978261112e565b9050919050565b8173ffffffffffffffffffffffffffffffffffffffff168373ffffffffffffffffffffffffffffffffffffffff16141580156130d957505f81115b15613309575f73ffffffffffffffffffffffffffffffffffffffff168373ffffffffffffffffffffffffffffffffffffffff16146131f3575f5f613164600a5f8773ffffffffffffffffffffffffffffffffffffffff1673ffffffffffffffffffffffffffffffffffffffff1681526020019081526020015f20613a3b61315f86613a50565b613abd565b79ffffffffffffffffffffffffffffffffffffffffffffffffffff16915079ffffffffffffffffffffffffffffffffffffffffffffffffffff1691508473ffffffffffffffffffffffffffffffffffffffff167fdec2bacdd2f05b59de34da9b523dff8be42e5e38e818c82fdb0bae774387a72483836040516131e8929190614d04565b60405180910390a250505b5f73ffffffffffffffffffffffffffffffffffffffff168273ffffffffffffffffffffffffffffffffffffffff1614613308575f5f613279600a5f8673ffffffffffffffffffffffffffffffffffffffff1673ffffffffffffffffffffffffffffffffffffffff1681526020019081526020015f20613afc61327486613a50565b613abd565b79ffffffffffffffffffffffffffffffffffffffffffffffffffff16915079ffffffffffffffffffffffffffffffffffffffffffffffffffff1691508373ffffffffffffffffffffffffffffffffffffffff167fdec2bacdd2f05b59de34da9b523dff8be42e5e38e818c82fdb0bae774387a72483836040516132fd929190614d04565b60405180910390a250505b5b505050565b5f815f01805490509050919050565b5f63ffffffff801682111561336c576020826040517f6dfcc650000000000000000000000000000000000000000000000000000000008152600401613363929190615253565b60405180910390fd5b819050919050565b5f600c5f9054906101000a900473ffffffffffffffffffffffffffffffffffffffff16905081600c5f6101000a81548173ffffffffffffffffffffffffffffffffffffffff021916908373ffffffffffffffffffffffffffffffffffffffff1602179055508173ffffffffffffffffffffffffffffffffffffffff168173ffffffffffffffffffffffffffffffffffffffff167f8be0079c531659141344cd1fd0a4f28419497f9722a3daafe3b4186f6b6457e060405160405180910390a35050565b5f60075f8373ffffffffffffffffffffffffffffffffffffffff1673ffffffffffffffffffffffffffffffffffffffff1681526020019081526020015f20549050919050565b606060ff5f1b83146134995761349283613b11565b9050613524565b8180546134a590614a74565b80601f01602080910402602001604051908101604052809291908181526020018280546134d190614a74565b801561351c5780601f106134f35761010080835404028352916020019161351c565b820191905f5260205f20905b8154815290600101906020018083116134ff57829003601f168201915b505050505090505b92915050565b5f6040517f190100000000000000000000000000000000000000000000000000000000000081528360028201528260228201526042812091505092915050565b5f5f5f7f7fffffffffffffffffffffffffffffff5d576e7357a4501ddfe92f46681b20a0845f1c11156135a6575f600385925092509250613647565b5f6001888888886040515f81526020016040526040516135c9949392919061527a565b6020604051602081039080840390855afa1580156135e9573d5f5f3e3d5ffd5b5050506020604051035190505f73ffffffffffffffffffffffffffffffffffffffff168173ffffffffffffffffffffffffffffffffffffffff160361363a575f60015f5f1b93509350935050613647565b805f5f5f1b935093509350505b9450945094915050565b5f6003811115613664576136636152bd565b5b826003811115613677576136766152bd565b5b03156137af5760016003811115613691576136906152bd565b5b8260038111156136a4576136a36152bd565b5b036136db576040517ff645eedf00000000000000000000000000000000000000000000000000000000815260040160405180910390fd5b600260038111156136ef576136ee6152bd565b5b826003811115613702576137016152bd565b5b0361374657805f1c6040517ffce698f700000000000000000000000000000000000000000000000000000000815260040161373d91906143c9565b60405180910390fd5b600380811115613759576137586152bd565b5b82600381111561376c5761376b6152bd565b5b036137ae57806040517fd78bce0c0000000000000000000000000000000000000000000000000000000081526004016137a591906144a9565b60405180910390fd5b5b5050565b6137bb6141ec565b825f018263ffffffff16815481106137d6576137d56152ea565b5b905f5260205f20016040518060400160405290815f82015f9054906101000a900465ffffffffffff1665ffffffffffff1665ffffffffffff1681526020015f820160069054906101000a900479ffffffffffffffffffffffffffffffffffffffffffffffffffff1679ffffffffffffffffffffffffffffffffffffffffffffffffffff1679ffffffffffffffffffffffffffffffffffffffffffffffffffff1681525050905092915050565b5f61388b610b4b565b031561395b575f61389a610b4b565b670de0b6b3a76400006017546138b09190614dfb565b6138ba9190614e69565b90505f670de0b6b3a7640000826013546014546138d79190614ba1565b6138e19190614dfb565b6138eb9190614e69565b6014546138f89190614ba1565b905060135481101561390a5760135490505b60145481111561391a5760145490505b806012819055507f64d1887078a96d281ed60dd69ba75bfb6b5cd2cb4c2d2538b2eb7816a4c646ea8160405161395091906143c9565b60405180910390a150505b565b613968838383613b83565b5f73ffffffffffffffffffffffffffffffffffffffff168373ffffffffffffffffffffffffffffffffffffffff16036139fb575f6139a4610b4b565b90505f6139af613b9b565b9050808211156139f85781816040517f1cb15d260000000000000000000000000000000000000000000000000000000081526004016139ef929190614d04565b60405180910390fd5b50505b613a06838383613bbe565b505050565b5f8115159050919050565b5f6002828418613a269190614e69565b828416613a339190614bd4565b905092915050565b5f8183613a489190615317565b905092915050565b5f79ffffffffffffffffffffffffffffffffffffffffffffffffffff8016821115613ab55760d0826040517f6dfcc650000000000000000000000000000000000000000000000000000000008152600401613aac92919061539d565b60405180910390fd5b819050919050565b5f5f613af0613aca611373565b613ae0613ad6886126ed565b868863ffffffff16565b87613c769092919063ffffffff16565b91509150935093915050565b5f8183613b0991906153c4565b905092915050565b60605f613b1d83613c91565b90505f602067ffffffffffffffff811115613b3b57613b3a614c6f565b5b6040519080825280601f01601f191660200182016040528015613b6d5781602001600182028036833780820191505090505b5090508181528360208201528092505050919050565b613b8b611ed2565b613b96838383613cdf565b505050565b5f79ffffffffffffffffffffffffffffffffffffffffffffffffffff8016905090565b5f73ffffffffffffffffffffffffffffffffffffffff168373ffffffffffffffffffffffffffffffffffffffff1603613c0a57613c07600b613afc613c0284613a50565b613abd565b50505b5f73ffffffffffffffffffffffffffffffffffffffff168273ffffffffffffffffffffffffffffffffffffffff1603613c5657613c53600b613a3b613c4e84613a50565b613abd565b50505b613c71613c6284610fb0565b613c6b84610fb0565b8361309e565b505050565b5f5f613c85855f018585613ef8565b91509150935093915050565b5f5f60ff835f1c169050601f811115613cd6576040517fb3512b0c00000000000000000000000000000000000000000000000000000000815260040160405180910390fd5b80915050919050565b5f73ffffffffffffffffffffffffffffffffffffffff168373ffffffffffffffffffffffffffffffffffffffff1603613d2f578060025f828254613d239190614bd4565b92505081905550613dfd565b5f5f5f8573ffffffffffffffffffffffffffffffffffffffff1673ffffffffffffffffffffffffffffffffffffffff1681526020019081526020015f2054905081811015613db8578381836040517fe450d38c000000000000000000000000000000000000000000000000000000008152600401613daf93929190615032565b60405180910390fd5b8181035f5f8673ffffffffffffffffffffffffffffffffffffffff1673ffffffffffffffffffffffffffffffffffffffff1681526020019081526020015f2081905550505b5f73ffffffffffffffffffffffffffffffffffffffff168273ffffffffffffffffffffffffffffffffffffffff1603613e44578060025f8282540392505081905550613e8e565b805f5f8473ffffffffffffffffffffffffffffffffffffffff1673ffffffffffffffffffffffffffffffffffffffff1681526020019081526020015f205f82825401925050819055505b8173ffffffffffffffffffffffffffffffffffffffff168373ffffffffffffffffffffffffffffffffffffffff167fddf252ad1be2c89b69c2b068fc378daa952ba7f163c4a11628f55a4df523b3ef83604051613eeb91906143c9565b60405180910390a3505050565b5f5f5f858054905090505f811115614104575f613f2187600184613f1c9190614ba1565b612fc6565b90505f815f015f9054906101000a900465ffffffffffff1690505f825f0160069054906101000a900479ffffffffffffffffffffffffffffffffffffffffffffffffffff1690508765ffffffffffff168265ffffffffffff161115613fb2576040517f2520601d00000000000000000000000000000000000000000000000000000000815260040160405180910390fd5b8765ffffffffffff168265ffffffffffff160361401c5786835f0160066101000a81548179ffffffffffffffffffffffffffffffffffffffffffffffffffff021916908379ffffffffffffffffffffffffffffffffffffffffffffffffffff1602179055506140f5565b8860405180604001604052808a65ffffffffffff1681526020018979ffffffffffffffffffffffffffffffffffffffffffffffffffff16815250908060018154018082558091505060019003905f5260205f20015f909190919091505f820151815f015f6101000a81548165ffffffffffff021916908365ffffffffffff1602179055506020820151815f0160066101000a81548179ffffffffffffffffffffffffffffffffffffffffffffffffffff021916908379ffffffffffffffffffffffffffffffffffffffffffffffffffff16021790555050505b808795509550505050506141e4565b8560405180604001604052808765ffffffffffff1681526020018679ffffffffffffffffffffffffffffffffffffffffffffffffffff16815250908060018154018082558091505060019003905f5260205f20015f909190919091505f820151815f015f6101000a81548165ffffffffffff021916908365ffffffffffff1602179055506020820151815f0160066101000a81548179ffffffffffffffffffffffffffffffffffffffffffffffffffff021916908379ffffffffffffffffffffffffffffffffffffffffffffffffffff16021790555050505f8492509250505b935093915050565b60405180604001604052805f65ffffffffffff1681526020015f79ffffffffffffffffffffffffffffffffffffffffffffffffffff1681525090565b5f81519050919050565b5f82825260208201905092915050565b8281835e5f83830152505050565b5f601f19601f8301169050919050565b5f61426a82614228565b6142748185614232565b9350614284818560208601614242565b61428d81614250565b840191505092915050565b5f6020820190508181035f8301526142b08184614260565b905092915050565b5f5ffd5b5f73ffffffffffffffffffffffffffffffffffffffff82169050919050565b5f6142e5826142bc565b9050919050565b6142f5816142db565b81146142ff575f5ffd5b50565b5f81359050614310816142ec565b92915050565b5f819050919050565b61432881614316565b8114614332575f5ffd5b50565b5f813590506143438161431f565b92915050565b5f5f6040838503121561435f5761435e6142b8565b5b5f61436c85828601614302565b925050602061437d85828601614335565b9150509250929050565b5f8115159050919050565b61439b81614387565b82525050565b5f6020820190506143b45f830184614392565b92915050565b6143c381614316565b82525050565b5f6020820190506143dc5f8301846143ba565b92915050565b5f5f5f606084860312156143f9576143f86142b8565b5b5f61440686828701614302565b935050602061441786828701614302565b925050604061442886828701614335565b9150509250925092565b5f60208284031215614447576144466142b8565b5b5f61445484828501614335565b91505092915050565b5f60ff82169050919050565b6144728161445d565b82525050565b5f60208201905061448b5f830184614469565b92915050565b5f819050919050565b6144a381614491565b82525050565b5f6020820190506144bc5f83018461449a565b92915050565b5f602082840312156144d7576144d66142b8565b5b5f6144e484828501614302565b91505092915050565b6144f6816142db565b82525050565b5f60208201905061450f5f8301846144ed565b92915050565b61451e81614387565b8114614528575f5ffd5b50565b5f8135905061453981614515565b92915050565b5f5f60408385031215614555576145546142b8565b5b5f61456285828601614302565b92505060206145738582860161452b565b9150509250929050565b5f63ffffffff82169050919050565b6145958161457d565b82525050565b5f6020820190506145ae5f83018461458c565b92915050565b5f7fff0000000000000000000000000000000000000000000000000000000000000082169050919050565b6145e8816145b4565b82525050565b5f81519050919050565b5f82825260208201905092915050565b5f819050602082019050919050565b61462081614316565b82525050565b5f6146318383614617565b60208301905092915050565b5f602082019050919050565b5f614653826145ee565b61465d81856145f8565b935061466883614608565b805f5b8381101561469857815161467f8882614626565b975061468a8361463d565b92505060018101905061466b565b5085935050505092915050565b5f60e0820190506146b85f83018a6145df565b81810360208301526146ca8189614260565b905081810360408301526146de8188614260565b90506146ed60608301876143ba565b6146fa60808301866144ed565b61470760a083018561449a565b81810360c08301526147198184614649565b905098975050505050505050565b5f65ffffffffffff82169050919050565b61474181614727565b82525050565b5f60208201905061475a5f830184614738565b92915050565b6147698161445d565b8114614773575f5ffd5b50565b5f8135905061478481614760565b92915050565b61479381614491565b811461479d575f5ffd5b50565b5f813590506147ae8161478a565b92915050565b5f5f5f5f5f5f60c087890312156147ce576147cd6142b8565b5b5f6147db89828a01614302565b96505060206147ec89828a01614335565b95505060406147fd89828a01614335565b945050606061480e89828a01614776565b935050608061481f89828a016147a0565b92505060a061483089828a016147a0565b9150509295509295509295565b5f5f60408385031215614853576148526142b8565b5b5f61486085828601614335565b925050602061487185828601614335565b9150509250929050565b5f5f5f5f5f5f5f60e0888a031215614896576148956142b8565b5b5f6148a38a828b01614302565b97505060206148b48a828b01614302565b96505060406148c58a828b01614335565b95505060606148d68a828b01614335565b94505060806148e78a828b01614776565b93505060a06148f88a828b016147a0565b92505060c06149098a828b016147a0565b91505092959891949750929550565b5f5f6040838503121561492e5761492d6142b8565b5b5f61493b85828601614302565b925050602061494c85828601614302565b9150509250929050565b61495f8161457d565b8114614969575f5ffd5b50565b5f8135905061497a81614956565b92915050565b5f5f60408385031215614996576149956142b8565b5b5f6149a385828601614302565b92505060206149b48582860161496c565b9150509250929050565b6149c781614727565b82525050565b5f79ffffffffffffffffffffffffffffffffffffffffffffffffffff82169050919050565b6149fb816149cd565b82525050565b604082015f820151614a155f8501826149be565b506020820151614a2860208501826149f2565b50505050565b5f604082019050614a415f830184614a01565b92915050565b7f4e487b71000000000000000000000000000000000000000000000000000000005f52602260045260245ffd5b5f6002820490506001821680614a8b57607f821691505b602082108103614a9e57614a9d614a47565b5b50919050565b7f496e76616c696420616d6f756e740000000000000000000000000000000000005f82015250565b5f614ad8600e83614232565b9150614ae382614aa4565b602082019050919050565b5f6020820190508181035f830152614b0581614acc565b9050919050565b7f5374696c6c206c6f636b656400000000000000000000000000000000000000005f82015250565b5f614b40600c83614232565b9150614b4b82614b0c565b602082019050919050565b5f6020820190508181035f830152614b6d81614b34565b9050919050565b7f4e487b71000000000000000000000000000000000000000000000000000000005f52601160045260245ffd5b5f614bab82614316565b9150614bb683614316565b9250828203905081811115614bce57614bcd614b74565b5b92915050565b5f614bde82614316565b9150614be983614316565b9250828201905080821115614c0157614c00614b74565b5b92915050565b7f4d617820737570706c79206578636565646564000000000000000000000000005f82015250565b5f614c3b601383614232565b9150614c4682614c07565b602082019050919050565b5f6020820190508181035f830152614c6881614c2f565b9050919050565b7f4e487b71000000000000000000000000000000000000000000000000000000005f52604160045260245ffd5b7f5a65726f20616d6f756e740000000000000000000000000000000000000000005f82015250565b5f614cd0600b83614232565b9150614cdb82614c9c565b602082019050919050565b5f6020820190508181035f830152614cfd81614cc4565b9050919050565b5f604082019050614d175f8301856143ba565b614d2460208301846143ba565b9392505050565b7f546f6f20736f6f6e0000000000000000000000000000000000000000000000005f82015250565b5f614d5f600883614232565b9150614d6a82614d2b565b602082019050919050565b5f6020820190508181035f830152614d8c81614d53565b9050919050565b7f4e6f2072657761726400000000000000000000000000000000000000000000005f82015250565b5f614dc7600983614232565b9150614dd282614d93565b602082019050919050565b5f6020820190508181035f830152614df481614dbb565b9050919050565b5f614e0582614316565b9150614e1083614316565b9250828202614e1e81614316565b91508282048414831517614e3557614e34614b74565b5b5092915050565b7f4e487b71000000000000000000000000000000000000000000000000000000005f52601260045260245ffd5b5f614e7382614316565b9150614e7e83614316565b925082614e8e57614e8d614e3c565b5b828204905092915050565b5f608082019050614eac5f83018761449a565b614eb960208301866144ed565b614ec660408301856143ba565b614ed360608301846143ba565b95945050505050565b7f496e76616c69642072616e6765000000000000000000000000000000000000005f82015250565b5f614f10600d83614232565b9150614f1b82614edc565b602082019050919050565b5f6020820190508181035f830152614f3d81614f04565b9050919050565b5f60c082019050614f575f83018961449a565b614f6460208301886144ed565b614f7160408301876144ed565b614f7e60608301866143ba565b614f8b60808301856143ba565b614f9860a08301846143ba565b979650505050505050565b5f604082019050614fb65f8301856144ed565b614fc360208301846144ed565b9392505050565b7f5a65726f206164647265737300000000000000000000000000000000000000005f82015250565b5f614ffe600c83614232565b915061500982614fca565b602082019050919050565b5f6020820190508181035f83015261502b81614ff2565b9050919050565b5f6060820190506150455f8301866144ed565b61505260208301856143ba565b61505f60408301846143ba565b949350505050565b5f60408201905061507a5f8301856143ba565b6150876020830184614738565b9392505050565b5f6040820190506150a15f8301856144ed565b6150ae60208301846143ba565b9392505050565b7f546f6b656e207472616e73666572207768696c652070617573656400000000005f82015250565b5f6150e9601b83614232565b91506150f4826150b5565b602082019050919050565b5f6020820190508181035f830152615116816150dd565b9050919050565b5f6080820190506151305f8301876143ba565b61513d60208301866143ba565b61514a60408301856143ba565b61515760608301846143ba565b95945050505050565b5f60a0820190506151735f83018861449a565b615180602083018761449a565b61518d604083018661449a565b61519a60608301856143ba565b6151a760808301846144ed565b9695505050505050565b5f819050919050565b5f819050919050565b5f6151dd6151d86151d3846151b1565b6151ba565b61445d565b9050919050565b6151ed816151c3565b82525050565b5f6040820190506152065f8301856151e4565b61521360208301846143ba565b9392505050565b5f819050919050565b5f61523d6152386152338461521a565b6151ba565b61445d565b9050919050565b61524d81615223565b82525050565b5f6040820190506152665f830185615244565b61527360208301846143ba565b9392505050565b5f60808201905061528d5f83018761449a565b61529a6020830186614469565b6152a7604083018561449a565b6152b4606083018461449a565b95945050505050565b7f4e487b71000000000000000000000000000000000000000000000000000000005f52602160045260245ffd5b7f4e487b71000000000000000000000000000000000000000000000000000000005f52603260045260245ffd5b5f615321826149cd565b915061532c836149cd565b9250828203905079ffffffffffffffffffffffffffffffffffffffffffffffffffff81111561535e5761535d614b74565b5b92915050565b5f819050919050565b5f61538761538261537d84615364565b6151ba565b61445d565b9050919050565b6153978161536d565b82525050565b5f6040820190506153b05f83018561538e565b6153bd60208301846143ba565b9392505050565b5f6153ce826149cd565b91506153d9836149cd565b9250828201905079ffffffffffffffffffffffffffffffffffffffffffffffffffff81111561540b5761540a614b74565b5b9291505056fea2646970667358221220318389fecbfae9446c44d4f4d0b512672afd90589c6b76bac11a579ea6fb3b2764736f6c634300081e0033",
			"opcodes": "PUSH2 0x180 PUSH1 0x40 MSTORE PUSH1 0x5 PUSH1 0x13 SSTORE PUSH1 0x32 PUSH1 0x14 SSTORE CALLVALUE DUP1 ISZERO PUSH2 0x1A JUMPI PUSH0 PUSH0 REVERT JUMPDEST POP PUSH1 0x40 MLOAD PUSH2 0x6178 CODESIZE SUB DUP1 PUSH2 0x6178 DUP4 CODECOPY DUP2 DUP2 ADD PUSH1 0x40 MSTORE DUP2 ADD SWAP1 PUSH2 0x3C SWAP2 SWAP1 PUSH2 0x5D9 JUMP JUMPDEST DUP2 PUSH1 0x40 MLOAD DUP1 PUSH1 0x40 ADD PUSH1 0x40 MSTORE DUP1 PUSH1 0xA DUP2 MSTORE PUSH1 0x20 ADD PUSH32 0x4D79546F6B656E50726F00000000000000000000000000000000000000000000 DUP2 MSTORE POP DUP1 PUSH1 0x40 MLOAD DUP1 PUSH1 0x40 ADD PUSH1 0x40 MSTORE DUP1 PUSH1 0x1 DUP2 MSTORE PUSH1 0x20 ADD PUSH32 0x3100000000000000000000000000000000000000000000000000000000000000 DUP2 MSTORE POP PUSH1 0x40 MLOAD DUP1 PUSH1 0x40 ADD PUSH1 0x40 MSTORE DUP1 PUSH1 0xA DUP2 MSTORE PUSH1 0x20 ADD PUSH32 0x4D79546F6B656E50726F00000000000000000000000000000000000000000000 DUP2 MSTORE POP PUSH1 0x40 MLOAD DUP1 PUSH1 0x40 ADD PUSH1 0x40 MSTORE DUP1 PUSH1 0x3 DUP2 MSTORE PUSH1 0x20 ADD PUSH32 0x4D54500000000000000000000000000000000000000000000000000000000000 DUP2 MSTORE POP DUP2 PUSH1 0x3 SWAP1 DUP2 PUSH2 0x125 SWAP2 SWAP1 PUSH2 0x854 JUMP JUMPDEST POP DUP1 PUSH1 0x4 SWAP1 DUP2 PUSH2 0x135 SWAP2 SWAP1 PUSH2 0x854 JUMP JUMPDEST POP POP POP PUSH2 0x14C PUSH1 0x5 DUP4 PUSH2 0x30D PUSH1 0x20 SHL SWAP1 SWAP2 SWAP1 PUSH1 0x20 SHR JUMP JUMPDEST PUSH2 0x120 DUP2 DUP2 MSTORE POP POP PUSH2 0x168 PUSH1 0x6 DUP3 PUSH2 0x30D PUSH1 0x20 SHL SWAP1 SWAP2 SWAP1 PUSH1 0x20 SHR JUMP JUMPDEST PUSH2 0x140 DUP2 DUP2 MSTORE POP POP DUP2 DUP1 MLOAD SWAP1 PUSH1 0x20 ADD KECCAK256 PUSH1 0xE0 DUP2 DUP2 MSTORE POP POP DUP1 DUP1 MLOAD SWAP1 PUSH1 0x20 ADD KECCAK256 PUSH2 0x100 DUP2 DUP2 MSTORE POP POP CHAINID PUSH1 0xA0 DUP2 DUP2 MSTORE POP POP PUSH2 0x1A5 PUSH2 0x35A PUSH1 0x20 SHL PUSH1 0x20 SHR JUMP JUMPDEST PUSH1 0x80 DUP2 DUP2 MSTORE POP POP ADDRESS PUSH20 0xFFFFFFFFFFFFFFFFFFFFFFFFFFFFFFFFFFFFFFFF AND PUSH1 0xC0 DUP2 PUSH20 0xFFFFFFFFFFFFFFFFFFFFFFFFFFFFFFFFFFFFFFFF AND DUP2 MSTORE POP POP POP POP POP PUSH0 PUSH20 0xFFFFFFFFFFFFFFFFFFFFFFFFFFFFFFFFFFFFFFFF AND DUP2 PUSH20 0xFFFFFFFFFFFFFFFFFFFFFFFFFFFFFFFFFFFFFFFF AND SUB PUSH2 0x253 JUMPI PUSH0 PUSH1 0x40 MLOAD PUSH32 0x1E4FBDF700000000000000000000000000000000000000000000000000000000 DUP2 MSTORE PUSH1 0x4 ADD PUSH2 0x24A SWAP2 SWAP1 PUSH2 0x932 JUMP JUMPDEST PUSH1 0x40 MLOAD DUP1 SWAP2 SUB SWAP1 REVERT JUMPDEST PUSH2 0x262 DUP2 PUSH2 0x3B4 PUSH1 0x20 SHL PUSH1 0x20 SHR JUMP JUMPDEST POP PUSH1 0x1 PUSH1 0xE DUP2 SWAP1 SSTORE POP DUP1 PUSH1 0x10 PUSH0 PUSH2 0x100 EXP DUP2 SLOAD DUP2 PUSH20 0xFFFFFFFFFFFFFFFFFFFFFFFFFFFFFFFFFFFFFFFF MUL NOT AND SWAP1 DUP4 PUSH20 0xFFFFFFFFFFFFFFFFFFFFFFFFFFFFFFFFFFFFFFFF AND MUL OR SWAP1 SSTORE POP PUSH2 0x2BC DUP3 PUSH1 0x1 PUSH2 0x3EA PUSH1 0x20 SHL PUSH1 0x20 SHR JUMP JUMPDEST PUSH2 0x2CD DUP2 PUSH1 0x1 PUSH2 0x3EA PUSH1 0x20 SHL PUSH1 0x20 SHR JUMP JUMPDEST PUSH2 0x2DB PUSH2 0x442 PUSH1 0x20 SHL PUSH1 0x20 SHR JUMP JUMPDEST PUSH1 0xA PUSH2 0x2E7 SWAP2 SWAP1 PUSH2 0xAB3 JUMP JUMPDEST PUSH4 0x3B9ACA00 PUSH2 0x2F6 SWAP2 SWAP1 PUSH2 0xAFD JUMP JUMPDEST PUSH2 0x160 DUP2 DUP2 MSTORE POP POP PUSH1 0x19 PUSH1 0x12 DUP2 SWAP1 SSTORE POP POP POP PUSH2 0xCCF JUMP JUMPDEST PUSH0 PUSH1 0x20 DUP4 MLOAD LT ISZERO PUSH2 0x32E JUMPI PUSH2 0x327 DUP4 PUSH2 0x44A PUSH1 0x20 SHL PUSH1 0x20 SHR JUMP JUMPDEST SWAP1 POP PUSH2 0x354 JUMP JUMPDEST DUP3 PUSH2 0x33E DUP4 PUSH2 0x4AF PUSH1 0x20 SHL PUSH1 0x20 SHR JUMP JUMPDEST PUSH0 ADD SWAP1 DUP2 PUSH2 0x34C SWAP2 SWAP1 PUSH2 0x854 JUMP JUMPDEST POP PUSH1 0xFF PUSH0 SHL SWAP1 POP JUMPDEST SWAP3 SWAP2 POP POP JUMP JUMPDEST PUSH0 PUSH32 0x8B73C3C69BB8FE3D512ECC4CF759CC79239F7B179B0FFACAA9A75D522B39400F PUSH1 0xE0 MLOAD PUSH2 0x100 MLOAD CHAINID ADDRESS PUSH1 0x40 MLOAD PUSH1 0x20 ADD PUSH2 0x399 SWAP6 SWAP5 SWAP4 SWAP3 SWAP2 SWAP1 PUSH2 0xB65 JUMP JUMPDEST PUSH1 0x40 MLOAD PUSH1 0x20 DUP2 DUP4 SUB SUB DUP2 MSTORE SWAP1 PUSH1 0x40 MSTORE DUP1 MLOAD SWAP1 PUSH1 0x20 ADD KECCAK256 SWAP1 POP SWAP1 JUMP JUMPDEST PUSH1 0xD PUSH0 PUSH2 0x100 EXP DUP2 SLOAD SWAP1 PUSH20 0xFFFFFFFFFFFFFFFFFFFFFFFFFFFFFFFFFFFFFFFF MUL NOT AND SWAP1 SSTORE PUSH2 0x3E7 DUP2 PUSH2 0x4B8 PUSH1 0x20 SHL PUSH1 0x20 SHR JUMP JUMPDEST POP JUMP JUMPDEST DUP1 PUSH1 0x11 PUSH0 DUP5 PUSH20 0xFFFFFFFFFFFFFFFFFFFFFFFFFFFFFFFFFFFFFFFF AND PUSH20 0xFFFFFFFFFFFFFFFFFFFFFFFFFFFFFFFFFFFFFFFF AND DUP2 MSTORE PUSH1 0x20 ADD SWAP1 DUP2 MSTORE PUSH1 0x20 ADD PUSH0 KECCAK256 PUSH0 PUSH2 0x100 EXP DUP2 SLOAD DUP2 PUSH1 0xFF MUL NOT AND SWAP1 DUP4 ISZERO ISZERO MUL OR SWAP1 SSTORE POP POP POP JUMP JUMPDEST PUSH0 PUSH1 0x12 SWAP1 POP SWAP1 JUMP JUMPDEST PUSH0 PUSH0 DUP3 SWAP1 POP PUSH1 0x1F DUP2 MLOAD GT ISZERO PUSH2 0x496 JUMPI DUP3 PUSH1 0x40 MLOAD PUSH32 0x305A27A900000000000000000000000000000000000000000000000000000000 DUP2 MSTORE PUSH1 0x4 ADD PUSH2 0x48D SWAP2 SWAP1 PUSH2 0xC1C JUMP JUMPDEST PUSH1 0x40 MLOAD DUP1 SWAP2 SUB SWAP1 REVERT JUMPDEST DUP1 MLOAD DUP2 PUSH2 0x4A2 SWAP1 PUSH2 0xC69 JUMP JUMPDEST PUSH0 SHR OR PUSH0 SHL SWAP2 POP POP SWAP2 SWAP1 POP JUMP JUMPDEST PUSH0 DUP2 SWAP1 POP SWAP2 SWAP1 POP JUMP JUMPDEST PUSH0 PUSH1 0xC PUSH0 SWAP1 SLOAD SWAP1 PUSH2 0x100 EXP SWAP1 DIV PUSH20 0xFFFFFFFFFFFFFFFFFFFFFFFFFFFFFFFFFFFFFFFF AND SWAP1 POP DUP2 PUSH1 0xC PUSH0 PUSH2 0x100 EXP DUP2 SLOAD DUP2 PUSH20 0xFFFFFFFFFFFFFFFFFFFFFFFFFFFFFFFFFFFFFFFF MUL NOT AND SWAP1 DUP4 PUSH20 0xFFFFFFFFFFFFFFFFFFFFFFFFFFFFFFFFFFFFFFFF AND MUL OR SWAP1 SSTORE POP DUP2 PUSH20 0xFFFFFFFFFFFFFFFFFFFFFFFFFFFFFFFFFFFFFFFF AND DUP2 PUSH20 0xFFFFFFFFFFFFFFFFFFFFFFFFFFFFFFFFFFFFFFFF AND PUSH32 0x8BE0079C531659141344CD1FD0A4F28419497F9722A3DAAFE3B4186F6B6457E0 PUSH1 0x40 MLOAD PUSH1 0x40 MLOAD DUP1 SWAP2 SUB SWAP1 LOG3 POP POP JUMP JUMPDEST PUSH0 PUSH0 REVERT JUMPDEST PUSH0 PUSH20 0xFFFFFFFFFFFFFFFFFFFFFFFFFFFFFFFFFFFFFFFF DUP3 AND SWAP1 POP SWAP2 SWAP1 POP JUMP JUMPDEST PUSH0 PUSH2 0x5A8 DUP3 PUSH2 0x57F JUMP JUMPDEST SWAP1 POP SWAP2 SWAP1 POP JUMP JUMPDEST PUSH2 0x5B8 DUP2 PUSH2 0x59E JUMP JUMPDEST DUP2 EQ PUSH2 0x5C2 JUMPI PUSH0 PUSH0 REVERT JUMPDEST POP JUMP JUMPDEST PUSH0 DUP2 MLOAD SWAP1 POP PUSH2 0x5D3 DUP2 PUSH2 0x5AF JUMP JUMPDEST SWAP3 SWAP2 POP POP JUMP JUMPDEST PUSH0 PUSH0 PUSH1 0x40 DUP4 DUP6 SUB SLT ISZERO PUSH2 0x5EF JUMPI PUSH2 0x5EE PUSH2 0x57B JUMP JUMPDEST JUMPDEST PUSH0 PUSH2 0x5FC DUP6 DUP3 DUP7 ADD PUSH2 0x5C5 JUMP JUMPDEST SWAP3 POP POP PUSH1 0x20 PUSH2 0x60D DUP6 DUP3 DUP7 ADD PUSH2 0x5C5 JUMP JUMPDEST SWAP2 POP POP SWAP3 POP SWAP3 SWAP1 POP JUMP JUMPDEST PUSH0 DUP2 MLOAD SWAP1 POP SWAP2 SWAP1 POP JUMP JUMPDEST PUSH32 0x4E487B7100000000000000000000000000000000000000000000000000000000 PUSH0 MSTORE PUSH1 0x41 PUSH1 0x4 MSTORE PUSH1 0x24 PUSH0 REVERT JUMPDEST PUSH32 0x4E487B7100000000000000000000000000000000000000000000000000000000 PUSH0 MSTORE PUSH1 0x22 PUSH1 0x4 MSTORE PUSH1 0x24 PUSH0 REVERT JUMPDEST PUSH0 PUSH1 0x2 DUP3 DIV SWAP1 POP PUSH1 0x1 DUP3 AND DUP1 PUSH2 0x692 JUMPI PUSH1 0x7F DUP3 AND SWAP2 POP JUMPDEST PUSH1 0x20 DUP3 LT DUP2 SUB PUSH2 0x6A5 JUMPI PUSH2 0x6A4 PUSH2 0x64E JUMP JUMPDEST JUMPDEST POP SWAP2 SWAP1 POP JUMP JUMPDEST PUSH0 DUP2 SWAP1 POP DUP2 PUSH0 MSTORE PUSH1 0x20 PUSH0 KECCAK256 SWAP1 POP SWAP2 SWAP1 POP JUMP JUMPDEST PUSH0 PUSH1 0x20 PUSH1 0x1F DUP4 ADD DIV SWAP1 POP SWAP2 SWAP1 POP JUMP JUMPDEST PUSH0 DUP3 DUP3 SHL SWAP1 POP SWAP3 SWAP2 POP POP JUMP JUMPDEST PUSH0 PUSH1 0x8 DUP4 MUL PUSH2 0x707 PUSH32 0xFFFFFFFFFFFFFFFFFFFFFFFFFFFFFFFFFFFFFFFFFFFFFFFFFFFFFFFFFFFFFFFF DUP3 PUSH2 0x6CC JUMP JUMPDEST PUSH2 0x711 DUP7 DUP4 PUSH2 0x6CC JUMP JUMPDEST SWAP6 POP DUP1 NOT DUP5 AND SWAP4 POP DUP1 DUP7 AND DUP5 OR SWAP3 POP POP POP SWAP4 SWAP3 POP POP POP JUMP JUMPDEST PUSH0 DUP2 SWAP1 POP SWAP2 SWAP1 POP JUMP JUMPDEST PUSH0 DUP2 SWAP1 POP SWAP2 SWAP1 POP JUMP JUMPDEST PUSH0 PUSH2 0x755 PUSH2 0x750 PUSH2 0x74B DUP5 PUSH2 0x729 JUMP JUMPDEST PUSH2 0x732 JUMP JUMPDEST PUSH2 0x729 JUMP JUMPDEST SWAP1 POP SWAP2 SWAP1 POP JUMP JUMPDEST PUSH0 DUP2 SWAP1 POP SWAP2 SWAP1 POP JUMP JUMPDEST PUSH2 0x76E DUP4 PUSH2 0x73B JUMP JUMPDEST PUSH2 0x782 PUSH2 0x77A DUP3 PUSH2 0x75C JUMP JUMPDEST DUP5 DUP5 SLOAD PUSH2 0x6D8 JUMP JUMPDEST DUP3 SSTORE POP POP POP POP JUMP JUMPDEST PUSH0 PUSH0 SWAP1 POP SWAP1 JUMP JUMPDEST PUSH2 0x799 PUSH2 0x78A JUMP JUMPDEST PUSH2 0x7A4 DUP2 DUP5 DUP5 PUSH2 0x765 JUMP JUMPDEST POP POP POP JUMP JUMPDEST JUMPDEST DUP2 DUP2 LT ISZERO PUSH2 0x7C7 JUMPI PUSH2 0x7BC PUSH0 DUP3 PUSH2 0x791 JUMP JUMPDEST PUSH1 0x1 DUP2 ADD SWAP1 POP PUSH2 0x7AA JUMP JUMPDEST POP POP JUMP JUMPDEST PUSH1 0x1F DUP3 GT ISZERO PUSH2 0x80C JUMPI PUSH2 0x7DD DUP2 PUSH2 0x6AB JUMP JUMPDEST PUSH2 0x7E6 DUP5 PUSH2 0x6BD JUMP JUMPDEST DUP2 ADD PUSH1 0x20 DUP6 LT ISZERO PUSH2 0x7F5 JUMPI DUP2 SWAP1 POP JUMPDEST PUSH2 0x809 PUSH2 0x801 DUP6 PUSH2 0x6BD JUMP JUMPDEST DUP4 ADD DUP3 PUSH2 0x7A9 JUMP JUMPDEST POP POP JUMPDEST POP POP POP JUMP JUMPDEST PUSH0 DUP3 DUP3 SHR SWAP1 POP SWAP3 SWAP2 POP POP JUMP JUMPDEST PUSH0 PUSH2 0x82C PUSH0 NOT DUP5 PUSH1 0x8 MUL PUSH2 0x811 JUMP JUMPDEST NOT DUP1 DUP4 AND SWAP2 POP POP SWAP3 SWAP2 POP POP JUMP JUMPDEST PUSH0 PUSH2 0x844 DUP4 DUP4 PUSH2 0x81D JUMP JUMPDEST SWAP2 POP DUP3 PUSH1 0x2 MUL DUP3 OR SWAP1 POP SWAP3 SWAP2 POP POP JUMP JUMPDEST PUSH2 0x85D DUP3 PUSH2 0x617 JUMP JUMPDEST PUSH8 0xFFFFFFFFFFFFFFFF DUP2 GT ISZERO PUSH2 0x876 JUMPI PUSH2 0x875 PUSH2 0x621 JUMP JUMPDEST JUMPDEST PUSH2 0x880 DUP3 SLOAD PUSH2 0x67B JUMP JUMPDEST PUSH2 0x88B DUP3 DUP3 DUP6 PUSH2 0x7CB JUMP JUMPDEST PUSH0 PUSH1 0x20 SWAP1 POP PUSH1 0x1F DUP4 GT PUSH1 0x1 DUP2 EQ PUSH2 0x8BC JUMPI PUSH0 DUP5 ISZERO PUSH2 0x8AA JUMPI DUP3 DUP8 ADD MLOAD SWAP1 POP JUMPDEST PUSH2 0x8B4 DUP6 DUP3 PUSH2 0x839 JUMP JUMPDEST DUP7 SSTORE POP PUSH2 0x91B JUMP JUMPDEST PUSH1 0x1F NOT DUP5 AND PUSH2 0x8CA DUP7 PUSH2 0x6AB JUMP JUMPDEST PUSH0 JUMPDEST DUP3 DUP2 LT ISZERO PUSH2 0x8F1 JUMPI DUP5 DUP10 ADD MLOAD DUP3 SSTORE PUSH1 0x1 DUP3 ADD SWAP2 POP PUSH1 0x20 DUP6 ADD SWAP5 POP PUSH1 0x20 DUP2 ADD SWAP1 POP PUSH2 0x8CC JUMP JUMPDEST DUP7 DUP4 LT ISZERO PUSH2 0x90E JUMPI DUP5 DUP10 ADD MLOAD PUSH2 0x90A PUSH1 0x1F DUP10 AND DUP3 PUSH2 0x81D JUMP JUMPDEST DUP4 SSTORE POP JUMPDEST PUSH1 0x1 PUSH1 0x2 DUP9 MUL ADD DUP9 SSTORE POP POP POP JUMPDEST POP POP POP POP POP POP JUMP JUMPDEST PUSH2 0x92C DUP2 PUSH2 0x59E JUMP JUMPDEST DUP3 MSTORE POP POP JUMP JUMPDEST PUSH0 PUSH1 0x20 DUP3 ADD SWAP1 POP PUSH2 0x945 PUSH0 DUP4 ADD DUP5 PUSH2 0x923 JUMP JUMPDEST SWAP3 SWAP2 POP POP JUMP JUMPDEST PUSH32 0x4E487B7100000000000000000000000000000000000000000000000000000000 PUSH0 MSTORE PUSH1 0x11 PUSH1 0x4 MSTORE PUSH1 0x24 PUSH0 REVERT JUMPDEST PUSH0 DUP2 PUSH1 0x1 SHR SWAP1 POP SWAP2 SWAP1 POP JUMP JUMPDEST PUSH0 PUSH0 DUP3 SWAP2 POP DUP4 SWAP1 POP JUMPDEST PUSH1 0x1 DUP6 GT ISZERO PUSH2 0x9CD JUMPI DUP1 DUP7 DIV DUP2 GT ISZERO PUSH2 0x9A9 JUMPI PUSH2 0x9A8 PUSH2 0x94B JUMP JUMPDEST JUMPDEST PUSH1 0x1 DUP6 AND ISZERO PUSH2 0x9B8 JUMPI DUP1 DUP3 MUL SWAP2 POP JUMPDEST DUP1 DUP2 MUL SWAP1 POP PUSH2 0x9C6 DUP6 PUSH2 0x978 JUMP JUMPDEST SWAP5 POP PUSH2 0x98D JUMP JUMPDEST SWAP5 POP SWAP5 SWAP3 POP POP POP JUMP JUMPDEST PUSH0 DUP3 PUSH2 0x9E5 JUMPI PUSH1 0x1 SWAP1 POP PUSH2 0xAA0 JUMP JUMPDEST DUP2 PUSH2 0x9F2 JUMPI PUSH0 SWAP1 POP PUSH2 0xAA0 JUMP JUMPDEST DUP2 PUSH1 0x1 DUP2 EQ PUSH2 0xA08 JUMPI PUSH1 0x2 DUP2 EQ PUSH2 0xA12 JUMPI PUSH2 0xA41 JUMP JUMPDEST PUSH1 0x1 SWAP2 POP POP PUSH2 0xAA0 JUMP JUMPDEST PUSH1 0xFF DUP5 GT ISZERO PUSH2 0xA24 JUMPI PUSH2 0xA23 PUSH2 0x94B JUMP JUMPDEST JUMPDEST DUP4 PUSH1 0x2 EXP SWAP2 POP DUP5 DUP3 GT ISZERO PUSH2 0xA3B JUMPI PUSH2 0xA3A PUSH2 0x94B JUMP JUMPDEST JUMPDEST POP PUSH2 0xAA0 JUMP JUMPDEST POP PUSH1 0x20 DUP4 LT PUSH2 0x133 DUP4 LT AND PUSH1 0x4E DUP5 LT PUSH1 0xB DUP5 LT AND OR ISZERO PUSH2 0xA76 JUMPI DUP3 DUP3 EXP SWAP1 POP DUP4 DUP2 GT ISZERO PUSH2 0xA71 JUMPI PUSH2 0xA70 PUSH2 0x94B JUMP JUMPDEST JUMPDEST PUSH2 0xAA0 JUMP JUMPDEST PUSH2 0xA83 DUP5 DUP5 DUP5 PUSH1 0x1 PUSH2 0x984 JUMP JUMPDEST SWAP3 POP SWAP1 POP DUP2 DUP5 DIV DUP2 GT ISZERO PUSH2 0xA9A JUMPI PUSH2 0xA99 PUSH2 0x94B JUMP JUMPDEST JUMPDEST DUP2 DUP2 MUL SWAP1 POP JUMPDEST SWAP4 SWAP3 POP POP POP JUMP JUMPDEST PUSH0 PUSH1 0xFF DUP3 AND SWAP1 POP SWAP2 SWAP1 POP JUMP JUMPDEST PUSH0 PUSH2 0xABD DUP3 PUSH2 0x729 JUMP JUMPDEST SWAP2 POP PUSH2 0xAC8 DUP4 PUSH2 0xAA7 JUMP JUMPDEST SWAP3 POP PUSH2 0xAF5 PUSH32 0xFFFFFFFFFFFFFFFFFFFFFFFFFFFFFFFFFFFFFFFFFFFFFFFFFFFFFFFFFFFFFFFF DUP5 DUP5 PUSH2 0x9D6 JUMP JUMPDEST SWAP1 POP SWAP3 SWAP2 POP POP JUMP JUMPDEST PUSH0 PUSH2 0xB07 DUP3 PUSH2 0x729 JUMP JUMPDEST SWAP2 POP PUSH2 0xB12 DUP4 PUSH2 0x729 JUMP JUMPDEST SWAP3 POP DUP3 DUP3 MUL PUSH2 0xB20 DUP2 PUSH2 0x729 JUMP JUMPDEST SWAP2 POP DUP3 DUP3 DIV DUP5 EQ DUP4 ISZERO OR PUSH2 0xB37 JUMPI PUSH2 0xB36 PUSH2 0x94B JUMP JUMPDEST JUMPDEST POP SWAP3 SWAP2 POP POP JUMP JUMPDEST PUSH0 DUP2 SWAP1 POP SWAP2 SWAP1 POP JUMP JUMPDEST PUSH2 0xB50 DUP2 PUSH2 0xB3E JUMP JUMPDEST DUP3 MSTORE POP POP JUMP JUMPDEST PUSH2 0xB5F DUP2 PUSH2 0x729 JUMP JUMPDEST DUP3 MSTORE POP POP JUMP JUMPDEST PUSH0 PUSH1 0xA0 DUP3 ADD SWAP1 POP PUSH2 0xB78 PUSH0 DUP4 ADD DUP9 PUSH2 0xB47 JUMP JUMPDEST PUSH2 0xB85 PUSH1 0x20 DUP4 ADD DUP8 PUSH2 0xB47 JUMP JUMPDEST PUSH2 0xB92 PUSH1 0x40 DUP4 ADD DUP7 PUSH2 0xB47 JUMP JUMPDEST PUSH2 0xB9F PUSH1 0x60 DUP4 ADD DUP6 PUSH2 0xB56 JUMP JUMPDEST PUSH2 0xBAC PUSH1 0x80 DUP4 ADD DUP5 PUSH2 0x923 JUMP JUMPDEST SWAP7 SWAP6 POP POP POP POP POP POP JUMP JUMPDEST PUSH0 DUP3 DUP3 MSTORE PUSH1 0x20 DUP3 ADD SWAP1 POP SWAP3 SWAP2 POP POP JUMP JUMPDEST DUP3 DUP2 DUP4 MCOPY PUSH0 DUP4 DUP4 ADD MSTORE POP POP POP JUMP JUMPDEST PUSH0 PUSH1 0x1F NOT PUSH1 0x1F DUP4 ADD AND SWAP1 POP SWAP2 SWAP1 POP JUMP JUMPDEST PUSH0 PUSH2 0xBEE DUP3 PUSH2 0x617 JUMP JUMPDEST PUSH2 0xBF8 DUP2 DUP6 PUSH2 0xBB6 JUMP JUMPDEST SWAP4 POP PUSH2 0xC08 DUP2 DUP6 PUSH1 0x20 DUP7 ADD PUSH2 0xBC6 JUMP JUMPDEST PUSH2 0xC11 DUP2 PUSH2 0xBD4 JUMP JUMPDEST DUP5 ADD SWAP2 POP POP SWAP3 SWAP2 POP POP JUMP JUMPDEST PUSH0 PUSH1 0x20 DUP3 ADD SWAP1 POP DUP2 DUP2 SUB PUSH0 DUP4 ADD MSTORE PUSH2 0xC34 DUP2 DUP5 PUSH2 0xBE4 JUMP JUMPDEST SWAP1 POP SWAP3 SWAP2 POP POP JUMP JUMPDEST PUSH0 DUP2 MLOAD SWAP1 POP SWAP2 SWAP1 POP JUMP JUMPDEST PUSH0 DUP2 SWAP1 POP PUSH1 0x20 DUP3 ADD SWAP1 POP SWAP2 SWAP1 POP JUMP JUMPDEST PUSH0 PUSH2 0xC60 DUP3 MLOAD PUSH2 0xB3E JUMP JUMPDEST DUP1 SWAP2 POP POP SWAP2 SWAP1 POP JUMP JUMPDEST PUSH0 PUSH2 0xC73 DUP3 PUSH2 0xC3C JUMP JUMPDEST DUP3 PUSH2 0xC7D DUP5 PUSH2 0xC46 JUMP JUMPDEST SWAP1 POP PUSH2 0xC88 DUP2 PUSH2 0xC55 JUMP JUMPDEST SWAP3 POP PUSH1 0x20 DUP3 LT ISZERO PUSH2 0xCC8 JUMPI PUSH2 0xCC3 PUSH32 0xFFFFFFFFFFFFFFFFFFFFFFFFFFFFFFFFFFFFFFFFFFFFFFFFFFFFFFFFFFFFFFFF DUP4 PUSH1 0x20 SUB PUSH1 0x8 MUL PUSH2 0x6CC JUMP JUMPDEST DUP4 AND SWAP3 POP JUMPDEST POP POP SWAP2 SWAP1 POP JUMP JUMPDEST PUSH1 0x80 MLOAD PUSH1 0xA0 MLOAD PUSH1 0xC0 MLOAD PUSH1 0xE0 MLOAD PUSH2 0x100 MLOAD PUSH2 0x120 MLOAD PUSH2 0x140 MLOAD PUSH2 0x160 MLOAD PUSH2 0x5447 PUSH2 0xD31 PUSH0 CODECOPY PUSH0 DUP2 DUP2 PUSH2 0xDC4 ADD MSTORE PUSH2 0x1A45 ADD MSTORE PUSH0 PUSH2 0x26BB ADD MSTORE PUSH0 PUSH2 0x2680 ADD MSTORE PUSH0 PUSH2 0x2D83 ADD MSTORE PUSH0 PUSH2 0x2D62 ADD MSTORE PUSH0 PUSH2 0x2000 ADD MSTORE PUSH0 PUSH2 0x2056 ADD MSTORE PUSH0 PUSH2 0x207F ADD MSTORE PUSH2 0x5447 PUSH0 RETURN INVALID PUSH1 0x80 PUSH1 0x40 MSTORE CALLVALUE DUP1 ISZERO PUSH2 0xF JUMPI PUSH0 PUSH0 REVERT JUMPDEST POP PUSH1 0x4 CALLDATASIZE LT PUSH2 0x376 JUMPI PUSH0 CALLDATALOAD PUSH1 0xE0 SHR DUP1 PUSH4 0x7FD6F15C GT PUSH2 0x1D1 JUMPI DUP1 PUSH4 0xB88A802F GT PUSH2 0x102 JUMPI DUP1 PUSH4 0xE085C45E GT PUSH2 0xA0 JUMPI DUP1 PUSH4 0xECEFC705 GT PUSH2 0x7A JUMPI DUP1 PUSH4 0xECEFC705 EQ PUSH2 0xA0A JUMPI DUP1 PUSH4 0xF0F44260 EQ PUSH2 0xA28 JUMPI DUP1 PUSH4 0xF1127ED8 EQ PUSH2 0xA44 JUMPI DUP1 PUSH4 0xF2FDE38B EQ PUSH2 0xA74 JUMPI PUSH2 0x376 JUMP JUMPDEST DUP1 PUSH4 0xE085C45E EQ PUSH2 0x9B0 JUMPI DUP1 PUSH4 0xE30C3978 EQ PUSH2 0x9CE JUMPI DUP1 PUSH4 0xECE6C0D3 EQ PUSH2 0x9EC JUMPI PUSH2 0x376 JUMP JUMPDEST DUP1 PUSH4 0xD0FB2483 GT PUSH2 0xDC JUMPI DUP1 PUSH4 0xD0FB2483 EQ PUSH2 0x92A JUMPI DUP1 PUSH4 0xD505ACCF EQ PUSH2 0x946 JUMPI DUP1 PUSH4 0xD5ABEB01 EQ PUSH2 0x962 JUMPI DUP1 PUSH4 0xDD62ED3E EQ PUSH2 0x980 JUMPI PUSH2 0x376 JUMP JUMPDEST DUP1 PUSH4 0xB88A802F EQ PUSH2 0x8E6 JUMPI DUP1 PUSH4 0xC2624E1E EQ PUSH2 0x8F0 JUMPI DUP1 PUSH4 0xC3CDA520 EQ PUSH2 0x90E JUMPI PUSH2 0x376 JUMP JUMPDEST DUP1 PUSH4 0x95D89B41 GT PUSH2 0x16F JUMPI DUP1 PUSH4 0xA2309FF8 GT PUSH2 0x149 JUMPI DUP1 PUSH4 0xA2309FF8 EQ PUSH2 0x85E JUMPI DUP1 PUSH4 0xA694FC3A EQ PUSH2 0x87C JUMPI DUP1 PUSH4 0xA9059CBB EQ PUSH2 0x898 JUMPI DUP1 PUSH4 0xB0BB1050 EQ PUSH2 0x8C8 JUMPI PUSH2 0x376 JUMP JUMPDEST DUP1 PUSH4 0x95D89B41 EQ PUSH2 0x7F2 JUMPI DUP1 PUSH4 0x9AB24EB0 EQ PUSH2 0x810 JUMPI DUP1 PUSH4 0x9C986764 EQ PUSH2 0x840 JUMPI PUSH2 0x376 JUMP JUMPDEST DUP1 PUSH4 0x84B0196E GT PUSH2 0x1AB JUMPI DUP1 PUSH4 0x84B0196E EQ PUSH2 0x762 JUMPI DUP1 PUSH4 0x8DA5CB5B EQ PUSH2 0x786 JUMPI DUP1 PUSH4 0x8E539E8C EQ PUSH2 0x7A4 JUMPI DUP1 PUSH4 0x91DDADF4 EQ PUSH2 0x7D4 JUMPI PUSH2 0x376 JUMP JUMPDEST DUP1 PUSH4 0x7FD6F15C EQ PUSH2 0x71C JUMPI DUP1 PUSH4 0x817B1CD2 EQ PUSH2 0x73A JUMPI DUP1 PUSH4 0x8456CB59 EQ PUSH2 0x758 JUMPI PUSH2 0x376 JUMP JUMPDEST DUP1 PUSH4 0x4FBEE193 GT PUSH2 0x2AB JUMPI DUP1 PUSH4 0x61D027B3 GT PUSH2 0x249 JUMPI DUP1 PUSH4 0x715018A6 GT PUSH2 0x223 JUMPI DUP1 PUSH4 0x715018A6 EQ PUSH2 0x6BC JUMPI DUP1 PUSH4 0x79BA5097 EQ PUSH2 0x6C6 JUMPI DUP1 PUSH4 0x79CC6790 EQ PUSH2 0x6D0 JUMPI DUP1 PUSH4 0x7ECEBE00 EQ PUSH2 0x6EC JUMPI PUSH2 0x376 JUMP JUMPDEST DUP1 PUSH4 0x61D027B3 EQ PUSH2 0x63E JUMPI DUP1 PUSH4 0x6FCFFF45 EQ PUSH2 0x65C JUMPI DUP1 PUSH4 0x70A08231 EQ PUSH2 0x68C JUMPI PUSH2 0x376 JUMP JUMPDEST DUP1 PUSH4 0x59C13403 GT PUSH2 0x285 JUMPI DUP1 PUSH4 0x59C13403 EQ PUSH2 0x5B6 JUMPI DUP1 PUSH4 0x5C19A95C EQ PUSH2 0x5D4 JUMPI DUP1 PUSH4 0x5C975ABB EQ PUSH2 0x5F0 JUMPI DUP1 PUSH4 0x60217267 EQ PUSH2 0x60E JUMPI PUSH2 0x376 JUMP JUMPDEST DUP1 PUSH4 0x4FBEE193 EQ PUSH2 0x53A JUMPI DUP1 PUSH4 0x587CDE1E EQ PUSH2 0x56A JUMPI DUP1 PUSH4 0x590FFDCE EQ PUSH2 0x59A JUMPI PUSH2 0x376 JUMP JUMPDEST DUP1 PUSH4 0x313CE567 GT PUSH2 0x318 JUMPI DUP1 PUSH4 0x3F4BA83A GT PUSH2 0x2F2 JUMPI DUP1 PUSH4 0x3F4BA83A EQ PUSH2 0x4DA JUMPI DUP1 PUSH4 0x40C10F19 EQ PUSH2 0x4E4 JUMPI DUP1 PUSH4 0x42966C68 EQ PUSH2 0x500 JUMPI DUP1 PUSH4 0x4BF5D7E9 EQ PUSH2 0x51C JUMPI PUSH2 0x376 JUMP JUMPDEST DUP1 PUSH4 0x313CE567 EQ PUSH2 0x46E JUMPI DUP1 PUSH4 0x3644E515 EQ PUSH2 0x48C JUMPI DUP1 PUSH4 0x3A46B1A8 EQ PUSH2 0x4AA JUMPI PUSH2 0x376 JUMP JUMPDEST DUP1 PUSH4 0x18160DDD GT PUSH2 0x354 JUMPI DUP1 PUSH4 0x18160DDD EQ PUSH2 0x3E6 JUMPI DUP1 PUSH4 0x23B872DD EQ PUSH2 0x404 JUMPI DUP1 PUSH4 0x288264E3 EQ PUSH2 0x434 JUMPI DUP1 PUSH4 0x2E17DE78 EQ PUSH2 0x452 JUMPI PUSH2 0x376 JUMP JUMPDEST DUP1 PUSH4 0x6FDDE03 EQ PUSH2 0x37A JUMPI DUP1 PUSH4 0x95EA7B3 EQ PUSH2 0x398 JUMPI DUP1 PUSH4 0xC56AE3B EQ PUSH2 0x3C8 JUMPI JUMPDEST PUSH0 PUSH0 REVERT JUMPDEST PUSH2 0x382 PUSH2 0xA90 JUMP JUMPDEST PUSH1 0x40 MLOAD PUSH2 0x38F SWAP2 SWAP1 PUSH2 0x4298 JUMP JUMPDEST PUSH1 0x40 MLOAD DUP1 SWAP2 SUB SWAP1 RETURN JUMPDEST PUSH2 0x3B2 PUSH1 0x4 DUP1 CALLDATASIZE SUB DUP2 ADD SWAP1 PUSH2 0x3AD SWAP2 SWAP1 PUSH2 0x4349 JUMP JUMPDEST PUSH2 0xB20 JUMP JUMPDEST PUSH1 0x40 MLOAD PUSH2 0x3BF SWAP2 SWAP1 PUSH2 0x43A1 JUMP JUMPDEST PUSH1 0x40 MLOAD DUP1 SWAP2 SUB SWAP1 RETURN JUMPDEST PUSH2 0x3D0 PUSH2 0xB42 JUMP JUMPDEST PUSH1 0x40 MLOAD PUSH2 0x3DD SWAP2 SWAP1 PUSH2 0x43C9 JUMP JUMPDEST PUSH1 0x40 MLOAD DUP1 SWAP2 SUB SWAP1 RETURN JUMPDEST PUSH2 0x3EE PUSH2 0xB4B JUMP JUMPDEST PUSH1 0x40 MLOAD PUSH2 0x3FB SWAP2 SWAP1 PUSH2 0x43C9 JUMP JUMPDEST PUSH1 0x40 MLOAD DUP1 SWAP2 SUB SWAP1 RETURN JUMPDEST PUSH2 0x41E PUSH1 0x4 DUP1 CALLDATASIZE SUB DUP2 ADD SWAP1 PUSH2 0x419 SWAP2 SWAP1 PUSH2 0x43E2 JUMP JUMPDEST PUSH2 0xB54 JUMP JUMPDEST PUSH1 0x40 MLOAD PUSH2 0x42B SWAP2 SWAP1 PUSH2 0x43A1 JUMP JUMPDEST PUSH1 0x40 MLOAD DUP1 SWAP2 SUB SWAP1 RETURN JUMPDEST PUSH2 0x43C PUSH2 0xB82 JUMP JUMPDEST PUSH1 0x40 MLOAD PUSH2 0x449 SWAP2 SWAP1 PUSH2 0x43C9 JUMP JUMPDEST PUSH1 0x40 MLOAD DUP1 SWAP2 SUB SWAP1 RETURN JUMPDEST PUSH2 0x46C PUSH1 0x4 DUP1 CALLDATASIZE SUB DUP2 ADD SWAP1 PUSH2 0x467 SWAP2 SWAP1 PUSH2 0x4432 JUMP JUMPDEST PUSH2 0xB87 JUMP JUMPDEST STOP JUMPDEST PUSH2 0x476 PUSH2 0xD0E JUMP JUMPDEST PUSH1 0x40 MLOAD PUSH2 0x483 SWAP2 SWAP1 PUSH2 0x4478 JUMP JUMPDEST PUSH1 0x40 MLOAD DUP1 SWAP2 SUB SWAP1 RETURN JUMPDEST PUSH2 0x494 PUSH2 0xD16 JUMP JUMPDEST PUSH1 0x40 MLOAD PUSH2 0x4A1 SWAP2 SWAP1 PUSH2 0x44A9 JUMP JUMPDEST PUSH1 0x40 MLOAD DUP1 SWAP2 SUB SWAP1 RETURN JUMPDEST PUSH2 0x4C4 PUSH1 0x4 DUP1 CALLDATASIZE SUB DUP2 ADD SWAP1 PUSH2 0x4BF SWAP2 SWAP1 PUSH2 0x4349 JUMP JUMPDEST PUSH2 0xD24 JUMP JUMPDEST PUSH1 0x40 MLOAD PUSH2 0x4D1 SWAP2 SWAP1 PUSH2 0x43C9 JUMP JUMPDEST PUSH1 0x40 MLOAD DUP1 SWAP2 SUB SWAP1 RETURN JUMPDEST PUSH2 0x4E2 PUSH2 0xDA0 JUMP JUMPDEST STOP JUMPDEST PUSH2 0x4FE PUSH1 0x4 DUP1 CALLDATASIZE SUB DUP2 ADD SWAP1 PUSH2 0x4F9 SWAP2 SWAP1 PUSH2 0x4349 JUMP JUMPDEST PUSH2 0xDB2 JUMP JUMPDEST STOP JUMPDEST PUSH2 0x51A PUSH1 0x4 DUP1 CALLDATASIZE SUB DUP2 ADD SWAP1 PUSH2 0x515 SWAP2 SWAP1 PUSH2 0x4432 JUMP JUMPDEST PUSH2 0xEAE JUMP JUMPDEST STOP JUMPDEST PUSH2 0x524 PUSH2 0xECA JUMP JUMPDEST PUSH1 0x40 MLOAD PUSH2 0x531 SWAP2 SWAP1 PUSH2 0x4298 JUMP JUMPDEST PUSH1 0x40 MLOAD DUP1 SWAP2 SUB SWAP1 RETURN JUMPDEST PUSH2 0x554 PUSH1 0x4 DUP1 CALLDATASIZE SUB DUP2 ADD SWAP1 PUSH2 0x54F SWAP2 SWAP1 PUSH2 0x44C2 JUMP JUMPDEST PUSH2 0xF5E JUMP JUMPDEST PUSH1 0x40 MLOAD PUSH2 0x561 SWAP2 SWAP1 PUSH2 0x43A1 JUMP JUMPDEST PUSH1 0x40 MLOAD DUP1 SWAP2 SUB SWAP1 RETURN JUMPDEST PUSH2 0x584 PUSH1 0x4 DUP1 CALLDATASIZE SUB DUP2 ADD SWAP1 PUSH2 0x57F SWAP2 SWAP1 PUSH2 0x44C2 JUMP JUMPDEST PUSH2 0xFB0 JUMP JUMPDEST PUSH1 0x40 MLOAD PUSH2 0x591 SWAP2 SWAP1 PUSH2 0x44FC JUMP JUMPDEST PUSH1 0x40 MLOAD DUP1 SWAP2 SUB SWAP1 RETURN JUMPDEST PUSH2 0x5B4 PUSH1 0x4 DUP1 CALLDATASIZE SUB DUP2 ADD SWAP1 PUSH2 0x5AF SWAP2 SWAP1 PUSH2 0x453F JUMP JUMPDEST PUSH2 0x1015 JUMP JUMPDEST STOP JUMPDEST PUSH2 0x5BE PUSH2 0x1079 JUMP JUMPDEST PUSH1 0x40 MLOAD PUSH2 0x5CB SWAP2 SWAP1 PUSH2 0x43C9 JUMP JUMPDEST PUSH1 0x40 MLOAD DUP1 SWAP2 SUB SWAP1 RETURN JUMPDEST PUSH2 0x5EE PUSH1 0x4 DUP1 CALLDATASIZE SUB DUP2 ADD SWAP1 PUSH2 0x5E9 SWAP2 SWAP1 PUSH2 0x44C2 JUMP JUMPDEST PUSH2 0x107F JUMP JUMPDEST STOP JUMPDEST PUSH2 0x5F8 PUSH2 0x1098 JUMP JUMPDEST PUSH1 0x40 MLOAD PUSH2 0x605 SWAP2 SWAP1 PUSH2 0x43A1 JUMP JUMPDEST PUSH1 0x40 MLOAD DUP1 SWAP2 SUB SWAP1 RETURN JUMPDEST PUSH2 0x628 PUSH1 0x4 DUP1 CALLDATASIZE SUB DUP2 ADD SWAP1 PUSH2 0x623 SWAP2 SWAP1 PUSH2 0x44C2 JUMP JUMPDEST PUSH2 0x10AD JUMP JUMPDEST PUSH1 0x40 MLOAD PUSH2 0x635 SWAP2 SWAP1 PUSH2 0x43C9 JUMP JUMPDEST PUSH1 0x40 MLOAD DUP1 SWAP2 SUB SWAP1 RETURN JUMPDEST PUSH2 0x646 PUSH2 0x10F5 JUMP JUMPDEST PUSH1 0x40 MLOAD PUSH2 0x653 SWAP2 SWAP1 PUSH2 0x44FC JUMP JUMPDEST PUSH1 0x40 MLOAD DUP1 SWAP2 SUB SWAP1 RETURN JUMPDEST PUSH2 0x676 PUSH1 0x4 DUP1 CALLDATASIZE SUB DUP2 ADD SWAP1 PUSH2 0x671 SWAP2 SWAP1 PUSH2 0x44C2 JUMP JUMPDEST PUSH2 0x111D JUMP JUMPDEST PUSH1 0x40 MLOAD PUSH2 0x683 SWAP2 SWAP1 PUSH2 0x459B JUMP JUMPDEST PUSH1 0x40 MLOAD DUP1 SWAP2 SUB SWAP1 RETURN JUMPDEST PUSH2 0x6A6 PUSH1 0x4 DUP1 CALLDATASIZE SUB DUP2 ADD SWAP1 PUSH2 0x6A1 SWAP2 SWAP1 PUSH2 0x44C2 JUMP JUMPDEST PUSH2 0x112E JUMP JUMPDEST PUSH1 0x40 MLOAD PUSH2 0x6B3 SWAP2 SWAP1 PUSH2 0x43C9 JUMP JUMPDEST PUSH1 0x40 MLOAD DUP1 SWAP2 SUB SWAP1 RETURN JUMPDEST PUSH2 0x6C4 PUSH2 0x1173 JUMP JUMPDEST STOP JUMPDEST PUSH2 0x6CE PUSH2 0x1186 JUMP JUMPDEST STOP JUMPDEST PUSH2 0x6EA PUSH1 0x4 DUP1 CALLDATASIZE SUB DUP2 ADD SWAP1 PUSH2 0x6E5 SWAP2 SWAP1 PUSH2 0x4349 JUMP JUMPDEST PUSH2 0x1214 JUMP JUMPDEST STOP JUMPDEST PUSH2 0x706 PUSH1 0x4 DUP1 CALLDATASIZE SUB DUP2 ADD SWAP1 PUSH2 0x701 SWAP2 SWAP1 PUSH2 0x44C2 JUMP JUMPDEST PUSH2 0x1234 JUMP JUMPDEST PUSH1 0x40 MLOAD PUSH2 0x713 SWAP2 SWAP1 PUSH2 0x43C9 JUMP JUMPDEST PUSH1 0x40 MLOAD DUP1 SWAP2 SUB SWAP1 RETURN JUMPDEST PUSH2 0x724 PUSH2 0x1245 JUMP JUMPDEST PUSH1 0x40 MLOAD PUSH2 0x731 SWAP2 SWAP1 PUSH2 0x43C9 JUMP JUMPDEST PUSH1 0x40 MLOAD DUP1 SWAP2 SUB SWAP1 RETURN JUMPDEST PUSH2 0x742 PUSH2 0x124B JUMP JUMPDEST PUSH1 0x40 MLOAD PUSH2 0x74F SWAP2 SWAP1 PUSH2 0x43C9 JUMP JUMPDEST PUSH1 0x40 MLOAD DUP1 SWAP2 SUB SWAP1 RETURN JUMPDEST PUSH2 0x760 PUSH2 0x1254 JUMP JUMPDEST STOP JUMPDEST PUSH2 0x76A PUSH2 0x1266 JUMP JUMPDEST PUSH1 0x40 MLOAD PUSH2 0x77D SWAP8 SWAP7 SWAP6 SWAP5 SWAP4 SWAP3 SWAP2 SWAP1 PUSH2 0x46A5 JUMP JUMPDEST PUSH1 0x40 MLOAD DUP1 SWAP2 SUB SWAP1 RETURN JUMPDEST PUSH2 0x78E PUSH2 0x130B JUMP JUMPDEST PUSH1 0x40 MLOAD PUSH2 0x79B SWAP2 SWAP1 PUSH2 0x44FC JUMP JUMPDEST PUSH1 0x40 MLOAD DUP1 SWAP2 SUB SWAP1 RETURN JUMPDEST PUSH2 0x7BE PUSH1 0x4 DUP1 CALLDATASIZE SUB DUP2 ADD SWAP1 PUSH2 0x7B9 SWAP2 SWAP1 PUSH2 0x4432 JUMP JUMPDEST PUSH2 0x1333 JUMP JUMPDEST PUSH1 0x40 MLOAD PUSH2 0x7CB SWAP2 SWAP1 PUSH2 0x43C9 JUMP JUMPDEST PUSH1 0x40 MLOAD DUP1 SWAP2 SUB SWAP1 RETURN JUMPDEST PUSH2 0x7DC PUSH2 0x1373 JUMP JUMPDEST PUSH1 0x40 MLOAD PUSH2 0x7E9 SWAP2 SWAP1 PUSH2 0x4747 JUMP JUMPDEST PUSH1 0x40 MLOAD DUP1 SWAP2 SUB SWAP1 RETURN JUMPDEST PUSH2 0x7FA PUSH2 0x1381 JUMP JUMPDEST PUSH1 0x40 MLOAD PUSH2 0x807 SWAP2 SWAP1 PUSH2 0x4298 JUMP JUMPDEST PUSH1 0x40 MLOAD DUP1 SWAP2 SUB SWAP1 RETURN JUMPDEST PUSH2 0x82A PUSH1 0x4 DUP1 CALLDATASIZE SUB DUP2 ADD SWAP1 PUSH2 0x825 SWAP2 SWAP1 PUSH2 0x44C2 JUMP JUMPDEST PUSH2 0x1411 JUMP JUMPDEST PUSH1 0x40 MLOAD PUSH2 0x837 SWAP2 SWAP1 PUSH2 0x43C9 JUMP JUMPDEST PUSH1 0x40 MLOAD DUP1 SWAP2 SUB SWAP1 RETURN JUMPDEST PUSH2 0x848 PUSH2 0x147A JUMP JUMPDEST PUSH1 0x40 MLOAD PUSH2 0x855 SWAP2 SWAP1 PUSH2 0x43C9 JUMP JUMPDEST PUSH1 0x40 MLOAD DUP1 SWAP2 SUB SWAP1 RETURN JUMPDEST PUSH2 0x866 PUSH2 0x147F JUMP JUMPDEST PUSH1 0x40 MLOAD PUSH2 0x873 SWAP2 SWAP1 PUSH2 0x43C9 JUMP JUMPDEST PUSH1 0x40 MLOAD DUP1 SWAP2 SUB SWAP1 RETURN JUMPDEST PUSH2 0x896 PUSH1 0x4 DUP1 CALLDATASIZE SUB DUP2 ADD SWAP1 PUSH2 0x891 SWAP2 SWAP1 PUSH2 0x4432 JUMP JUMPDEST PUSH2 0x1488 JUMP JUMPDEST STOP JUMPDEST PUSH2 0x8B2 PUSH1 0x4 DUP1 CALLDATASIZE SUB DUP2 ADD SWAP1 PUSH2 0x8AD SWAP2 SWAP1 PUSH2 0x4349 JUMP JUMPDEST PUSH2 0x15DD JUMP JUMPDEST PUSH1 0x40 MLOAD PUSH2 0x8BF SWAP2 SWAP1 PUSH2 0x43A1 JUMP JUMPDEST PUSH1 0x40 MLOAD DUP1 SWAP2 SUB SWAP1 RETURN JUMPDEST PUSH2 0x8D0 PUSH2 0x15FF JUMP JUMPDEST PUSH1 0x40 MLOAD PUSH2 0x8DD SWAP2 SWAP1 PUSH2 0x43C9 JUMP JUMPDEST PUSH1 0x40 MLOAD DUP1 SWAP2 SUB SWAP1 RETURN JUMPDEST PUSH2 0x8EE PUSH2 0x1604 JUMP JUMPDEST STOP JUMPDEST PUSH2 0x8F8 PUSH2 0x17D5 JUMP JUMPDEST PUSH1 0x40 MLOAD PUSH2 0x905 SWAP2 SWAP1 PUSH2 0x43C9 JUMP JUMPDEST PUSH1 0x40 MLOAD DUP1 SWAP2 SUB SWAP1 RETURN JUMPDEST PUSH2 0x928 PUSH1 0x4 DUP1 CALLDATASIZE SUB DUP2 ADD SWAP1 PUSH2 0x923 SWAP2 SWAP1 PUSH2 0x47B4 JUMP JUMPDEST PUSH2 0x17DB JUMP JUMPDEST STOP JUMPDEST PUSH2 0x944 PUSH1 0x4 DUP1 CALLDATASIZE SUB DUP2 ADD SWAP1 PUSH2 0x93F SWAP2 SWAP1 PUSH2 0x483D JUMP JUMPDEST PUSH2 0x18A0 JUMP JUMPDEST STOP JUMPDEST PUSH2 0x960 PUSH1 0x4 DUP1 CALLDATASIZE SUB DUP2 ADD SWAP1 PUSH2 0x95B SWAP2 SWAP1 PUSH2 0x487B JUMP JUMPDEST PUSH2 0x18FD JUMP JUMPDEST STOP JUMPDEST PUSH2 0x96A PUSH2 0x1A42 JUMP JUMPDEST PUSH1 0x40 MLOAD PUSH2 0x977 SWAP2 SWAP1 PUSH2 0x43C9 JUMP JUMPDEST PUSH1 0x40 MLOAD DUP1 SWAP2 SUB SWAP1 RETURN JUMPDEST PUSH2 0x99A PUSH1 0x4 DUP1 CALLDATASIZE SUB DUP2 ADD SWAP1 PUSH2 0x995 SWAP2 SWAP1 PUSH2 0x4918 JUMP JUMPDEST PUSH2 0x1A69 JUMP JUMPDEST PUSH1 0x40 MLOAD PUSH2 0x9A7 SWAP2 SWAP1 PUSH2 0x43C9 JUMP JUMPDEST PUSH1 0x40 MLOAD DUP1 SWAP2 SUB SWAP1 RETURN JUMPDEST PUSH2 0x9B8 PUSH2 0x1AEB JUMP JUMPDEST PUSH1 0x40 MLOAD PUSH2 0x9C5 SWAP2 SWAP1 PUSH2 0x43C9 JUMP JUMPDEST PUSH1 0x40 MLOAD DUP1 SWAP2 SUB SWAP1 RETURN JUMPDEST PUSH2 0x9D6 PUSH2 0x1AF0 JUMP JUMPDEST PUSH1 0x40 MLOAD PUSH2 0x9E3 SWAP2 SWAP1 PUSH2 0x44FC JUMP JUMPDEST PUSH1 0x40 MLOAD DUP1 SWAP2 SUB SWAP1 RETURN JUMPDEST PUSH2 0x9F4 PUSH2 0x1B18 JUMP JUMPDEST PUSH1 0x40 MLOAD PUSH2 0xA01 SWAP2 SWAP1 PUSH2 0x43C9 JUMP JUMPDEST PUSH1 0x40 MLOAD DUP1 SWAP2 SUB SWAP1 RETURN JUMPDEST PUSH2 0xA12 PUSH2 0x1B1D JUMP JUMPDEST PUSH1 0x40 MLOAD PUSH2 0xA1F SWAP2 SWAP1 PUSH2 0x43C9 JUMP JUMPDEST PUSH1 0x40 MLOAD DUP1 SWAP2 SUB SWAP1 RETURN JUMPDEST PUSH2 0xA42 PUSH1 0x4 DUP1 CALLDATASIZE SUB DUP2 ADD SWAP1 PUSH2 0xA3D SWAP2 SWAP1 PUSH2 0x44C2 JUMP JUMPDEST PUSH2 0x1B23 JUMP JUMPDEST STOP JUMPDEST PUSH2 0xA5E PUSH1 0x4 DUP1 CALLDATASIZE SUB DUP2 ADD SWAP1 PUSH2 0xA59 SWAP2 SWAP1 PUSH2 0x4980 JUMP JUMPDEST PUSH2 0x1C2A JUMP JUMPDEST PUSH1 0x40 MLOAD PUSH2 0xA6B SWAP2 SWAP1 PUSH2 0x4A2E JUMP JUMPDEST PUSH1 0x40 MLOAD DUP1 SWAP2 SUB SWAP1 RETURN JUMPDEST PUSH2 0xA8E PUSH1 0x4 DUP1 CALLDATASIZE SUB DUP2 ADD SWAP1 PUSH2 0xA89 SWAP2 SWAP1 PUSH2 0x44C2 JUMP JUMPDEST PUSH2 0x1C44 JUMP JUMPDEST STOP JUMPDEST PUSH1 0x60 PUSH1 0x3 DUP1 SLOAD PUSH2 0xA9F SWAP1 PUSH2 0x4A74 JUMP JUMPDEST DUP1 PUSH1 0x1F ADD PUSH1 0x20 DUP1 SWAP2 DIV MUL PUSH1 0x20 ADD PUSH1 0x40 MLOAD SWAP1 DUP2 ADD PUSH1 0x40 MSTORE DUP1 SWAP3 SWAP2 SWAP1 DUP2 DUP2 MSTORE PUSH1 0x20 ADD DUP3 DUP1 SLOAD PUSH2 0xACB SWAP1 PUSH2 0x4A74 JUMP JUMPDEST DUP1 ISZERO PUSH2 0xB16 JUMPI DUP1 PUSH1 0x1F LT PUSH2 0xAED JUMPI PUSH2 0x100 DUP1 DUP4 SLOAD DIV MUL DUP4 MSTORE SWAP2 PUSH1 0x20 ADD SWAP2 PUSH2 0xB16 JUMP JUMPDEST DUP3 ADD SWAP2 SWAP1 PUSH0 MSTORE PUSH1 0x20 PUSH0 KECCAK256 SWAP1 JUMPDEST DUP2 SLOAD DUP2 MSTORE SWAP1 PUSH1 0x1 ADD SWAP1 PUSH1 0x20 ADD DUP1 DUP4 GT PUSH2 0xAF9 JUMPI DUP3 SWAP1 SUB PUSH1 0x1F AND DUP3 ADD SWAP2 JUMPDEST POP POP POP POP POP SWAP1 POP SWAP1 JUMP JUMPDEST PUSH0 PUSH0 PUSH2 0xB2A PUSH2 0x1CF0 JUMP JUMPDEST SWAP1 POP PUSH2 0xB37 DUP2 DUP6 DUP6 PUSH2 0x1CF7 JUMP JUMPDEST PUSH1 0x1 SWAP2 POP POP SWAP3 SWAP2 POP POP JUMP JUMPDEST PUSH0 PUSH1 0x17 SLOAD SWAP1 POP SWAP1 JUMP JUMPDEST PUSH0 PUSH1 0x2 SLOAD SWAP1 POP SWAP1 JUMP JUMPDEST PUSH0 PUSH0 PUSH2 0xB5E PUSH2 0x1CF0 JUMP JUMPDEST SWAP1 POP PUSH2 0xB6B DUP6 DUP3 DUP6 PUSH2 0x1D09 JUMP JUMPDEST PUSH2 0xB76 DUP6 DUP6 DUP6 PUSH2 0x1D9C JUMP JUMPDEST PUSH1 0x1 SWAP2 POP POP SWAP4 SWAP3 POP POP POP JUMP JUMPDEST PUSH1 0x32 DUP2 JUMP JUMPDEST PUSH2 0xB8F PUSH2 0x1E8C JUMP JUMPDEST PUSH2 0xB97 PUSH2 0x1ED2 JUMP JUMPDEST PUSH0 PUSH1 0x15 PUSH0 CALLER PUSH20 0xFFFFFFFFFFFFFFFFFFFFFFFFFFFFFFFFFFFFFFFF AND PUSH20 0xFFFFFFFFFFFFFFFFFFFFFFFFFFFFFFFFFFFFFFFF AND DUP2 MSTORE PUSH1 0x20 ADD SWAP1 DUP2 MSTORE PUSH1 0x20 ADD PUSH0 KECCAK256 SWAP1 POP PUSH0 DUP3 GT DUP1 ISZERO PUSH2 0xBE9 JUMPI POP DUP2 DUP2 PUSH0 ADD SLOAD LT ISZERO JUMPDEST PUSH2 0xC28 JUMPI PUSH1 0x40 MLOAD PUSH32 0x8C379A000000000000000000000000000000000000000000000000000000000 DUP2 MSTORE PUSH1 0x4 ADD PUSH2 0xC1F SWAP1 PUSH2 0x4AEE JUMP JUMPDEST PUSH1 0x40 MLOAD DUP1 SWAP2 SUB SWAP1 REVERT JUMPDEST DUP1 PUSH1 0x3 ADD SLOAD NUMBER LT ISZERO PUSH2 0xC6F JUMPI PUSH1 0x40 MLOAD PUSH32 0x8C379A000000000000000000000000000000000000000000000000000000000 DUP2 MSTORE PUSH1 0x4 ADD PUSH2 0xC66 SWAP1 PUSH2 0x4B56 JUMP JUMPDEST PUSH1 0x40 MLOAD DUP1 SWAP2 SUB SWAP1 REVERT JUMPDEST PUSH2 0xC78 CALLER PUSH2 0x1F13 JUMP JUMPDEST DUP2 DUP2 PUSH0 ADD PUSH0 DUP3 DUP3 SLOAD PUSH2 0xC8A SWAP2 SWAP1 PUSH2 0x4BA1 JUMP JUMPDEST SWAP3 POP POP DUP2 SWAP1 SSTORE POP DUP2 PUSH1 0x16 PUSH0 DUP3 DUP3 SLOAD PUSH2 0xCA2 SWAP2 SWAP1 PUSH2 0x4BA1 JUMP JUMPDEST SWAP3 POP POP DUP2 SWAP1 SSTORE POP PUSH2 0xCB4 ADDRESS CALLER DUP5 PUSH2 0x1D9C JUMP JUMPDEST CALLER PUSH20 0xFFFFFFFFFFFFFFFFFFFFFFFFFFFFFFFFFFFFFFFF AND PUSH32 0xF5BB82176FEB1B5E747E28471AA92156A04D9F3AB9F45F28E2D704232B93F75 DUP4 PUSH1 0x40 MLOAD PUSH2 0xCFA SWAP2 SWAP1 PUSH2 0x43C9 JUMP JUMPDEST PUSH1 0x40 MLOAD DUP1 SWAP2 SUB SWAP1 LOG2 POP PUSH2 0xD0B PUSH2 0x1FF3 JUMP JUMPDEST POP JUMP JUMPDEST PUSH0 PUSH1 0x12 SWAP1 POP SWAP1 JUMP JUMPDEST PUSH0 PUSH2 0xD1F PUSH2 0x1FFD JUMP JUMPDEST SWAP1 POP SWAP1 JUMP JUMPDEST PUSH0 PUSH2 0xD7C PUSH2 0xD31 DUP4 PUSH2 0x20B3 JUMP JUMPDEST PUSH1 0xA PUSH0 DUP7 PUSH20 0xFFFFFFFFFFFFFFFFFFFFFFFFFFFFFFFFFFFFFFFF AND PUSH20 0xFFFFFFFFFFFFFFFFFFFFFFFFFFFFFFFFFFFFFFFF AND DUP2 MSTORE PUSH1 0x20 ADD SWAP1 DUP2 MSTORE PUSH1 0x20 ADD PUSH0 KECCAK256 PUSH2 0x211E SWAP1 SWAP2 SWAP1 PUSH4 0xFFFFFFFF AND JUMP JUMPDEST PUSH26 0xFFFFFFFFFFFFFFFFFFFFFFFFFFFFFFFFFFFFFFFFFFFFFFFFFFFF AND SWAP1 POP SWAP3 SWAP2 POP POP JUMP JUMPDEST PUSH2 0xDA8 PUSH2 0x220E JUMP JUMPDEST PUSH2 0xDB0 PUSH2 0x2295 JUMP JUMPDEST JUMP JUMPDEST PUSH2 0xDBA PUSH2 0x1E8C JUMP JUMPDEST PUSH2 0xDC2 PUSH2 0x220E JUMP JUMPDEST PUSH32 0x0 DUP2 PUSH1 0xF SLOAD PUSH2 0xDF1 SWAP2 SWAP1 PUSH2 0x4BD4 JUMP JUMPDEST GT ISZERO PUSH2 0xE32 JUMPI PUSH1 0x40 MLOAD PUSH32 0x8C379A000000000000000000000000000000000000000000000000000000000 DUP2 MSTORE PUSH1 0x4 ADD PUSH2 0xE29 SWAP1 PUSH2 0x4C51 JUMP JUMPDEST PUSH1 0x40 MLOAD DUP1 SWAP2 SUB SWAP1 REVERT JUMPDEST PUSH2 0xE3C DUP3 DUP3 PUSH2 0x22F6 JUMP JUMPDEST DUP1 PUSH1 0xF PUSH0 DUP3 DUP3 SLOAD PUSH2 0xE4D SWAP2 SWAP1 PUSH2 0x4BD4 JUMP JUMPDEST SWAP3 POP POP DUP2 SWAP1 SSTORE POP DUP2 PUSH20 0xFFFFFFFFFFFFFFFFFFFFFFFFFFFFFFFFFFFFFFFF AND PUSH32 0xF6798A560793A54C3BCFE86A93CDE1E73087D944C0EA20544137D4121396885 DUP3 PUSH1 0x40 MLOAD PUSH2 0xE9A SWAP2 SWAP1 PUSH2 0x43C9 JUMP JUMPDEST PUSH1 0x40 MLOAD DUP1 SWAP2 SUB SWAP1 LOG2 PUSH2 0xEAA PUSH2 0x1FF3 JUMP JUMPDEST POP POP JUMP JUMPDEST PUSH2 0xEB6 PUSH2 0x1E8C JUMP JUMPDEST PUSH2 0xEBF DUP2 PUSH2 0x2375 JUMP JUMPDEST PUSH2 0xEC7 PUSH2 0x1FF3 JUMP JUMPDEST POP JUMP JUMPDEST PUSH1 0x60 PUSH2 0xED4 PUSH2 0x2389 JUMP JUMPDEST PUSH6 0xFFFFFFFFFFFF AND PUSH2 0xEE4 PUSH2 0x1373 JUMP JUMPDEST PUSH6 0xFFFFFFFFFFFF AND EQ PUSH2 0xF23 JUMPI PUSH1 0x40 MLOAD PUSH32 0x6FF0714000000000000000000000000000000000000000000000000000000000 DUP2 MSTORE PUSH1 0x4 ADD PUSH1 0x40 MLOAD DUP1 SWAP2 SUB SWAP1 REVERT JUMPDEST PUSH1 0x40 MLOAD DUP1 PUSH1 0x40 ADD PUSH1 0x40 MSTORE DUP1 PUSH1 0x1D DUP2 MSTORE PUSH1 0x20 ADD PUSH32 0x6D6F64653D626C6F636B6E756D6265722666726F6D3D64656661756C74000000 DUP2 MSTORE POP SWAP1 POP SWAP1 JUMP JUMPDEST PUSH0 PUSH1 0x11 PUSH0 DUP4 PUSH20 0xFFFFFFFFFFFFFFFFFFFFFFFFFFFFFFFFFFFFFFFF AND PUSH20 0xFFFFFFFFFFFFFFFFFFFFFFFFFFFFFFFFFFFFFFFF AND DUP2 MSTORE PUSH1 0x20 ADD SWAP1 DUP2 MSTORE PUSH1 0x20 ADD PUSH0 KECCAK256 PUSH0 SWAP1 SLOAD SWAP1 PUSH2 0x100 EXP SWAP1 DIV PUSH1 0xFF AND SWAP1 POP SWAP2 SWAP1 POP JUMP JUMPDEST PUSH0 PUSH1 0x9 PUSH0 DUP4 PUSH20 0xFFFFFFFFFFFFFFFFFFFFFFFFFFFFFFFFFFFFFFFF AND PUSH20 0xFFFFFFFFFFFFFFFFFFFFFFFFFFFFFFFFFFFFFFFF AND DUP2 MSTORE PUSH1 0x20 ADD SWAP1 DUP2 MSTORE PUSH1 0x20 ADD PUSH0 KECCAK256 PUSH0 SWAP1 SLOAD SWAP1 PUSH2 0x100 EXP SWAP1 DIV PUSH20 0xFFFFFFFFFFFFFFFFFFFFFFFFFFFFFFFFFFFFFFFF AND SWAP1 POP SWAP2 SWAP1 POP JUMP JUMPDEST PUSH2 0x101D PUSH2 0x220E JUMP JUMPDEST PUSH2 0x1027 DUP3 DUP3 PUSH2 0x2398 JUMP JUMPDEST DUP2 PUSH20 0xFFFFFFFFFFFFFFFFFFFFFFFFFFFFFFFFFFFFFFFF AND PUSH32 0x8CACDD64BCFF95DB0485E736FFB5686B2D0C4B27996F3E38E285B8996779048B DUP3 PUSH1 0x40 MLOAD PUSH2 0x106D SWAP2 SWAP1 PUSH2 0x43A1 JUMP JUMPDEST PUSH1 0x40 MLOAD DUP1 SWAP2 SUB SWAP1 LOG2 POP POP JUMP JUMPDEST PUSH1 0x13 SLOAD DUP2 JUMP JUMPDEST PUSH0 PUSH2 0x1088 PUSH2 0x1CF0 JUMP JUMPDEST SWAP1 POP PUSH2 0x1094 DUP2 DUP4 PUSH2 0x23F0 JUMP JUMPDEST POP POP JUMP JUMPDEST PUSH0 PUSH1 0x8 PUSH0 SWAP1 SLOAD SWAP1 PUSH2 0x100 EXP SWAP1 DIV PUSH1 0xFF AND SWAP1 POP SWAP1 JUMP JUMPDEST PUSH0 PUSH1 0x15 PUSH0 DUP4 PUSH20 0xFFFFFFFFFFFFFFFFFFFFFFFFFFFFFFFFFFFFFFFF AND PUSH20 0xFFFFFFFFFFFFFFFFFFFFFFFFFFFFFFFFFFFFFFFF AND DUP2 MSTORE PUSH1 0x20 ADD SWAP1 DUP2 MSTORE PUSH1 0x20 ADD PUSH0 KECCAK256 PUSH0 ADD SLOAD SWAP1 POP SWAP2 SWAP1 POP JUMP JUMPDEST PUSH0 PUSH1 0x10 PUSH0 SWAP1 SLOAD SWAP1 PUSH2 0x100 EXP SWAP1 DIV PUSH20 0xFFFFFFFFFFFFFFFFFFFFFFFFFFFFFFFFFFFFFFFF AND SWAP1 POP SWAP1 JUMP JUMPDEST PUSH0 PUSH2 0x1127 DUP3 PUSH2 0x2500 JUMP JUMPDEST SWAP1 POP SWAP2 SWAP1 POP JUMP JUMPDEST PUSH0 PUSH0 PUSH0 DUP4 PUSH20 0xFFFFFFFFFFFFFFFFFFFFFFFFFFFFFFFFFFFFFFFF AND PUSH20 0xFFFFFFFFFFFFFFFFFFFFFFFFFFFFFFFFFFFFFFFF AND DUP2 MSTORE PUSH1 0x20 ADD SWAP1 DUP2 MSTORE PUSH1 0x20 ADD PUSH0 KECCAK256 SLOAD SWAP1 POP SWAP2 SWAP1 POP JUMP JUMPDEST PUSH2 0x117B PUSH2 0x220E JUMP JUMPDEST PUSH2 0x1184 PUSH0 PUSH2 0x2555 JUMP JUMPDEST JUMP JUMPDEST PUSH0 PUSH2 0x118F PUSH2 0x1CF0 JUMP JUMPDEST SWAP1 POP DUP1 PUSH20 0xFFFFFFFFFFFFFFFFFFFFFFFFFFFFFFFFFFFFFFFF AND PUSH2 0x11B0 PUSH2 0x1AF0 JUMP JUMPDEST PUSH20 0xFFFFFFFFFFFFFFFFFFFFFFFFFFFFFFFFFFFFFFFF AND EQ PUSH2 0x1208 JUMPI DUP1 PUSH1 0x40 MLOAD PUSH32 0x118CDAA700000000000000000000000000000000000000000000000000000000 DUP2 MSTORE PUSH1 0x4 ADD PUSH2 0x11FF SWAP2 SWAP1 PUSH2 0x44FC JUMP JUMPDEST PUSH1 0x40 MLOAD DUP1 SWAP2 SUB SWAP1 REVERT JUMPDEST PUSH2 0x1211 DUP2 PUSH2 0x2555 JUMP JUMPDEST POP JUMP JUMPDEST PUSH2 0x1226 DUP3 PUSH2 0x1220 PUSH2 0x1CF0 JUMP JUMPDEST DUP4 PUSH2 0x1D09 JUMP JUMPDEST PUSH2 0x1230 DUP3 DUP3 PUSH2 0x2585 JUMP JUMPDEST POP POP JUMP JUMPDEST PUSH0 PUSH2 0x123E DUP3 PUSH2 0x2604 JUMP JUMPDEST SWAP1 POP SWAP2 SWAP1 POP JUMP JUMPDEST PUSH1 0x12 SLOAD DUP2 JUMP JUMPDEST PUSH0 PUSH1 0x16 SLOAD SWAP1 POP SWAP1 JUMP JUMPDEST PUSH2 0x125C PUSH2 0x220E JUMP JUMPDEST PUSH2 0x1264 PUSH2 0x2615 JUMP JUMPDEST JUMP JUMPDEST PUSH0 PUSH1 0x60 DUP1 PUSH0 PUSH0 PUSH0 PUSH1 0x60 PUSH2 0x1277 PUSH2 0x2677 JUMP JUMPDEST PUSH2 0x127F PUSH2 0x26B2 JUMP JUMPDEST CHAINID ADDRESS PUSH0 PUSH0 SHL PUSH0 PUSH8 0xFFFFFFFFFFFFFFFF DUP2 GT ISZERO PUSH2 0x129E JUMPI PUSH2 0x129D PUSH2 0x4C6F JUMP JUMPDEST JUMPDEST PUSH1 0x40 MLOAD SWAP1 DUP1 DUP3 MSTORE DUP1 PUSH1 0x20 MUL PUSH1 0x20 ADD DUP3 ADD PUSH1 0x40 MSTORE DUP1 ISZERO PUSH2 0x12CC JUMPI DUP2 PUSH1 0x20 ADD PUSH1 0x20 DUP3 MUL DUP1 CALLDATASIZE DUP4 CALLDATACOPY DUP1 DUP3 ADD SWAP2 POP POP SWAP1 POP JUMPDEST POP PUSH32 0xF00000000000000000000000000000000000000000000000000000000000000 SWAP6 SWAP5 SWAP4 SWAP3 SWAP2 SWAP1 SWAP7 POP SWAP7 POP SWAP7 POP SWAP7 POP SWAP7 POP SWAP7 POP SWAP7 POP SWAP1 SWAP2 SWAP3 SWAP4 SWAP5 SWAP6 SWAP7 JUMP JUMPDEST PUSH0 PUSH1 0xC PUSH0 SWAP1 SLOAD SWAP1 PUSH2 0x100 EXP SWAP1 DIV PUSH20 0xFFFFFFFFFFFFFFFFFFFFFFFFFFFFFFFFFFFFFFFF AND SWAP1 POP SWAP1 JUMP JUMPDEST PUSH0 PUSH2 0x1350 PUSH2 0x1340 DUP4 PUSH2 0x20B3 JUMP JUMPDEST PUSH1 0xB PUSH2 0x211E SWAP1 SWAP2 SWAP1 PUSH4 0xFFFFFFFF AND JUMP JUMPDEST PUSH26 0xFFFFFFFFFFFFFFFFFFFFFFFFFFFFFFFFFFFFFFFFFFFFFFFFFFFF AND SWAP1 POP SWAP2 SWAP1 POP JUMP JUMPDEST PUSH0 PUSH2 0x137C PUSH2 0x2389 JUMP JUMPDEST SWAP1 POP SWAP1 JUMP JUMPDEST PUSH1 0x60 PUSH1 0x4 DUP1 SLOAD PUSH2 0x1390 SWAP1 PUSH2 0x4A74 JUMP JUMPDEST DUP1 PUSH1 0x1F ADD PUSH1 0x20 DUP1 SWAP2 DIV MUL PUSH1 0x20 ADD PUSH1 0x40 MLOAD SWAP1 DUP2 ADD PUSH1 0x40 MSTORE DUP1 SWAP3 SWAP2 SWAP1 DUP2 DUP2 MSTORE PUSH1 0x20 ADD DUP3 DUP1 SLOAD PUSH2 0x13BC SWAP1 PUSH2 0x4A74 JUMP JUMPDEST DUP1 ISZERO PUSH2 0x1407 JUMPI DUP1 PUSH1 0x1F LT PUSH2 0x13DE JUMPI PUSH2 0x100 DUP1 DUP4 SLOAD DIV MUL DUP4 MSTORE SWAP2 PUSH1 0x20 ADD SWAP2 PUSH2 0x1407 JUMP JUMPDEST DUP3 ADD SWAP2 SWAP1 PUSH0 MSTORE PUSH1 0x20 PUSH0 KECCAK256 SWAP1 JUMPDEST DUP2 SLOAD DUP2 MSTORE SWAP1 PUSH1 0x1 ADD SWAP1 PUSH1 0x20 ADD DUP1 DUP4 GT PUSH2 0x13EA JUMPI DUP3 SWAP1 SUB PUSH1 0x1F AND DUP3 ADD SWAP2 JUMPDEST POP POP POP POP POP SWAP1 POP SWAP1 JUMP JUMPDEST PUSH0 PUSH2 0x1457 PUSH1 0xA PUSH0 DUP5 PUSH20 0xFFFFFFFFFFFFFFFFFFFFFFFFFFFFFFFFFFFFFFFF AND PUSH20 0xFFFFFFFFFFFFFFFFFFFFFFFFFFFFFFFFFFFFFFFF AND DUP2 MSTORE PUSH1 0x20 ADD SWAP1 DUP2 MSTORE PUSH1 0x20 ADD PUSH0 KECCAK256 PUSH2 0x26ED JUMP JUMPDEST PUSH26 0xFFFFFFFFFFFFFFFFFFFFFFFFFFFFFFFFFFFFFFFFFFFFFFFFFFFF AND SWAP1 POP SWAP2 SWAP1 POP JUMP JUMPDEST PUSH1 0x14 DUP2 JUMP JUMPDEST PUSH0 PUSH1 0xF SLOAD SWAP1 POP SWAP1 JUMP JUMPDEST PUSH2 0x1490 PUSH2 0x1E8C JUMP JUMPDEST PUSH2 0x1498 PUSH2 0x1ED2 JUMP JUMPDEST PUSH0 DUP2 GT PUSH2 0x14DA JUMPI PUSH1 0x40 MLOAD PUSH32 0x8C379A000000000000000000000000000000000000000000000000000000000 DUP2 MSTORE PUSH1 0x4 ADD PUSH2 0x14D1 SWAP1 PUSH2 0x4CE6 JUMP JUMPDEST PUSH1 0x40 MLOAD DUP1 SWAP2 SUB SWAP1 REVERT JUMPDEST PUSH2 0x14E3 CALLER PUSH2 0x1F13 JUMP JUMPDEST PUSH2 0x14EE CALLER ADDRESS DUP4 PUSH2 0x1D9C JUMP JUMPDEST PUSH0 PUSH1 0x15 PUSH0 CALLER PUSH20 0xFFFFFFFFFFFFFFFFFFFFFFFFFFFFFFFFFFFFFFFF AND PUSH20 0xFFFFFFFFFFFFFFFFFFFFFFFFFFFFFFFFFFFFFFFF AND DUP2 MSTORE PUSH1 0x20 ADD SWAP1 DUP2 MSTORE PUSH1 0x20 ADD PUSH0 KECCAK256 SWAP1 POP DUP2 DUP2 PUSH0 ADD PUSH0 DUP3 DUP3 SLOAD PUSH2 0x1540 SWAP2 SWAP1 PUSH2 0x4BD4 JUMP JUMPDEST SWAP3 POP POP DUP2 SWAP1 SSTORE POP PUSH1 0x14 NUMBER PUSH2 0x1554 SWAP2 SWAP1 PUSH2 0x4BD4 JUMP JUMPDEST DUP2 PUSH1 0x3 ADD DUP2 SWAP1 SSTORE POP NUMBER DUP2 PUSH1 0x2 ADD DUP2 SWAP1 SSTORE POP DUP2 PUSH1 0x16 PUSH0 DUP3 DUP3 SLOAD PUSH2 0x1576 SWAP2 SWAP1 PUSH2 0x4BD4 JUMP JUMPDEST SWAP3 POP POP DUP2 SWAP1 SSTORE POP CALLER PUSH20 0xFFFFFFFFFFFFFFFFFFFFFFFFFFFFFFFFFFFFFFFF AND PUSH32 0x1449C6DD7851ABC30ABF37F57715F492010519147CC2652FBC38202C18A6EE90 DUP4 DUP4 PUSH1 0x3 ADD SLOAD PUSH1 0x40 MLOAD PUSH2 0x15C9 SWAP3 SWAP2 SWAP1 PUSH2 0x4D04 JUMP JUMPDEST PUSH1 0x40 MLOAD DUP1 SWAP2 SUB SWAP1 LOG2 POP PUSH2 0x15DA PUSH2 0x1FF3 JUMP JUMPDEST POP JUMP JUMPDEST PUSH0 PUSH0 PUSH2 0x15E7 PUSH2 0x1CF0 JUMP JUMPDEST SWAP1 POP PUSH2 0x15F4 DUP2 DUP6 DUP6 PUSH2 0x1D9C JUMP JUMPDEST PUSH1 0x1 SWAP2 POP POP SWAP3 SWAP2 POP POP JUMP JUMPDEST PUSH1 0x5 DUP2 JUMP JUMPDEST PUSH2 0x160C PUSH2 0x1E8C JUMP JUMPDEST PUSH2 0x1614 PUSH2 0x1ED2 JUMP JUMPDEST PUSH0 PUSH1 0x15 PUSH0 CALLER PUSH20 0xFFFFFFFFFFFFFFFFFFFFFFFFFFFFFFFFFFFFFFFF AND PUSH20 0xFFFFFFFFFFFFFFFFFFFFFFFFFFFFFFFFFFFFFFFF AND DUP2 MSTORE PUSH1 0x20 ADD SWAP1 DUP2 MSTORE PUSH1 0x20 ADD PUSH0 KECCAK256 SWAP1 POP PUSH1 0x5 DUP2 PUSH1 0x2 ADD SLOAD PUSH2 0x1665 SWAP2 SWAP1 PUSH2 0x4BD4 JUMP JUMPDEST NUMBER LT ISZERO PUSH2 0x16A7 JUMPI PUSH1 0x40 MLOAD PUSH32 0x8C379A000000000000000000000000000000000000000000000000000000000 DUP2 MSTORE PUSH1 0x4 ADD PUSH2 0x169E SWAP1 PUSH2 0x4D75 JUMP JUMPDEST PUSH1 0x40 MLOAD DUP1 SWAP2 SUB SWAP1 REVERT JUMPDEST PUSH2 0x16B0 CALLER PUSH2 0x1F13 JUMP JUMPDEST PUSH0 DUP2 PUSH1 0x1 ADD SLOAD SWAP1 POP PUSH0 DUP2 GT PUSH2 0x16FA JUMPI PUSH1 0x40 MLOAD PUSH32 0x8C379A000000000000000000000000000000000000000000000000000000000 DUP2 MSTORE PUSH1 0x4 ADD PUSH2 0x16F1 SWAP1 PUSH2 0x4DDD JUMP JUMPDEST PUSH1 0x40 MLOAD DUP1 SWAP2 SUB SWAP1 REVERT JUMPDEST PUSH0 PUSH1 0x64 PUSH1 0x14 PUSH1 0x17 SLOAD PUSH2 0x170C SWAP2 SWAP1 PUSH2 0x4DFB JUMP JUMPDEST PUSH2 0x1716 SWAP2 SWAP1 PUSH2 0x4E69 JUMP JUMPDEST SWAP1 POP DUP1 DUP3 GT ISZERO PUSH2 0x1724 JUMPI DUP1 SWAP2 POP JUMPDEST PUSH1 0x17 SLOAD DUP3 GT ISZERO PUSH2 0x1734 JUMPI PUSH1 0x17 SLOAD SWAP2 POP JUMPDEST DUP2 PUSH1 0x17 PUSH0 DUP3 DUP3 SLOAD PUSH2 0x1745 SWAP2 SWAP1 PUSH2 0x4BA1 JUMP JUMPDEST SWAP3 POP POP DUP2 SWAP1 SSTORE POP DUP2 DUP4 PUSH1 0x1 ADD PUSH0 DUP3 DUP3 SLOAD PUSH2 0x175F SWAP2 SWAP1 PUSH2 0x4BA1 JUMP JUMPDEST SWAP3 POP POP DUP2 SWAP1 SSTORE POP NUMBER DUP4 PUSH1 0x2 ADD DUP2 SWAP1 SSTORE POP PUSH2 0x177A ADDRESS CALLER DUP5 PUSH2 0x1D9C JUMP JUMPDEST CALLER PUSH20 0xFFFFFFFFFFFFFFFFFFFFFFFFFFFFFFFFFFFFFFFF AND PUSH32 0x106F923F993C2149D49B4255FF723ACAFA1F2D94393F561D3EDA32AE348F7241 DUP4 PUSH1 0x40 MLOAD PUSH2 0x17C0 SWAP2 SWAP1 PUSH2 0x43C9 JUMP JUMPDEST PUSH1 0x40 MLOAD DUP1 SWAP2 SUB SWAP1 LOG2 POP POP POP PUSH2 0x17D3 PUSH2 0x1FF3 JUMP JUMPDEST JUMP JUMPDEST PUSH1 0x14 SLOAD DUP2 JUMP JUMPDEST DUP4 TIMESTAMP GT ISZERO PUSH2 0x1820 JUMPI DUP4 PUSH1 0x40 MLOAD PUSH32 0x4683AF0E00000000000000000000000000000000000000000000000000000000 DUP2 MSTORE PUSH1 0x4 ADD PUSH2 0x1817 SWAP2 SWAP1 PUSH2 0x43C9 JUMP JUMPDEST PUSH1 0x40 MLOAD DUP1 SWAP2 SUB SWAP1 REVERT JUMPDEST PUSH0 PUSH2 0x1881 PUSH2 0x1879 PUSH32 0xE48329057BFD03D55E49B547132E39CFFD9C1820AD7B9D4C5307691425D15ADF DUP10 DUP10 DUP10 PUSH1 0x40 MLOAD PUSH1 0x20 ADD PUSH2 0x185E SWAP5 SWAP4 SWAP3 SWAP2 SWAP1 PUSH2 0x4E99 JUMP JUMPDEST PUSH1 0x40 MLOAD PUSH1 0x20 DUP2 DUP4 SUB SUB DUP2 MSTORE SWAP1 PUSH1 0x40 MSTORE DUP1 MLOAD SWAP1 PUSH1 0x20 ADD KECCAK256 PUSH2 0x274F JUMP JUMPDEST DUP6 DUP6 DUP6 PUSH2 0x2768 JUMP JUMPDEST SWAP1 POP PUSH2 0x188D DUP2 DUP8 PUSH2 0x2796 JUMP JUMPDEST PUSH2 0x1897 DUP2 DUP9 PUSH2 0x23F0 JUMP JUMPDEST POP POP POP POP POP POP POP JUMP JUMPDEST PUSH2 0x18A8 PUSH2 0x220E JUMP JUMPDEST DUP1 DUP3 GT ISZERO PUSH2 0x18EB JUMPI PUSH1 0x40 MLOAD PUSH32 0x8C379A000000000000000000000000000000000000000000000000000000000 DUP2 MSTORE PUSH1 0x4 ADD PUSH2 0x18E2 SWAP1 PUSH2 0x4F26 JUMP JUMPDEST PUSH1 0x40 MLOAD DUP1 SWAP2 SUB SWAP1 REVERT JUMPDEST DUP2 PUSH1 0x13 DUP2 SWAP1 SSTORE POP DUP1 PUSH1 0x14 DUP2 SWAP1 SSTORE POP POP POP JUMP JUMPDEST DUP4 TIMESTAMP GT ISZERO PUSH2 0x1942 JUMPI DUP4 PUSH1 0x40 MLOAD PUSH32 0x6279130200000000000000000000000000000000000000000000000000000000 DUP2 MSTORE PUSH1 0x4 ADD PUSH2 0x1939 SWAP2 SWAP1 PUSH2 0x43C9 JUMP JUMPDEST PUSH1 0x40 MLOAD DUP1 SWAP2 SUB SWAP1 REVERT JUMPDEST PUSH0 PUSH32 0x6E71EDAE12B1B97F4D1F60370FEF10105FA2FAAE0126114A169C64845D6126C9 DUP9 DUP9 DUP9 PUSH2 0x1970 DUP13 PUSH2 0x27ED JUMP JUMPDEST DUP10 PUSH1 0x40 MLOAD PUSH1 0x20 ADD PUSH2 0x1986 SWAP7 SWAP6 SWAP5 SWAP4 SWAP3 SWAP2 SWAP1 PUSH2 0x4F44 JUMP JUMPDEST PUSH1 0x40 MLOAD PUSH1 0x20 DUP2 DUP4 SUB SUB DUP2 MSTORE SWAP1 PUSH1 0x40 MSTORE DUP1 MLOAD SWAP1 PUSH1 0x20 ADD KECCAK256 SWAP1 POP PUSH0 PUSH2 0x19A8 DUP3 PUSH2 0x274F JUMP JUMPDEST SWAP1 POP PUSH0 PUSH2 0x19B7 DUP3 DUP8 DUP8 DUP8 PUSH2 0x2768 JUMP JUMPDEST SWAP1 POP DUP10 PUSH20 0xFFFFFFFFFFFFFFFFFFFFFFFFFFFFFFFFFFFFFFFF AND DUP2 PUSH20 0xFFFFFFFFFFFFFFFFFFFFFFFFFFFFFFFFFFFFFFFF AND EQ PUSH2 0x1A2B JUMPI DUP1 DUP11 PUSH1 0x40 MLOAD PUSH32 0x4B800E4600000000000000000000000000000000000000000000000000000000 DUP2 MSTORE PUSH1 0x4 ADD PUSH2 0x1A22 SWAP3 SWAP2 SWAP1 PUSH2 0x4FA3 JUMP JUMPDEST PUSH1 0x40 MLOAD DUP1 SWAP2 SUB SWAP1 REVERT JUMPDEST PUSH2 0x1A36 DUP11 DUP11 DUP11 PUSH2 0x1CF7 JUMP JUMPDEST POP POP POP POP POP POP POP POP POP POP JUMP JUMPDEST PUSH0 PUSH32 0x0 SWAP1 POP SWAP1 JUMP JUMPDEST PUSH0 PUSH1 0x1 PUSH0 DUP5 PUSH20 0xFFFFFFFFFFFFFFFFFFFFFFFFFFFFFFFFFFFFFFFF AND PUSH20 0xFFFFFFFFFFFFFFFFFFFFFFFFFFFFFFFFFFFFFFFF AND DUP2 MSTORE PUSH1 0x20 ADD SWAP1 DUP2 MSTORE PUSH1 0x20 ADD PUSH0 KECCAK256 PUSH0 DUP4 PUSH20 0xFFFFFFFFFFFFFFFFFFFFFFFFFFFFFFFFFFFFFFFF AND PUSH20 0xFFFFFFFFFFFFFFFFFFFFFFFFFFFFFFFFFFFFFFFF AND DUP2 MSTORE PUSH1 0x20 ADD SWAP1 DUP2 MSTORE PUSH1 0x20 ADD PUSH0 KECCAK256 SLOAD SWAP1 POP SWAP3 SWAP2 POP POP JUMP JUMPDEST PUSH1 0x14 DUP2 JUMP JUMPDEST PUSH0 PUSH1 0xD PUSH0 SWAP1 SLOAD SWAP1 PUSH2 0x100 EXP SWAP1 DIV PUSH20 0xFFFFFFFFFFFFFFFFFFFFFFFFFFFFFFFFFFFFFFFF AND SWAP1 POP SWAP1 JUMP JUMPDEST PUSH1 0x14 DUP2 JUMP JUMPDEST PUSH2 0x3E8 DUP2 JUMP JUMPDEST PUSH2 0x1B2B PUSH2 0x220E JUMP JUMPDEST PUSH0 PUSH20 0xFFFFFFFFFFFFFFFFFFFFFFFFFFFFFFFFFFFFFFFF AND DUP2 PUSH20 0xFFFFFFFFFFFFFFFFFFFFFFFFFFFFFFFFFFFFFFFF AND SUB PUSH2 0x1B99 JUMPI PUSH1 0x40 MLOAD PUSH32 0x8C379A000000000000000000000000000000000000000000000000000000000 DUP2 MSTORE PUSH1 0x4 ADD PUSH2 0x1B90 SWAP1 PUSH2 0x5014 JUMP JUMPDEST PUSH1 0x40 MLOAD DUP1 SWAP2 SUB SWAP1 REVERT JUMPDEST DUP1 PUSH1 0x10 PUSH0 PUSH2 0x100 EXP DUP2 SLOAD DUP2 PUSH20 0xFFFFFFFFFFFFFFFFFFFFFFFFFFFFFFFFFFFFFFFF MUL NOT AND SWAP1 DUP4 PUSH20 0xFFFFFFFFFFFFFFFFFFFFFFFFFFFFFFFFFFFFFFFF AND MUL OR SWAP1 SSTORE POP PUSH2 0x1BE4 DUP2 PUSH1 0x1 PUSH2 0x2398 JUMP JUMPDEST DUP1 PUSH20 0xFFFFFFFFFFFFFFFFFFFFFFFFFFFFFFFFFFFFFFFF AND PUSH32 0x7DAE230F18360D76A040C81F050AA14EB9D6DC7901B20FC5D855E2A20FE814D1 PUSH1 0x40 MLOAD PUSH1 0x40 MLOAD DUP1 SWAP2 SUB SWAP1 LOG2 POP JUMP JUMPDEST PUSH2 0x1C32 PUSH2 0x41EC JUMP JUMPDEST PUSH2 0x1C3C DUP4 DUP4 PUSH2 0x2840 JUMP JUMPDEST SWAP1 POP SWAP3 SWAP2 POP POP JUMP JUMPDEST PUSH2 0x1C4C PUSH2 0x220E JUMP JUMPDEST DUP1 PUSH1 0xD PUSH0 PUSH2 0x100 EXP DUP2 SLOAD DUP2 PUSH20 0xFFFFFFFFFFFFFFFFFFFFFFFFFFFFFFFFFFFFFFFF MUL NOT AND SWAP1 DUP4 PUSH20 0xFFFFFFFFFFFFFFFFFFFFFFFFFFFFFFFFFFFFFFFF AND MUL OR SWAP1 SSTORE POP DUP1 PUSH20 0xFFFFFFFFFFFFFFFFFFFFFFFFFFFFFFFFFFFFFFFF AND PUSH2 0x1CAB PUSH2 0x130B JUMP JUMPDEST PUSH20 0xFFFFFFFFFFFFFFFFFFFFFFFFFFFFFFFFFFFFFFFF AND PUSH32 0x38D16B8CAC22D99FC7C124B9CD0DE2D3FA1FAEF420BFE791D8C362D765E22700 PUSH1 0x40 MLOAD PUSH1 0x40 MLOAD DUP1 SWAP2 SUB SWAP1 LOG3 POP JUMP JUMPDEST PUSH0 CALLER SWAP1 POP SWAP1 JUMP JUMPDEST PUSH2 0x1D04 DUP4 DUP4 DUP4 PUSH1 0x1 PUSH2 0x289F JUMP JUMPDEST POP POP POP JUMP JUMPDEST PUSH0 PUSH2 0x1D14 DUP5 DUP5 PUSH2 0x1A69 JUMP JUMPDEST SWAP1 POP PUSH32 0xFFFFFFFFFFFFFFFFFFFFFFFFFFFFFFFFFFFFFFFFFFFFFFFFFFFFFFFFFFFFFFFF DUP2 LT ISZERO PUSH2 0x1D96 JUMPI DUP2 DUP2 LT ISZERO PUSH2 0x1D87 JUMPI DUP3 DUP2 DUP4 PUSH1 0x40 MLOAD PUSH32 0xFB8F41B200000000000000000000000000000000000000000000000000000000 DUP2 MSTORE PUSH1 0x4 ADD PUSH2 0x1D7E SWAP4 SWAP3 SWAP2 SWAP1 PUSH2 0x5032 JUMP JUMPDEST PUSH1 0x40 MLOAD DUP1 SWAP2 SUB SWAP1 REVERT JUMPDEST PUSH2 0x1D95 DUP5 DUP5 DUP5 DUP5 SUB PUSH0 PUSH2 0x289F JUMP JUMPDEST JUMPDEST POP POP POP POP JUMP JUMPDEST PUSH0 PUSH20 0xFFFFFFFFFFFFFFFFFFFFFFFFFFFFFFFFFFFFFFFF AND DUP4 PUSH20 0xFFFFFFFFFFFFFFFFFFFFFFFFFFFFFFFFFFFFFFFF AND SUB PUSH2 0x1E0C JUMPI PUSH0 PUSH1 0x40 MLOAD PUSH32 0x96C6FD1E00000000000000000000000000000000000000000000000000000000 DUP2 MSTORE PUSH1 0x4 ADD PUSH2 0x1E03 SWAP2 SWAP1 PUSH2 0x44FC JUMP JUMPDEST PUSH1 0x40 MLOAD DUP1 SWAP2 SUB SWAP1 REVERT JUMPDEST PUSH0 PUSH20 0xFFFFFFFFFFFFFFFFFFFFFFFFFFFFFFFFFFFFFFFF AND DUP3 PUSH20 0xFFFFFFFFFFFFFFFFFFFFFFFFFFFFFFFFFFFFFFFF AND SUB PUSH2 0x1E7C JUMPI PUSH0 PUSH1 0x40 MLOAD PUSH32 0xEC442F0500000000000000000000000000000000000000000000000000000000 DUP2 MSTORE PUSH1 0x4 ADD PUSH2 0x1E73 SWAP2 SWAP1 PUSH2 0x44FC JUMP JUMPDEST PUSH1 0x40 MLOAD DUP1 SWAP2 SUB SWAP1 REVERT JUMPDEST PUSH2 0x1E87 DUP4 DUP4 DUP4 PUSH2 0x2A6E JUMP JUMPDEST POP POP POP JUMP JUMPDEST PUSH1 0x2 PUSH1 0xE SLOAD SUB PUSH2 0x1EC8 JUMPI PUSH1 0x40 MLOAD PUSH32 0x3EE5AEB500000000000000000000000000000000000000000000000000000000 DUP2 MSTORE PUSH1 0x4 ADD PUSH1 0x40 MLOAD DUP1 SWAP2 SUB SWAP1 REVERT JUMPDEST PUSH1 0x2 PUSH1 0xE DUP2 SWAP1 SSTORE POP JUMP JUMPDEST PUSH2 0x1EDA PUSH2 0x1098 JUMP JUMPDEST ISZERO PUSH2 0x1F11 JUMPI PUSH1 0x40 MLOAD PUSH32 0xD93C066500000000000000000000000000000000000000000000000000000000 DUP2 MSTORE PUSH1 0x4 ADD PUSH1 0x40 MLOAD DUP1 SWAP2 SUB SWAP1 REVERT JUMPDEST JUMP JUMPDEST PUSH0 PUSH1 0x16 SLOAD EQ DUP1 PUSH2 0x1F24 JUMPI POP PUSH0 PUSH1 0x17 SLOAD EQ JUMPDEST PUSH2 0x1FF0 JUMPI PUSH1 0x16 SLOAD PUSH8 0xDE0B6B3A7640000 PUSH1 0x17 SLOAD PUSH2 0x1F41 SWAP2 SWAP1 PUSH2 0x4DFB JUMP JUMPDEST PUSH2 0x1F4B SWAP2 SWAP1 PUSH2 0x4E69 JUMP JUMPDEST PUSH1 0x18 DUP2 SWAP1 SSTORE POP PUSH0 PUSH1 0x15 PUSH0 DUP4 PUSH20 0xFFFFFFFFFFFFFFFFFFFFFFFFFFFFFFFFFFFFFFFF AND PUSH20 0xFFFFFFFFFFFFFFFFFFFFFFFFFFFFFFFFFFFFFFFF AND DUP2 MSTORE PUSH1 0x20 ADD SWAP1 DUP2 MSTORE PUSH1 0x20 ADD PUSH0 KECCAK256 SWAP1 POP PUSH0 DUP2 PUSH0 ADD SLOAD GT ISZERO PUSH2 0x1FEE JUMPI PUSH0 DUP2 PUSH1 0x1 ADD SLOAD PUSH8 0xDE0B6B3A7640000 PUSH1 0x18 SLOAD DUP5 PUSH0 ADD SLOAD PUSH2 0x1FBC SWAP2 SWAP1 PUSH2 0x4DFB JUMP JUMPDEST PUSH2 0x1FC6 SWAP2 SWAP1 PUSH2 0x4E69 JUMP JUMPDEST PUSH2 0x1FD0 SWAP2 SWAP1 PUSH2 0x4BA1 JUMP JUMPDEST SWAP1 POP DUP1 DUP3 PUSH1 0x1 ADD PUSH0 DUP3 DUP3 SLOAD PUSH2 0x1FE5 SWAP2 SWAP1 PUSH2 0x4BD4 JUMP JUMPDEST SWAP3 POP POP DUP2 SWAP1 SSTORE POP POP JUMPDEST POP JUMPDEST POP JUMP JUMPDEST PUSH1 0x1 PUSH1 0xE DUP2 SWAP1 SSTORE POP JUMP JUMPDEST PUSH0 PUSH32 0x0 PUSH20 0xFFFFFFFFFFFFFFFFFFFFFFFFFFFFFFFFFFFFFFFF AND ADDRESS PUSH20 0xFFFFFFFFFFFFFFFFFFFFFFFFFFFFFFFFFFFFFFFF AND EQ DUP1 ISZERO PUSH2 0x2078 JUMPI POP PUSH32 0x0 CHAINID EQ JUMPDEST ISZERO PUSH2 0x20A5 JUMPI PUSH32 0x0 SWAP1 POP PUSH2 0x20B0 JUMP JUMPDEST PUSH2 0x20AD PUSH2 0x2D3E JUMP JUMPDEST SWAP1 POP JUMPDEST SWAP1 JUMP JUMPDEST PUSH0 PUSH0 PUSH2 0x20BD PUSH2 0x1373 JUMP JUMPDEST SWAP1 POP DUP1 PUSH6 0xFFFFFFFFFFFF AND DUP4 LT PUSH2 0x210D JUMPI DUP3 DUP2 PUSH1 0x40 MLOAD PUSH32 0xECD3F81E00000000000000000000000000000000000000000000000000000000 DUP2 MSTORE PUSH1 0x4 ADD PUSH2 0x2104 SWAP3 SWAP2 SWAP1 PUSH2 0x5067 JUMP JUMPDEST PUSH1 0x40 MLOAD DUP1 SWAP2 SUB SWAP1 REVERT JUMPDEST PUSH2 0x2116 DUP4 PUSH2 0x2DD3 JUMP JUMPDEST SWAP2 POP POP SWAP2 SWAP1 POP JUMP JUMPDEST PUSH0 PUSH0 DUP4 PUSH0 ADD DUP1 SLOAD SWAP1 POP SWAP1 POP PUSH0 PUSH0 SWAP1 POP PUSH0 DUP3 SWAP1 POP PUSH1 0x5 DUP4 GT ISZERO PUSH2 0x21A2 JUMPI PUSH0 PUSH2 0x2144 DUP5 PUSH2 0x2E2C JUMP JUMPDEST DUP5 PUSH2 0x214F SWAP2 SWAP1 PUSH2 0x4BA1 JUMP JUMPDEST SWAP1 POP PUSH2 0x215D DUP8 PUSH0 ADD DUP3 PUSH2 0x2FC6 JUMP JUMPDEST PUSH0 ADD PUSH0 SWAP1 SLOAD SWAP1 PUSH2 0x100 EXP SWAP1 DIV PUSH6 0xFFFFFFFFFFFF AND PUSH6 0xFFFFFFFFFFFF AND DUP7 PUSH6 0xFFFFFFFFFFFF AND LT ISZERO PUSH2 0x2190 JUMPI DUP1 SWAP2 POP PUSH2 0x21A0 JUMP JUMPDEST PUSH1 0x1 DUP2 PUSH2 0x219D SWAP2 SWAP1 PUSH2 0x4BD4 JUMP JUMPDEST SWAP3 POP JUMPDEST POP JUMPDEST PUSH0 PUSH2 0x21B1 DUP8 PUSH0 ADD DUP8 DUP6 DUP6 PUSH2 0x2FD8 JUMP JUMPDEST SWAP1 POP PUSH0 DUP2 EQ PUSH2 0x2200 JUMPI PUSH2 0x21D2 DUP8 PUSH0 ADD PUSH1 0x1 DUP4 PUSH2 0x21CD SWAP2 SWAP1 PUSH2 0x4BA1 JUMP JUMPDEST PUSH2 0x2FC6 JUMP JUMPDEST PUSH0 ADD PUSH1 0x6 SWAP1 SLOAD SWAP1 PUSH2 0x100 EXP SWAP1 DIV PUSH26 0xFFFFFFFFFFFFFFFFFFFFFFFFFFFFFFFFFFFFFFFFFFFFFFFFFFFF AND PUSH2 0x2202 JUMP JUMPDEST PUSH0 JUMPDEST SWAP5 POP POP POP POP POP SWAP3 SWAP2 POP POP JUMP JUMPDEST PUSH2 0x2216 PUSH2 0x1CF0 JUMP JUMPDEST PUSH20 0xFFFFFFFFFFFFFFFFFFFFFFFFFFFFFFFFFFFFFFFF AND PUSH2 0x2234 PUSH2 0x130B JUMP JUMPDEST PUSH20 0xFFFFFFFFFFFFFFFFFFFFFFFFFFFFFFFFFFFFFFFF AND EQ PUSH2 0x2293 JUMPI PUSH2 0x2257 PUSH2 0x1CF0 JUMP JUMPDEST PUSH1 0x40 MLOAD PUSH32 0x118CDAA700000000000000000000000000000000000000000000000000000000 DUP2 MSTORE PUSH1 0x4 ADD PUSH2 0x228A SWAP2 SWAP1 PUSH2 0x44FC JUMP JUMPDEST PUSH1 0x40 MLOAD DUP1 SWAP2 SUB SWAP1 REVERT JUMPDEST JUMP JUMPDEST PUSH2 0x229D PUSH2 0x304D JUMP JUMPDEST PUSH0 PUSH1 0x8 PUSH0 PUSH2 0x100 EXP DUP2 SLOAD DUP2 PUSH1 0xFF MUL NOT AND SWAP1 DUP4 ISZERO ISZERO MUL OR SWAP1 SSTORE POP PUSH32 0x5DB9EE0A495BF2E6FF9C91A7834C1BA4FDD244A5E8AA4E537BD38AEAE4B073AA PUSH2 0x22DF PUSH2 0x1CF0 JUMP JUMPDEST PUSH1 0x40 MLOAD PUSH2 0x22EC SWAP2 SWAP1 PUSH2 0x44FC JUMP JUMPDEST PUSH1 0x40 MLOAD DUP1 SWAP2 SUB SWAP1 LOG1 JUMP JUMPDEST PUSH0 PUSH20 0xFFFFFFFFFFFFFFFFFFFFFFFFFFFFFFFFFFFFFFFF AND DUP3 PUSH20 0xFFFFFFFFFFFFFFFFFFFFFFFFFFFFFFFFFFFFFFFF AND SUB PUSH2 0x2366 JUMPI PUSH0 PUSH1 0x40 MLOAD PUSH32 0xEC442F0500000000000000000000000000000000000000000000000000000000 DUP2 MSTORE PUSH1 0x4 ADD PUSH2 0x235D SWAP2 SWAP1 PUSH2 0x44FC JUMP JUMPDEST PUSH1 0x40 MLOAD DUP1 SWAP2 SUB SWAP1 REVERT JUMPDEST PUSH2 0x2371 PUSH0 DUP4 DUP4 PUSH2 0x2A6E JUMP JUMPDEST POP POP JUMP JUMPDEST PUSH2 0x2386 PUSH2 0x2380 PUSH2 0x1CF0 JUMP JUMPDEST DUP3 PUSH2 0x2585 JUMP JUMPDEST POP JUMP JUMPDEST PUSH0 PUSH2 0x2393 NUMBER PUSH2 0x2DD3 JUMP JUMPDEST SWAP1 POP SWAP1 JUMP JUMPDEST DUP1 PUSH1 0x11 PUSH0 DUP5 PUSH20 0xFFFFFFFFFFFFFFFFFFFFFFFFFFFFFFFFFFFFFFFF AND PUSH20 0xFFFFFFFFFFFFFFFFFFFFFFFFFFFFFFFFFFFFFFFF AND DUP2 MSTORE PUSH1 0x20 ADD SWAP1 DUP2 MSTORE PUSH1 0x20 ADD PUSH0 KECCAK256 PUSH0 PUSH2 0x100 EXP DUP2 SLOAD DUP2 PUSH1 0xFF MUL NOT AND SWAP1 DUP4 ISZERO ISZERO MUL OR SWAP1 SSTORE POP POP POP JUMP JUMPDEST PUSH0 PUSH2 0x23FA DUP4 PUSH2 0xFB0 JUMP JUMPDEST SWAP1 POP DUP2 PUSH1 0x9 PUSH0 DUP6 PUSH20 0xFFFFFFFFFFFFFFFFFFFFFFFFFFFFFFFFFFFFFFFF AND PUSH20 0xFFFFFFFFFFFFFFFFFFFFFFFFFFFFFFFFFFFFFFFF AND DUP2 MSTORE PUSH1 0x20 ADD SWAP1 DUP2 MSTORE PUSH1 0x20 ADD PUSH0 KECCAK256 PUSH0 PUSH2 0x100 EXP DUP2 SLOAD DUP2 PUSH20 0xFFFFFFFFFFFFFFFFFFFFFFFFFFFFFFFFFFFFFFFF MUL NOT AND SWAP1 DUP4 PUSH20 0xFFFFFFFFFFFFFFFFFFFFFFFFFFFFFFFFFFFFFFFF AND MUL OR SWAP1 SSTORE POP DUP2 PUSH20 0xFFFFFFFFFFFFFFFFFFFFFFFFFFFFFFFFFFFFFFFF AND DUP2 PUSH20 0xFFFFFFFFFFFFFFFFFFFFFFFFFFFFFFFFFFFFFFFF AND DUP5 PUSH20 0xFFFFFFFFFFFFFFFFFFFFFFFFFFFFFFFFFFFFFFFF AND PUSH32 0x3134E8A2E6D97E929A7E54011EA5485D7D196DD5F0BA4D4EF95803E8E3FC257F PUSH1 0x40 MLOAD PUSH1 0x40 MLOAD DUP1 SWAP2 SUB SWAP1 LOG4 PUSH2 0x24FB DUP2 DUP4 PUSH2 0x24F6 DUP7 PUSH2 0x308D JUMP JUMPDEST PUSH2 0x309E JUMP JUMPDEST POP POP POP JUMP JUMPDEST PUSH0 PUSH2 0x254E PUSH2 0x2549 PUSH1 0xA PUSH0 DUP6 PUSH20 0xFFFFFFFFFFFFFFFFFFFFFFFFFFFFFFFFFFFFFFFF AND PUSH20 0xFFFFFFFFFFFFFFFFFFFFFFFFFFFFFFFFFFFFFFFF AND DUP2 MSTORE PUSH1 0x20 ADD SWAP1 DUP2 MSTORE PUSH1 0x20 ADD PUSH0 KECCAK256 PUSH2 0x330E JUMP JUMPDEST PUSH2 0x331D JUMP JUMPDEST SWAP1 POP SWAP2 SWAP1 POP JUMP JUMPDEST PUSH1 0xD PUSH0 PUSH2 0x100 EXP DUP2 SLOAD SWAP1 PUSH20 0xFFFFFFFFFFFFFFFFFFFFFFFFFFFFFFFFFFFFFFFF MUL NOT AND SWAP1 SSTORE PUSH2 0x2582 DUP2 PUSH2 0x3374 JUMP JUMPDEST POP JUMP JUMPDEST PUSH0 PUSH20 0xFFFFFFFFFFFFFFFFFFFFFFFFFFFFFFFFFFFFFFFF AND DUP3 PUSH20 0xFFFFFFFFFFFFFFFFFFFFFFFFFFFFFFFFFFFFFFFF AND SUB PUSH2 0x25F5 JUMPI PUSH0 PUSH1 0x40 MLOAD PUSH32 0x96C6FD1E00000000000000000000000000000000000000000000000000000000 DUP2 MSTORE PUSH1 0x4 ADD PUSH2 0x25EC SWAP2 SWAP1 PUSH2 0x44FC JUMP JUMPDEST PUSH1 0x40 MLOAD DUP1 SWAP2 SUB SWAP1 REVERT JUMPDEST PUSH2 0x2600 DUP3 PUSH0 DUP4 PUSH2 0x2A6E JUMP JUMPDEST POP POP JUMP JUMPDEST PUSH0 PUSH2 0x260E DUP3 PUSH2 0x3437 JUMP JUMPDEST SWAP1 POP SWAP2 SWAP1 POP JUMP JUMPDEST PUSH2 0x261D PUSH2 0x1ED2 JUMP JUMPDEST PUSH1 0x1 PUSH1 0x8 PUSH0 PUSH2 0x100 EXP DUP2 SLOAD DUP2 PUSH1 0xFF MUL NOT AND SWAP1 DUP4 ISZERO ISZERO MUL OR SWAP1 SSTORE POP PUSH32 0x62E78CEA01BEE320CD4E420270B5EA74000D11B0C9F74754EBDBFC544B05A258 PUSH2 0x2660 PUSH2 0x1CF0 JUMP JUMPDEST PUSH1 0x40 MLOAD PUSH2 0x266D SWAP2 SWAP1 PUSH2 0x44FC JUMP JUMPDEST PUSH1 0x40 MLOAD DUP1 SWAP2 SUB SWAP1 LOG1 JUMP JUMPDEST PUSH1 0x60 PUSH2 0x26AD PUSH1 0x5 PUSH32 0x0 PUSH2 0x347D SWAP1 SWAP2 SWAP1 PUSH4 0xFFFFFFFF AND JUMP JUMPDEST SWAP1 POP SWAP1 JUMP JUMPDEST PUSH1 0x60 PUSH2 0x26E8 PUSH1 0x6 PUSH32 0x0 PUSH2 0x347D SWAP1 SWAP2 SWAP1 PUSH4 0xFFFFFFFF AND JUMP JUMPDEST SWAP1 POP SWAP1 JUMP JUMPDEST PUSH0 PUSH0 DUP3 PUSH0 ADD DUP1 SLOAD SWAP1 POP SWAP1 POP PUSH0 DUP2 EQ PUSH2 0x2745 JUMPI PUSH2 0x2717 DUP4 PUSH0 ADD PUSH1 0x1 DUP4 PUSH2 0x2712 SWAP2 SWAP1 PUSH2 0x4BA1 JUMP JUMPDEST PUSH2 0x2FC6 JUMP JUMPDEST PUSH0 ADD PUSH1 0x6 SWAP1 SLOAD SWAP1 PUSH2 0x100 EXP SWAP1 DIV PUSH26 0xFFFFFFFFFFFFFFFFFFFFFFFFFFFFFFFFFFFFFFFFFFFFFFFFFFFF AND PUSH2 0x2747 JUMP JUMPDEST PUSH0 JUMPDEST SWAP2 POP POP SWAP2 SWAP1 POP JUMP JUMPDEST PUSH0 PUSH2 0x2761 PUSH2 0x275B PUSH2 0x1FFD JUMP JUMPDEST DUP4 PUSH2 0x352A JUMP JUMPDEST SWAP1 POP SWAP2 SWAP1 POP JUMP JUMPDEST PUSH0 PUSH0 PUSH0 PUSH0 PUSH2 0x2778 DUP9 DUP9 DUP9 DUP9 PUSH2 0x356A JUMP JUMPDEST SWAP3 POP SWAP3 POP SWAP3 POP PUSH2 0x2788 DUP3 DUP3 PUSH2 0x3651 JUMP JUMPDEST DUP3 SWAP4 POP POP POP POP SWAP5 SWAP4 POP POP POP POP JUMP JUMPDEST PUSH0 PUSH2 0x27A0 DUP4 PUSH2 0x27ED JUMP JUMPDEST SWAP1 POP DUP1 DUP3 EQ PUSH2 0x27E8 JUMPI DUP3 DUP2 PUSH1 0x40 MLOAD PUSH32 0x752D88C000000000000000000000000000000000000000000000000000000000 DUP2 MSTORE PUSH1 0x4 ADD PUSH2 0x27DF SWAP3 SWAP2 SWAP1 PUSH2 0x508E JUMP JUMPDEST PUSH1 0x40 MLOAD DUP1 SWAP2 SUB SWAP1 REVERT JUMPDEST POP POP POP JUMP JUMPDEST PUSH0 PUSH1 0x7 PUSH0 DUP4 PUSH20 0xFFFFFFFFFFFFFFFFFFFFFFFFFFFFFFFFFFFFFFFF AND PUSH20 0xFFFFFFFFFFFFFFFFFFFFFFFFFFFFFFFFFFFFFFFF AND DUP2 MSTORE PUSH1 0x20 ADD SWAP1 DUP2 MSTORE PUSH1 0x20 ADD PUSH0 KECCAK256 PUSH0 DUP2 SLOAD DUP1 SWAP3 SWAP2 SWAP1 PUSH1 0x1 ADD SWAP2 SWAP1 POP SSTORE SWAP1 POP SWAP2 SWAP1 POP JUMP JUMPDEST PUSH2 0x2848 PUSH2 0x41EC JUMP JUMPDEST PUSH2 0x2897 DUP3 PUSH1 0xA PUSH0 DUP7 PUSH20 0xFFFFFFFFFFFFFFFFFFFFFFFFFFFFFFFFFFFFFFFF AND PUSH20 0xFFFFFFFFFFFFFFFFFFFFFFFFFFFFFFFFFFFFFFFF AND DUP2 MSTORE PUSH1 0x20 ADD SWAP1 DUP2 MSTORE PUSH1 0x20 ADD PUSH0 KECCAK256 PUSH2 0x37B3 SWAP1 SWAP2 SWAP1 PUSH4 0xFFFFFFFF AND JUMP JUMPDEST SWAP1 POP SWAP3 SWAP2 POP POP JUMP JUMPDEST PUSH0 PUSH20 0xFFFFFFFFFFFFFFFFFFFFFFFFFFFFFFFFFFFFFFFF AND DUP5 PUSH20 0xFFFFFFFFFFFFFFFFFFFFFFFFFFFFFFFFFFFFFFFF AND SUB PUSH2 0x290F JUMPI PUSH0 PUSH1 0x40 MLOAD PUSH32 0xE602DF0500000000000000000000000000000000000000000000000000000000 DUP2 MSTORE PUSH1 0x4 ADD PUSH2 0x2906 SWAP2 SWAP1 PUSH2 0x44FC JUMP JUMPDEST PUSH1 0x40 MLOAD DUP1 SWAP2 SUB SWAP1 REVERT JUMPDEST PUSH0 PUSH20 0xFFFFFFFFFFFFFFFFFFFFFFFFFFFFFFFFFFFFFFFF AND DUP4 PUSH20 0xFFFFFFFFFFFFFFFFFFFFFFFFFFFFFFFFFFFFFFFF AND SUB PUSH2 0x297F JUMPI PUSH0 PUSH1 0x40 MLOAD PUSH32 0x94280D6200000000000000000000000000000000000000000000000000000000 DUP2 MSTORE PUSH1 0x4 ADD PUSH2 0x2976 SWAP2 SWAP1 PUSH2 0x44FC JUMP JUMPDEST PUSH1 0x40 MLOAD DUP1 SWAP2 SUB SWAP1 REVERT JUMPDEST DUP2 PUSH1 0x1 PUSH0 DUP7 PUSH20 0xFFFFFFFFFFFFFFFFFFFFFFFFFFFFFFFFFFFFFFFF AND PUSH20 0xFFFFFFFFFFFFFFFFFFFFFFFFFFFFFFFFFFFFFFFF AND DUP2 MSTORE PUSH1 0x20 ADD SWAP1 DUP2 MSTORE PUSH1 0x20 ADD PUSH0 KECCAK256 PUSH0 DUP6 PUSH20 0xFFFFFFFFFFFFFFFFFFFFFFFFFFFFFFFFFFFFFFFF AND PUSH20 0xFFFFFFFFFFFFFFFFFFFFFFFFFFFFFFFFFFFFFFFF AND DUP2 MSTORE PUSH1 0x20 ADD SWAP1 DUP2 MSTORE PUSH1 0x20 ADD PUSH0 KECCAK256 DUP2 SWAP1 SSTORE POP DUP1 ISZERO PUSH2 0x2A68 JUMPI DUP3 PUSH20 0xFFFFFFFFFFFFFFFFFFFFFFFFFFFFFFFFFFFFFFFF AND DUP5 PUSH20 0xFFFFFFFFFFFFFFFFFFFFFFFFFFFFFFFFFFFFFFFF AND PUSH32 0x8C5BE1E5EBEC7D5BD14F71427D1E84F3DD0314C0F7B2291E5B200AC8C7C3B925 DUP5 PUSH1 0x40 MLOAD PUSH2 0x2A5F SWAP2 SWAP1 PUSH2 0x43C9 JUMP JUMPDEST PUSH1 0x40 MLOAD DUP1 SWAP2 SUB SWAP1 LOG3 JUMPDEST POP POP POP POP JUMP JUMPDEST PUSH2 0x2A76 PUSH2 0x1098 JUMP JUMPDEST ISZERO PUSH2 0x2AB6 JUMPI PUSH1 0x40 MLOAD PUSH32 0x8C379A000000000000000000000000000000000000000000000000000000000 DUP2 MSTORE PUSH1 0x4 ADD PUSH2 0x2AAD SWAP1 PUSH2 0x50FF JUMP JUMPDEST PUSH1 0x40 MLOAD DUP1 SWAP2 SUB SWAP1 REVERT JUMPDEST PUSH2 0x2ABE PUSH2 0x3882 JUMP JUMPDEST PUSH1 0x11 PUSH0 DUP5 PUSH20 0xFFFFFFFFFFFFFFFFFFFFFFFFFFFFFFFFFFFFFFFF AND PUSH20 0xFFFFFFFFFFFFFFFFFFFFFFFFFFFFFFFFFFFFFFFF AND DUP2 MSTORE PUSH1 0x20 ADD SWAP1 DUP2 MSTORE PUSH1 0x20 ADD PUSH0 KECCAK256 PUSH0 SWAP1 SLOAD SWAP1 PUSH2 0x100 EXP SWAP1 DIV PUSH1 0xFF AND DUP1 PUSH2 0x2B59 JUMPI POP PUSH1 0x11 PUSH0 DUP4 PUSH20 0xFFFFFFFFFFFFFFFFFFFFFFFFFFFFFFFFFFFFFFFF AND PUSH20 0xFFFFFFFFFFFFFFFFFFFFFFFFFFFFFFFFFFFFFFFF AND DUP2 MSTORE PUSH1 0x20 ADD SWAP1 DUP2 MSTORE PUSH1 0x20 ADD PUSH0 KECCAK256 PUSH0 SWAP1 SLOAD SWAP1 PUSH2 0x100 EXP SWAP1 DIV PUSH1 0xFF AND JUMPDEST DUP1 PUSH2 0x2B8F JUMPI POP PUSH0 PUSH20 0xFFFFFFFFFFFFFFFFFFFFFFFFFFFFFFFFFFFFFFFF AND DUP4 PUSH20 0xFFFFFFFFFFFFFFFFFFFFFFFFFFFFFFFFFFFFFFFF AND EQ JUMPDEST DUP1 PUSH2 0x2BC5 JUMPI POP PUSH0 PUSH20 0xFFFFFFFFFFFFFFFFFFFFFFFFFFFFFFFFFFFFFFFF AND DUP3 PUSH20 0xFFFFFFFFFFFFFFFFFFFFFFFFFFFFFFFFFFFFFFFF AND EQ JUMPDEST ISZERO PUSH2 0x2BDA JUMPI PUSH2 0x2BD5 DUP4 DUP4 DUP4 PUSH2 0x395D JUMP JUMPDEST PUSH2 0x2D39 JUMP JUMPDEST PUSH0 PUSH2 0x3E8 PUSH1 0x12 SLOAD DUP4 PUSH2 0x2BEC SWAP2 SWAP1 PUSH2 0x4DFB JUMP JUMPDEST PUSH2 0x2BF6 SWAP2 SWAP1 PUSH2 0x4E69 JUMP JUMPDEST SWAP1 POP PUSH0 PUSH1 0x64 PUSH1 0x14 DUP4 PUSH2 0x2C08 SWAP2 SWAP1 PUSH2 0x4DFB JUMP JUMPDEST PUSH2 0x2C12 SWAP2 SWAP1 PUSH2 0x4E69 JUMP JUMPDEST SWAP1 POP PUSH0 PUSH1 0x64 PUSH1 0x32 DUP5 PUSH2 0x2C24 SWAP2 SWAP1 PUSH2 0x4DFB JUMP JUMPDEST PUSH2 0x2C2E SWAP2 SWAP1 PUSH2 0x4E69 JUMP JUMPDEST SWAP1 POP PUSH0 DUP2 DUP4 DUP6 PUSH2 0x2C3E SWAP2 SWAP1 PUSH2 0x4BA1 JUMP JUMPDEST PUSH2 0x2C48 SWAP2 SWAP1 PUSH2 0x4BA1 JUMP JUMPDEST SWAP1 POP PUSH0 DUP5 DUP7 PUSH2 0x2C57 SWAP2 SWAP1 PUSH2 0x4BA1 JUMP JUMPDEST SWAP1 POP PUSH0 DUP5 GT ISZERO PUSH2 0x2C6C JUMPI PUSH2 0x2C6B DUP9 DUP6 PUSH2 0x2585 JUMP JUMPDEST JUMPDEST PUSH0 DUP4 GT ISZERO PUSH2 0x2C8D JUMPI DUP3 PUSH1 0x17 PUSH0 DUP3 DUP3 SLOAD PUSH2 0x2C85 SWAP2 SWAP1 PUSH2 0x4BD4 JUMP JUMPDEST SWAP3 POP POP DUP2 SWAP1 SSTORE POP JUMPDEST PUSH0 DUP3 GT ISZERO PUSH2 0x2CC2 JUMPI PUSH2 0x2CC1 DUP9 PUSH1 0x10 PUSH0 SWAP1 SLOAD SWAP1 PUSH2 0x100 EXP SWAP1 DIV PUSH20 0xFFFFFFFFFFFFFFFFFFFFFFFFFFFFFFFFFFFFFFFF AND DUP5 PUSH2 0x395D JUMP JUMPDEST JUMPDEST PUSH2 0x2CCD DUP9 DUP9 DUP4 PUSH2 0x395D JUMP JUMPDEST PUSH2 0x2CD6 DUP9 PUSH2 0x1F13 JUMP JUMPDEST PUSH2 0x2CDF DUP8 PUSH2 0x1F13 JUMP JUMPDEST DUP8 PUSH20 0xFFFFFFFFFFFFFFFFFFFFFFFFFFFFFFFFFFFFFFFF AND PUSH32 0x21A7B6B5AC599135CF56546D5F241513068AB2CD71844C3BB1205C40930E4DD6 DUP7 DUP7 DUP7 DUP7 PUSH1 0x40 MLOAD PUSH2 0x2D2B SWAP5 SWAP4 SWAP3 SWAP2 SWAP1 PUSH2 0x511D JUMP JUMPDEST PUSH1 0x40 MLOAD DUP1 SWAP2 SUB SWAP1 LOG2 POP POP POP POP POP JUMPDEST POP POP POP JUMP JUMPDEST PUSH0 PUSH32 0x8B73C3C69BB8FE3D512ECC4CF759CC79239F7B179B0FFACAA9A75D522B39400F PUSH32 0x0 PUSH32 0x0 CHAINID ADDRESS PUSH1 0x40 MLOAD PUSH1 0x20 ADD PUSH2 0x2DB8 SWAP6 SWAP5 SWAP4 SWAP3 SWAP2 SWAP1 PUSH2 0x5160 JUMP JUMPDEST PUSH1 0x40 MLOAD PUSH1 0x20 DUP2 DUP4 SUB SUB DUP2 MSTORE SWAP1 PUSH1 0x40 MSTORE DUP1 MLOAD SWAP1 PUSH1 0x20 ADD KECCAK256 SWAP1 POP SWAP1 JUMP JUMPDEST PUSH0 PUSH6 0xFFFFFFFFFFFF DUP1 AND DUP3 GT ISZERO PUSH2 0x2E24 JUMPI PUSH1 0x30 DUP3 PUSH1 0x40 MLOAD PUSH32 0x6DFCC65000000000000000000000000000000000000000000000000000000000 DUP2 MSTORE PUSH1 0x4 ADD PUSH2 0x2E1B SWAP3 SWAP2 SWAP1 PUSH2 0x51F3 JUMP JUMPDEST PUSH1 0x40 MLOAD DUP1 SWAP2 SUB SWAP1 REVERT JUMPDEST DUP2 SWAP1 POP SWAP2 SWAP1 POP JUMP JUMPDEST PUSH0 PUSH1 0x1 DUP3 GT PUSH2 0x2E3D JUMPI DUP2 SWAP1 POP PUSH2 0x2FC1 JUMP JUMPDEST PUSH0 DUP3 SWAP1 POP PUSH0 PUSH1 0x1 SWAP1 POP PUSH17 0x100000000000000000000000000000000 DUP3 LT PUSH2 0x2E6D JUMPI PUSH1 0x80 DUP3 SWAP1 SHR SWAP2 POP PUSH1 0x40 DUP2 SWAP1 SHL SWAP1 POP JUMPDEST PUSH9 0x10000000000000000 DUP3 LT PUSH2 0x2E8C JUMPI PUSH1 0x40 DUP3 SWAP1 SHR SWAP2 POP PUSH1 0x20 DUP2 SWAP1 SHL SWAP1 POP JUMPDEST PUSH5 0x100000000 DUP3 LT PUSH2 0x2EA7 JUMPI PUSH1 0x20 DUP3 SWAP1 SHR SWAP2 POP PUSH1 0x10 DUP2 SWAP1 SHL SWAP1 POP JUMPDEST PUSH3 0x10000 DUP3 LT PUSH2 0x2EC0 JUMPI PUSH1 0x10 DUP3 SWAP1 SHR SWAP2 POP PUSH1 0x8 DUP2 SWAP1 SHL SWAP1 POP JUMPDEST PUSH2 0x100 DUP3 LT PUSH2 0x2ED8 JUMPI PUSH1 0x8 DUP3 SWAP1 SHR SWAP2 POP PUSH1 0x4 DUP2 SWAP1 SHL SWAP1 POP JUMPDEST PUSH1 0x10 DUP3 LT PUSH2 0x2EEF JUMPI PUSH1 0x4 DUP3 SWAP1 SHR SWAP2 POP PUSH1 0x2 DUP2 SWAP1 SHL SWAP1 POP JUMPDEST PUSH1 0x4 DUP3 LT PUSH2 0x2EFF JUMPI PUSH1 0x1 DUP2 SWAP1 SHL SWAP1 POP JUMPDEST PUSH1 0x1 DUP2 PUSH1 0x3 MUL SWAP1 SHR SWAP1 POP PUSH1 0x1 DUP2 DUP6 DUP2 PUSH2 0x2F1B JUMPI PUSH2 0x2F1A PUSH2 0x4E3C JUMP JUMPDEST JUMPDEST DIV DUP3 ADD SWAP1 SHR SWAP1 POP PUSH1 0x1 DUP2 DUP6 DUP2 PUSH2 0x2F34 JUMPI PUSH2 0x2F33 PUSH2 0x4E3C JUMP JUMPDEST JUMPDEST DIV DUP3 ADD SWAP1 SHR SWAP1 POP PUSH1 0x1 DUP2 DUP6 DUP2 PUSH2 0x2F4D JUMPI PUSH2 0x2F4C PUSH2 0x4E3C JUMP JUMPDEST JUMPDEST DIV DUP3 ADD SWAP1 SHR SWAP1 POP PUSH1 0x1 DUP2 DUP6 DUP2 PUSH2 0x2F66 JUMPI PUSH2 0x2F65 PUSH2 0x4E3C JUMP JUMPDEST JUMPDEST DIV DUP3 ADD SWAP1 SHR SWAP1 POP PUSH1 0x1 DUP2 DUP6 DUP2 PUSH2 0x2F7F JUMPI PUSH2 0x2F7E PUSH2 0x4E3C JUMP JUMPDEST JUMPDEST DIV DUP3 ADD SWAP1 SHR SWAP1 POP PUSH1 0x1 DUP2 DUP6 DUP2 PUSH2 0x2F98 JUMPI PUSH2 0x2F97 PUSH2 0x4E3C JUMP JUMPDEST JUMPDEST DIV DUP3 ADD SWAP1 SHR SWAP1 POP PUSH2 0x2FBA DUP2 DUP6 DUP2 PUSH2 0x2FB2 JUMPI PUSH2 0x2FB1 PUSH2 0x4E3C JUMP JUMPDEST JUMPDEST DIV DUP3 GT PUSH2 0x3A0B JUMP JUMPDEST DUP2 SUB SWAP3 POP POP POP JUMPDEST SWAP2 SWAP1 POP JUMP JUMPDEST PUSH0 DUP3 PUSH0 MSTORE DUP2 PUSH1 0x20 PUSH0 KECCAK256 ADD SWAP1 POP SWAP3 SWAP2 POP POP JUMP JUMPDEST PUSH0 JUMPDEST DUP2 DUP4 LT ISZERO PUSH2 0x3042 JUMPI PUSH0 PUSH2 0x2FED DUP5 DUP5 PUSH2 0x3A16 JUMP JUMPDEST SWAP1 POP DUP5 PUSH6 0xFFFFFFFFFFFF AND PUSH2 0x3002 DUP8 DUP4 PUSH2 0x2FC6 JUMP JUMPDEST PUSH0 ADD PUSH0 SWAP1 SLOAD SWAP1 PUSH2 0x100 EXP SWAP1 DIV PUSH6 0xFFFFFFFFFFFF AND PUSH6 0xFFFFFFFFFFFF AND GT ISZERO PUSH2 0x302C JUMPI DUP1 SWAP3 POP PUSH2 0x303C JUMP JUMPDEST PUSH1 0x1 DUP2 PUSH2 0x3039 SWAP2 SWAP1 PUSH2 0x4BD4 JUMP JUMPDEST SWAP4 POP JUMPDEST POP PUSH2 0x2FDA JUMP JUMPDEST DUP2 SWAP1 POP SWAP5 SWAP4 POP POP POP POP JUMP JUMPDEST PUSH2 0x3055 PUSH2 0x1098 JUMP JUMPDEST PUSH2 0x308B JUMPI PUSH1 0x40 MLOAD PUSH32 0x8DFC202B00000000000000000000000000000000000000000000000000000000 DUP2 MSTORE PUSH1 0x4 ADD PUSH1 0x40 MLOAD DUP1 SWAP2 SUB SWAP1 REVERT JUMPDEST JUMP JUMPDEST PUSH0 PUSH2 0x3097 DUP3 PUSH2 0x112E JUMP JUMPDEST SWAP1 POP SWAP2 SWAP1 POP JUMP JUMPDEST DUP2 PUSH20 0xFFFFFFFFFFFFFFFFFFFFFFFFFFFFFFFFFFFFFFFF AND DUP4 PUSH20 0xFFFFFFFFFFFFFFFFFFFFFFFFFFFFFFFFFFFFFFFF AND EQ ISZERO DUP1 ISZERO PUSH2 0x30D9 JUMPI POP PUSH0 DUP2 GT JUMPDEST ISZERO PUSH2 0x3309 JUMPI PUSH0 PUSH20 0xFFFFFFFFFFFFFFFFFFFFFFFFFFFFFFFFFFFFFFFF AND DUP4 PUSH20 0xFFFFFFFFFFFFFFFFFFFFFFFFFFFFFFFFFFFFFFFF AND EQ PUSH2 0x31F3 JUMPI PUSH0 PUSH0 PUSH2 0x3164 PUSH1 0xA PUSH0 DUP8 PUSH20 0xFFFFFFFFFFFFFFFFFFFFFFFFFFFFFFFFFFFFFFFF AND PUSH20 0xFFFFFFFFFFFFFFFFFFFFFFFFFFFFFFFFFFFFFFFF AND DUP2 MSTORE PUSH1 0x20 ADD SWAP1 DUP2 MSTORE PUSH1 0x20 ADD PUSH0 KECCAK256 PUSH2 0x3A3B PUSH2 0x315F DUP7 PUSH2 0x3A50 JUMP JUMPDEST PUSH2 0x3ABD JUMP JUMPDEST PUSH26 0xFFFFFFFFFFFFFFFFFFFFFFFFFFFFFFFFFFFFFFFFFFFFFFFFFFFF AND SWAP2 POP PUSH26 0xFFFFFFFFFFFFFFFFFFFFFFFFFFFFFFFFFFFFFFFFFFFFFFFFFFFF AND SWAP2 POP DUP5 PUSH20 0xFFFFFFFFFFFFFFFFFFFFFFFFFFFFFFFFFFFFFFFF AND PUSH32 0xDEC2BACDD2F05B59DE34DA9B523DFF8BE42E5E38E818C82FDB0BAE774387A724 DUP4 DUP4 PUSH1 0x40 MLOAD PUSH2 0x31E8 SWAP3 SWAP2 SWAP1 PUSH2 0x4D04 JUMP JUMPDEST PUSH1 0x40 MLOAD DUP1 SWAP2 SUB SWAP1 LOG2 POP POP JUMPDEST PUSH0 PUSH20 0xFFFFFFFFFFFFFFFFFFFFFFFFFFFFFFFFFFFFFFFF AND DUP3 PUSH20 0xFFFFFFFFFFFFFFFFFFFFFFFFFFFFFFFFFFFFFFFF AND EQ PUSH2 0x3308 JUMPI PUSH0 PUSH0 PUSH2 0x3279 PUSH1 0xA PUSH0 DUP7 PUSH20 0xFFFFFFFFFFFFFFFFFFFFFFFFFFFFFFFFFFFFFFFF AND PUSH20 0xFFFFFFFFFFFFFFFFFFFFFFFFFFFFFFFFFFFFFFFF AND DUP2 MSTORE PUSH1 0x20 ADD SWAP1 DUP2 MSTORE PUSH1 0x20 ADD PUSH0 KECCAK256 PUSH2 0x3AFC PUSH2 0x3274 DUP7 PUSH2 0x3A50 JUMP JUMPDEST PUSH2 0x3ABD JUMP JUMPDEST PUSH26 0xFFFFFFFFFFFFFFFFFFFFFFFFFFFFFFFFFFFFFFFFFFFFFFFFFFFF AND SWAP2 POP PUSH26 0xFFFFFFFFFFFFFFFFFFFFFFFFFFFFFFFFFFFFFFFFFFFFFFFFFFFF AND SWAP2 POP DUP4 PUSH20 0xFFFFFFFFFFFFFFFFFFFFFFFFFFFFFFFFFFFFFFFF AND PUSH32 0xDEC2BACDD2F05B59DE34DA9B523DFF8BE42E5E38E818C82FDB0BAE774387A724 DUP4 DUP4 PUSH1 0x40 MLOAD PUSH2 0x32FD SWAP3 SWAP2 SWAP1 PUSH2 0x4D04 JUMP JUMPDEST PUSH1 0x40 MLOAD DUP1 SWAP2 SUB SWAP1 LOG2 POP POP JUMPDEST JUMPDEST POP POP POP JUMP JUMPDEST PUSH0 DUP2 PUSH0 ADD DUP1 SLOAD SWAP1 POP SWAP1 POP SWAP2 SWAP1 POP JUMP JUMPDEST PUSH0 PUSH4 0xFFFFFFFF DUP1 AND DUP3 GT ISZERO PUSH2 0x336C JUMPI PUSH1 0x20 DUP3 PUSH1 0x40 MLOAD PUSH32 0x6DFCC65000000000000000000000000000000000000000000000000000000000 DUP2 MSTORE PUSH1 0x4 ADD PUSH2 0x3363 SWAP3 SWAP2 SWAP1 PUSH2 0x5253 JUMP JUMPDEST PUSH1 0x40 MLOAD DUP1 SWAP2 SUB SWAP1 REVERT JUMPDEST DUP2 SWAP1 POP SWAP2 SWAP1 POP JUMP JUMPDEST PUSH0 PUSH1 0xC PUSH0 SWAP1 SLOAD SWAP1 PUSH2 0x100 EXP SWAP1 DIV PUSH20 0xFFFFFFFFFFFFFFFFFFFFFFFFFFFFFFFFFFFFFFFF AND SWAP1 POP DUP2 PUSH1 0xC PUSH0 PUSH2 0x100 EXP DUP2 SLOAD DUP2 PUSH20 0xFFFFFFFFFFFFFFFFFFFFFFFFFFFFFFFFFFFFFFFF MUL NOT AND SWAP1 DUP4 PUSH20 0xFFFFFFFFFFFFFFFFFFFFFFFFFFFFFFFFFFFFFFFF AND MUL OR SWAP1 SSTORE POP DUP2 PUSH20 0xFFFFFFFFFFFFFFFFFFFFFFFFFFFFFFFFFFFFFFFF AND DUP2 PUSH20 0xFFFFFFFFFFFFFFFFFFFFFFFFFFFFFFFFFFFFFFFF AND PUSH32 0x8BE0079C531659141344CD1FD0A4F28419497F9722A3DAAFE3B4186F6B6457E0 PUSH1 0x40 MLOAD PUSH1 0x40 MLOAD DUP1 SWAP2 SUB SWAP1 LOG3 POP POP JUMP JUMPDEST PUSH0 PUSH1 0x7 PUSH0 DUP4 PUSH20 0xFFFFFFFFFFFFFFFFFFFFFFFFFFFFFFFFFFFFFFFF AND PUSH20 0xFFFFFFFFFFFFFFFFFFFFFFFFFFFFFFFFFFFFFFFF AND DUP2 MSTORE PUSH1 0x20 ADD SWAP1 DUP2 MSTORE PUSH1 0x20 ADD PUSH0 KECCAK256 SLOAD SWAP1 POP SWAP2 SWAP1 POP JUMP JUMPDEST PUSH1 0x60 PUSH1 0xFF PUSH0 SHL DUP4 EQ PUSH2 0x3499 JUMPI PUSH2 0x3492 DUP4 PUSH2 0x3B11 JUMP JUMPDEST SWAP1 POP PUSH2 0x3524 JUMP JUMPDEST DUP2 DUP1 SLOAD PUSH2 0x34A5 SWAP1 PUSH2 0x4A74 JUMP JUMPDEST DUP1 PUSH1 0x1F ADD PUSH1 0x20 DUP1 SWAP2 DIV MUL PUSH1 0x20 ADD PUSH1 0x40 MLOAD SWAP1 DUP2 ADD PUSH1 0x40 MSTORE DUP1 SWAP3 SWAP2 SWAP1 DUP2 DUP2 MSTORE PUSH1 0x20 ADD DUP3 DUP1 SLOAD PUSH2 0x34D1 SWAP1 PUSH2 0x4A74 JUMP JUMPDEST DUP1 ISZERO PUSH2 0x351C JUMPI DUP1 PUSH1 0x1F LT PUSH2 0x34F3 JUMPI PUSH2 0x100 DUP1 DUP4 SLOAD DIV MUL DUP4 MSTORE SWAP2 PUSH1 0x20 ADD SWAP2 PUSH2 0x351C JUMP JUMPDEST DUP3 ADD SWAP2 SWAP1 PUSH0 MSTORE PUSH1 0x20 PUSH0 KECCAK256 SWAP1 JUMPDEST DUP2 SLOAD DUP2 MSTORE SWAP1 PUSH1 0x1 ADD SWAP1 PUSH1 0x20 ADD DUP1 DUP4 GT PUSH2 0x34FF JUMPI DUP3 SWAP1 SUB PUSH1 0x1F AND DUP3 ADD SWAP2 JUMPDEST POP POP POP POP POP SWAP1 POP JUMPDEST SWAP3 SWAP2 POP POP JUMP JUMPDEST PUSH0 PUSH1 0x40 MLOAD PUSH32 0x1901000000000000000000000000000000000000000000000000000000000000 DUP2 MSTORE DUP4 PUSH1 0x2 DUP3 ADD MSTORE DUP3 PUSH1 0x22 DUP3 ADD MSTORE PUSH1 0x42 DUP2 KECCAK256 SWAP2 POP POP SWAP3 SWAP2 POP POP JUMP JUMPDEST PUSH0 PUSH0 PUSH0 PUSH32 0x7FFFFFFFFFFFFFFFFFFFFFFFFFFFFFFF5D576E7357A4501DDFE92F46681B20A0 DUP5 PUSH0 SHR GT ISZERO PUSH2 0x35A6 JUMPI PUSH0 PUSH1 0x3 DUP6 SWAP3 POP SWAP3 POP SWAP3 POP PUSH2 0x3647 JUMP JUMPDEST PUSH0 PUSH1 0x1 DUP9 DUP9 DUP9 DUP9 PUSH1 0x40 MLOAD PUSH0 DUP2 MSTORE PUSH1 0x20 ADD PUSH1 0x40 MSTORE PUSH1 0x40 MLOAD PUSH2 0x35C9 SWAP5 SWAP4 SWAP3 SWAP2 SWAP1 PUSH2 0x527A JUMP JUMPDEST PUSH1 0x20 PUSH1 0x40 MLOAD PUSH1 0x20 DUP2 SUB SWAP1 DUP1 DUP5 SUB SWAP1 DUP6 GAS STATICCALL ISZERO DUP1 ISZERO PUSH2 0x35E9 JUMPI RETURNDATASIZE PUSH0 PUSH0 RETURNDATACOPY RETURNDATASIZE PUSH0 REVERT JUMPDEST POP POP POP PUSH1 0x20 PUSH1 0x40 MLOAD SUB MLOAD SWAP1 POP PUSH0 PUSH20 0xFFFFFFFFFFFFFFFFFFFFFFFFFFFFFFFFFFFFFFFF AND DUP2 PUSH20 0xFFFFFFFFFFFFFFFFFFFFFFFFFFFFFFFFFFFFFFFF AND SUB PUSH2 0x363A JUMPI PUSH0 PUSH1 0x1 PUSH0 PUSH0 SHL SWAP4 POP SWAP4 POP SWAP4 POP POP PUSH2 0x3647 JUMP JUMPDEST DUP1 PUSH0 PUSH0 PUSH0 SHL SWAP4 POP SWAP4 POP SWAP4 POP POP JUMPDEST SWAP5 POP SWAP5 POP SWAP5 SWAP2 POP POP JUMP JUMPDEST PUSH0 PUSH1 0x3 DUP2 GT ISZERO PUSH2 0x3664 JUMPI PUSH2 0x3663 PUSH2 0x52BD JUMP JUMPDEST JUMPDEST DUP3 PUSH1 0x3 DUP2 GT ISZERO PUSH2 0x3677 JUMPI PUSH2 0x3676 PUSH2 0x52BD JUMP JUMPDEST JUMPDEST SUB ISZERO PUSH2 0x37AF JUMPI PUSH1 0x1 PUSH1 0x3 DUP2 GT ISZERO PUSH2 0x3691 JUMPI PUSH2 0x3690 PUSH2 0x52BD JUMP JUMPDEST JUMPDEST DUP3 PUSH1 0x3 DUP2 GT ISZERO PUSH2 0x36A4 JUMPI PUSH2 0x36A3 PUSH2 0x52BD JUMP JUMPDEST JUMPDEST SUB PUSH2 0x36DB JUMPI PUSH1 0x40 MLOAD PUSH32 0xF645EEDF00000000000000000000000000000000000000000000000000000000 DUP2 MSTORE PUSH1 0x4 ADD PUSH1 0x40 MLOAD DUP1 SWAP2 SUB SWAP1 REVERT JUMPDEST PUSH1 0x2 PUSH1 0x3 DUP2 GT ISZERO PUSH2 0x36EF JUMPI PUSH2 0x36EE PUSH2 0x52BD JUMP JUMPDEST JUMPDEST DUP3 PUSH1 0x3 DUP2 GT ISZERO PUSH2 0x3702 JUMPI PUSH2 0x3701 PUSH2 0x52BD JUMP JUMPDEST JUMPDEST SUB PUSH2 0x3746 JUMPI DUP1 PUSH0 SHR PUSH1 0x40 MLOAD PUSH32 0xFCE698F700000000000000000000000000000000000000000000000000000000 DUP2 MSTORE PUSH1 0x4 ADD PUSH2 0x373D SWAP2 SWAP1 PUSH2 0x43C9 JUMP JUMPDEST PUSH1 0x40 MLOAD DUP1 SWAP2 SUB SWAP1 REVERT JUMPDEST PUSH1 0x3 DUP1 DUP2 GT ISZERO PUSH2 0x3759 JUMPI PUSH2 0x3758 PUSH2 0x52BD JUMP JUMPDEST JUMPDEST DUP3 PUSH1 0x3 DUP2 GT ISZERO PUSH2 0x376C JUMPI PUSH2 0x376B PUSH2 0x52BD JUMP JUMPDEST JUMPDEST SUB PUSH2 0x37AE JUMPI DUP1 PUSH1 0x40 MLOAD PUSH32 0xD78BCE0C00000000000000000000000000000000000000000000000000000000 DUP2 MSTORE PUSH1 0x4 ADD PUSH2 0x37A5 SWAP2 SWAP1 PUSH2 0x44A9 JUMP JUMPDEST PUSH1 0x40 MLOAD DUP1 SWAP2 SUB SWAP1 REVERT JUMPDEST JUMPDEST POP POP JUMP JUMPDEST PUSH2 0x37BB PUSH2 0x41EC JUMP JUMPDEST DUP3 PUSH0 ADD DUP3 PUSH4 0xFFFFFFFF AND DUP2 SLOAD DUP2 LT PUSH2 0x37D6 JUMPI PUSH2 0x37D5 PUSH2 0x52EA JUMP JUMPDEST JUMPDEST SWAP1 PUSH0 MSTORE PUSH1 0x20 PUSH0 KECCAK256 ADD PUSH1 0x40 MLOAD DUP1 PUSH1 0x40 ADD PUSH1 0x40 MSTORE SWAP1 DUP2 PUSH0 DUP3 ADD PUSH0 SWAP1 SLOAD SWAP1 PUSH2 0x100 EXP SWAP1 DIV PUSH6 0xFFFFFFFFFFFF AND PUSH6 0xFFFFFFFFFFFF AND PUSH6 0xFFFFFFFFFFFF AND DUP2 MSTORE PUSH1 0x20 ADD PUSH0 DUP3 ADD PUSH1 0x6 SWAP1 SLOAD SWAP1 PUSH2 0x100 EXP SWAP1 DIV PUSH26 0xFFFFFFFFFFFFFFFFFFFFFFFFFFFFFFFFFFFFFFFFFFFFFFFFFFFF AND PUSH26 0xFFFFFFFFFFFFFFFFFFFFFFFFFFFFFFFFFFFFFFFFFFFFFFFFFFFF AND PUSH26 0xFFFFFFFFFFFFFFFFFFFFFFFFFFFFFFFFFFFFFFFFFFFFFFFFFFFF AND DUP2 MSTORE POP POP SWAP1 POP SWAP3 SWAP2 POP POP JUMP JUMPDEST PUSH0 PUSH2 0x388B PUSH2 0xB4B JUMP JUMPDEST SUB ISZERO PUSH2 0x395B JUMPI PUSH0 PUSH2 0x389A PUSH2 0xB4B JUMP JUMPDEST PUSH8 0xDE0B6B3A7640000 PUSH1 0x17 SLOAD PUSH2 0x38B0 SWAP2 SWAP1 PUSH2 0x4DFB JUMP JUMPDEST PUSH2 0x38BA SWAP2 SWAP1 PUSH2 0x4E69 JUMP JUMPDEST SWAP1 POP PUSH0 PUSH8 0xDE0B6B3A7640000 DUP3 PUSH1 0x13 SLOAD PUSH1 0x14 SLOAD PUSH2 0x38D7 SWAP2 SWAP1 PUSH2 0x4BA1 JUMP JUMPDEST PUSH2 0x38E1 SWAP2 SWAP1 PUSH2 0x4DFB JUMP JUMPDEST PUSH2 0x38EB SWAP2 SWAP1 PUSH2 0x4E69 JUMP JUMPDEST PUSH1 0x14 SLOAD PUSH2 0x38F8 SWAP2 SWAP1 PUSH2 0x4BA1 JUMP JUMPDEST SWAP1 POP PUSH1 0x13 SLOAD DUP2 LT ISZERO PUSH2 0x390A JUMPI PUSH1 0x13 SLOAD SWAP1 POP JUMPDEST PUSH1 0x14 SLOAD DUP2 GT ISZERO PUSH2 0x391A JUMPI PUSH1 0x14 SLOAD SWAP1 POP JUMPDEST DUP1 PUSH1 0x12 DUP2 SWAP1 SSTORE POP PUSH32 0x64D1887078A96D281ED60DD69BA75BFB6B5CD2CB4C2D2538B2EB7816A4C646EA DUP2 PUSH1 0x40 MLOAD PUSH2 0x3950 SWAP2 SWAP1 PUSH2 0x43C9 JUMP JUMPDEST PUSH1 0x40 MLOAD DUP1 SWAP2 SUB SWAP1 LOG1 POP POP JUMPDEST JUMP JUMPDEST PUSH2 0x3968 DUP4 DUP4 DUP4 PUSH2 0x3B83 JUMP JUMPDEST PUSH0 PUSH20 0xFFFFFFFFFFFFFFFFFFFFFFFFFFFFFFFFFFFFFFFF AND DUP4 PUSH20 0xFFFFFFFFFFFFFFFFFFFFFFFFFFFFFFFFFFFFFFFF AND SUB PUSH2 0x39FB JUMPI PUSH0 PUSH2 0x39A4 PUSH2 0xB4B JUMP JUMPDEST SWAP1 POP PUSH0 PUSH2 0x39AF PUSH2 0x3B9B JUMP JUMPDEST SWAP1 POP DUP1 DUP3 GT ISZERO PUSH2 0x39F8 JUMPI DUP2 DUP2 PUSH1 0x40 MLOAD PUSH32 0x1CB15D2600000000000000000000000000000000000000000000000000000000 DUP2 MSTORE PUSH1 0x4 ADD PUSH2 0x39EF SWAP3 SWAP2 SWAP1 PUSH2 0x4D04 JUMP JUMPDEST PUSH1 0x40 MLOAD DUP1 SWAP2 SUB SWAP1 REVERT JUMPDEST POP POP JUMPDEST PUSH2 0x3A06 DUP4 DUP4 DUP4 PUSH2 0x3BBE JUMP JUMPDEST POP POP POP JUMP JUMPDEST PUSH0 DUP2 ISZERO ISZERO SWAP1 POP SWAP2 SWAP1 POP JUMP JUMPDEST PUSH0 PUSH1 0x2 DUP3 DUP5 XOR PUSH2 0x3A26 SWAP2 SWAP1 PUSH2 0x4E69 JUMP JUMPDEST DUP3 DUP5 AND PUSH2 0x3A33 SWAP2 SWAP1 PUSH2 0x4BD4 JUMP JUMPDEST SWAP1 POP SWAP3 SWAP2 POP POP JUMP JUMPDEST PUSH0 DUP2 DUP4 PUSH2 0x3A48 SWAP2 SWAP1 PUSH2 0x5317 JUMP JUMPDEST SWAP1 POP SWAP3 SWAP2 POP POP JUMP JUMPDEST PUSH0 PUSH26 0xFFFFFFFFFFFFFFFFFFFFFFFFFFFFFFFFFFFFFFFFFFFFFFFFFFFF DUP1 AND DUP3 GT ISZERO PUSH2 0x3AB5 JUMPI PUSH1 0xD0 DUP3 PUSH1 0x40 MLOAD PUSH32 0x6DFCC65000000000000000000000000000000000000000000000000000000000 DUP2 MSTORE PUSH1 0x4 ADD PUSH2 0x3AAC SWAP3 SWAP2 SWAP1 PUSH2 0x539D JUMP JUMPDEST PUSH1 0x40 MLOAD DUP1 SWAP2 SUB SWAP1 REVERT JUMPDEST DUP2 SWAP1 POP SWAP2 SWAP1 POP JUMP JUMPDEST PUSH0 PUSH0 PUSH2 0x3AF0 PUSH2 0x3ACA PUSH2 0x1373 JUMP JUMPDEST PUSH2 0x3AE0 PUSH2 0x3AD6 DUP9 PUSH2 0x26ED JUMP JUMPDEST DUP7 DUP9 PUSH4 0xFFFFFFFF AND JUMP JUMPDEST DUP8 PUSH2 0x3C76 SWAP1 SWAP3 SWAP2 SWAP1 PUSH4 0xFFFFFFFF AND JUMP JUMPDEST SWAP2 POP SWAP2 POP SWAP4 POP SWAP4 SWAP2 POP POP JUMP JUMPDEST PUSH0 DUP2 DUP4 PUSH2 0x3B09 SWAP2 SWAP1 PUSH2 0x53C4 JUMP JUMPDEST SWAP1 POP SWAP3 SWAP2 POP POP JUMP JUMPDEST PUSH1 0x60 PUSH0 PUSH2 0x3B1D DUP4 PUSH2 0x3C91 JUMP JUMPDEST SWAP1 POP PUSH0 PUSH1 0x20 PUSH8 0xFFFFFFFFFFFFFFFF DUP2 GT ISZERO PUSH2 0x3B3B JUMPI PUSH2 0x3B3A PUSH2 0x4C6F JUMP JUMPDEST JUMPDEST PUSH1 0x40 MLOAD SWAP1 DUP1 DUP3 MSTORE DUP1 PUSH1 0x1F ADD PUSH1 0x1F NOT AND PUSH1 0x20 ADD DUP3 ADD PUSH1 0x40 MSTORE DUP1 ISZERO PUSH2 0x3B6D JUMPI DUP2 PUSH1 0x20 ADD PUSH1 0x1 DUP3 MUL DUP1 CALLDATASIZE DUP4 CALLDATACOPY DUP1 DUP3 ADD SWAP2 POP POP SWAP1 POP JUMPDEST POP SWAP1 POP DUP2 DUP2 MSTORE DUP4 PUSH1 0x20 DUP3 ADD MSTORE DUP1 SWAP3 POP POP POP SWAP2 SWAP1 POP JUMP JUMPDEST PUSH2 0x3B8B PUSH2 0x1ED2 JUMP JUMPDEST PUSH2 0x3B96 DUP4 DUP4 DUP4 PUSH2 0x3CDF JUMP JUMPDEST POP POP POP JUMP JUMPDEST PUSH0 PUSH26 0xFFFFFFFFFFFFFFFFFFFFFFFFFFFFFFFFFFFFFFFFFFFFFFFFFFFF DUP1 AND SWAP1 POP SWAP1 JUMP JUMPDEST PUSH0 PUSH20 0xFFFFFFFFFFFFFFFFFFFFFFFFFFFFFFFFFFFFFFFF AND DUP4 PUSH20 0xFFFFFFFFFFFFFFFFFFFFFFFFFFFFFFFFFFFFFFFF AND SUB PUSH2 0x3C0A JUMPI PUSH2 0x3C07 PUSH1 0xB PUSH2 0x3AFC PUSH2 0x3C02 DUP5 PUSH2 0x3A50 JUMP JUMPDEST PUSH2 0x3ABD JUMP JUMPDEST POP POP JUMPDEST PUSH0 PUSH20 0xFFFFFFFFFFFFFFFFFFFFFFFFFFFFFFFFFFFFFFFF AND DUP3 PUSH20 0xFFFFFFFFFFFFFFFFFFFFFFFFFFFFFFFFFFFFFFFF AND SUB PUSH2 0x3C56 JUMPI PUSH2 0x3C53 PUSH1 0xB PUSH2 0x3A3B PUSH2 0x3C4E DUP5 PUSH2 0x3A50 JUMP JUMPDEST PUSH2 0x3ABD JUMP JUMPDEST POP POP JUMPDEST PUSH2 0x3C71 PUSH2 0x3C62 DUP5 PUSH2 0xFB0 JUMP JUMPDEST PUSH2 0x3C6B DUP5 PUSH2 0xFB0 JUMP JUMPDEST DUP4 PUSH2 0x309E JUMP JUMPDEST POP POP POP JUMP JUMPDEST PUSH0 PUSH0 PUSH2 0x3C85 DUP6 PUSH0 ADD DUP6 DUP6 PUSH2 0x3EF8 JUMP JUMPDEST SWAP2 POP SWAP2 POP SWAP4 POP SWAP4 SWAP2 POP POP JUMP JUMPDEST PUSH0 PUSH0 PUSH1 0xFF DUP4 PUSH0 SHR AND SWAP1 POP PUSH1 0x1F DUP2 GT ISZERO PUSH2 0x3CD6 JUMPI PUSH1 0x40 MLOAD PUSH32 0xB3512B0C00000000000000000000000000000000000000000000000000000000 DUP2 MSTORE PUSH1 0x4 ADD PUSH1 0x40 MLOAD DUP1 SWAP2 SUB SWAP1 REVERT JUMPDEST DUP1 SWAP2 POP POP SWAP2 SWAP1 POP JUMP JUMPDEST PUSH0 PUSH20 0xFFFFFFFFFFFFFFFFFFFFFFFFFFFFFFFFFFFFFFFF AND DUP4 PUSH20 0xFFFFFFFFFFFFFFFFFFFFFFFFFFFFFFFFFFFFFFFF AND SUB PUSH2 0x3D2F JUMPI DUP1 PUSH1 0x2 PUSH0 DUP3 DUP3 SLOAD PUSH2 0x3D23 SWAP2 SWAP1 PUSH2 0x4BD4 JUMP JUMPDEST SWAP3 POP POP DUP2 SWAP1 SSTORE POP PUSH2 0x3DFD JUMP JUMPDEST PUSH0 PUSH0 PUSH0 DUP6 PUSH20 0xFFFFFFFFFFFFFFFFFFFFFFFFFFFFFFFFFFFFFFFF AND PUSH20 0xFFFFFFFFFFFFFFFFFFFFFFFFFFFFFFFFFFFFFFFF AND DUP2 MSTORE PUSH1 0x20 ADD SWAP1 DUP2 MSTORE PUSH1 0x20 ADD PUSH0 KECCAK256 SLOAD SWAP1 POP DUP2 DUP2 LT ISZERO PUSH2 0x3DB8 JUMPI DUP4 DUP2 DUP4 PUSH1 0x40 MLOAD PUSH32 0xE450D38C00000000000000000000000000000000000000000000000000000000 DUP2 MSTORE PUSH1 0x4 ADD PUSH2 0x3DAF SWAP4 SWAP3 SWAP2 SWAP1 PUSH2 0x5032 JUMP JUMPDEST PUSH1 0x40 MLOAD DUP1 SWAP2 SUB SWAP1 REVERT JUMPDEST DUP2 DUP2 SUB PUSH0 PUSH0 DUP7 PUSH20 0xFFFFFFFFFFFFFFFFFFFFFFFFFFFFFFFFFFFFFFFF AND PUSH20 0xFFFFFFFFFFFFFFFFFFFFFFFFFFFFFFFFFFFFFFFF AND DUP2 MSTORE PUSH1 0x20 ADD SWAP1 DUP2 MSTORE PUSH1 0x20 ADD PUSH0 KECCAK256 DUP2 SWAP1 SSTORE POP POP JUMPDEST PUSH0 PUSH20 0xFFFFFFFFFFFFFFFFFFFFFFFFFFFFFFFFFFFFFFFF AND DUP3 PUSH20 0xFFFFFFFFFFFFFFFFFFFFFFFFFFFFFFFFFFFFFFFF AND SUB PUSH2 0x3E44 JUMPI DUP1 PUSH1 0x2 PUSH0 DUP3 DUP3 SLOAD SUB SWAP3 POP POP DUP2 SWAP1 SSTORE POP PUSH2 0x3E8E JUMP JUMPDEST DUP1 PUSH0 PUSH0 DUP5 PUSH20 0xFFFFFFFFFFFFFFFFFFFFFFFFFFFFFFFFFFFFFFFF AND PUSH20 0xFFFFFFFFFFFFFFFFFFFFFFFFFFFFFFFFFFFFFFFF AND DUP2 MSTORE PUSH1 0x20 ADD SWAP1 DUP2 MSTORE PUSH1 0x20 ADD PUSH0 KECCAK256 PUSH0 DUP3 DUP3 SLOAD ADD SWAP3 POP POP DUP2 SWAP1 SSTORE POP JUMPDEST DUP2 PUSH20 0xFFFFFFFFFFFFFFFFFFFFFFFFFFFFFFFFFFFFFFFF AND DUP4 PUSH20 0xFFFFFFFFFFFFFFFFFFFFFFFFFFFFFFFFFFFFFFFF AND PUSH32 0xDDF252AD1BE2C89B69C2B068FC378DAA952BA7F163C4A11628F55A4DF523B3EF DUP4 PUSH1 0x40 MLOAD PUSH2 0x3EEB SWAP2 SWAP1 PUSH2 0x43C9 JUMP JUMPDEST PUSH1 0x40 MLOAD DUP1 SWAP2 SUB SWAP1 LOG3 POP POP POP JUMP JUMPDEST PUSH0 PUSH0 PUSH0 DUP6 DUP1 SLOAD SWAP1 POP SWAP1 POP PUSH0 DUP2 GT ISZERO PUSH2 0x4104 JUMPI PUSH0 PUSH2 0x3F21 DUP8 PUSH1 0x1 DUP5 PUSH2 0x3F1C SWAP2 SWAP1 PUSH2 0x4BA1 JUMP JUMPDEST PUSH2 0x2FC6 JUMP JUMPDEST SWAP1 POP PUSH0 DUP2 PUSH0 ADD PUSH0 SWAP1 SLOAD SWAP1 PUSH2 0x100 EXP SWAP1 DIV PUSH6 0xFFFFFFFFFFFF AND SWAP1 POP PUSH0 DUP3 PUSH0 ADD PUSH1 0x6 SWAP1 SLOAD SWAP1 PUSH2 0x100 EXP SWAP1 DIV PUSH26 0xFFFFFFFFFFFFFFFFFFFFFFFFFFFFFFFFFFFFFFFFFFFFFFFFFFFF AND SWAP1 POP DUP8 PUSH6 0xFFFFFFFFFFFF AND DUP3 PUSH6 0xFFFFFFFFFFFF AND GT ISZERO PUSH2 0x3FB2 JUMPI PUSH1 0x40 MLOAD PUSH32 0x2520601D00000000000000000000000000000000000000000000000000000000 DUP2 MSTORE PUSH1 0x4 ADD PUSH1 0x40 MLOAD DUP1 SWAP2 SUB SWAP1 REVERT JUMPDEST DUP8 PUSH6 0xFFFFFFFFFFFF AND DUP3 PUSH6 0xFFFFFFFFFFFF AND SUB PUSH2 0x401C JUMPI DUP7 DUP4 PUSH0 ADD PUSH1 0x6 PUSH2 0x100 EXP DUP2 SLOAD DUP2 PUSH26 0xFFFFFFFFFFFFFFFFFFFFFFFFFFFFFFFFFFFFFFFFFFFFFFFFFFFF MUL NOT AND SWAP1 DUP4 PUSH26 0xFFFFFFFFFFFFFFFFFFFFFFFFFFFFFFFFFFFFFFFFFFFFFFFFFFFF AND MUL OR SWAP1 SSTORE POP PUSH2 0x40F5 JUMP JUMPDEST DUP9 PUSH1 0x40 MLOAD DUP1 PUSH1 0x40 ADD PUSH1 0x40 MSTORE DUP1 DUP11 PUSH6 0xFFFFFFFFFFFF AND DUP2 MSTORE PUSH1 0x20 ADD DUP10 PUSH26 0xFFFFFFFFFFFFFFFFFFFFFFFFFFFFFFFFFFFFFFFFFFFFFFFFFFFF AND DUP2 MSTORE POP SWAP1 DUP1 PUSH1 0x1 DUP2 SLOAD ADD DUP1 DUP3 SSTORE DUP1 SWAP2 POP POP PUSH1 0x1 SWAP1 SUB SWAP1 PUSH0 MSTORE PUSH1 0x20 PUSH0 KECCAK256 ADD PUSH0 SWAP1 SWAP2 SWAP1 SWAP2 SWAP1 SWAP2 POP PUSH0 DUP3 ADD MLOAD DUP2 PUSH0 ADD PUSH0 PUSH2 0x100 EXP DUP2 SLOAD DUP2 PUSH6 0xFFFFFFFFFFFF MUL NOT AND SWAP1 DUP4 PUSH6 0xFFFFFFFFFFFF AND MUL OR SWAP1 SSTORE POP PUSH1 0x20 DUP3 ADD MLOAD DUP2 PUSH0 ADD PUSH1 0x6 PUSH2 0x100 EXP DUP2 SLOAD DUP2 PUSH26 0xFFFFFFFFFFFFFFFFFFFFFFFFFFFFFFFFFFFFFFFFFFFFFFFFFFFF MUL NOT AND SWAP1 DUP4 PUSH26 0xFFFFFFFFFFFFFFFFFFFFFFFFFFFFFFFFFFFFFFFFFFFFFFFFFFFF AND MUL OR SWAP1 SSTORE POP POP POP JUMPDEST DUP1 DUP8 SWAP6 POP SWAP6 POP POP POP POP POP PUSH2 0x41E4 JUMP JUMPDEST DUP6 PUSH1 0x40 MLOAD DUP1 PUSH1 0x40 ADD PUSH1 0x40 MSTORE DUP1 DUP8 PUSH6 0xFFFFFFFFFFFF AND DUP2 MSTORE PUSH1 0x20 ADD DUP7 PUSH26 0xFFFFFFFFFFFFFFFFFFFFFFFFFFFFFFFFFFFFFFFFFFFFFFFFFFFF AND DUP2 MSTORE POP SWAP1 DUP1 PUSH1 0x1 DUP2 SLOAD ADD DUP1 DUP3 SSTORE DUP1 SWAP2 POP POP PUSH1 0x1 SWAP1 SUB SWAP1 PUSH0 MSTORE PUSH1 0x20 PUSH0 KECCAK256 ADD PUSH0 SWAP1 SWAP2 SWAP1 SWAP2 SWAP1 SWAP2 POP PUSH0 DUP3 ADD MLOAD DUP2 PUSH0 ADD PUSH0 PUSH2 0x100 EXP DUP2 SLOAD DUP2 PUSH6 0xFFFFFFFFFFFF MUL NOT AND SWAP1 DUP4 PUSH6 0xFFFFFFFFFFFF AND MUL OR SWAP1 SSTORE POP PUSH1 0x20 DUP3 ADD MLOAD DUP2 PUSH0 ADD PUSH1 0x6 PUSH2 0x100 EXP DUP2 SLOAD DUP2 PUSH26 0xFFFFFFFFFFFFFFFFFFFFFFFFFFFFFFFFFFFFFFFFFFFFFFFFFFFF MUL NOT AND SWAP1 DUP4 PUSH26 0xFFFFFFFFFFFFFFFFFFFFFFFFFFFFFFFFFFFFFFFFFFFFFFFFFFFF AND MUL OR SWAP1 SSTORE POP POP POP PUSH0 DUP5 SWAP3 POP SWAP3 POP POP JUMPDEST SWAP4 POP SWAP4 SWAP2 POP POP JUMP JUMPDEST PUSH1 0x40 MLOAD DUP1 PUSH1 0x40 ADD PUSH1 0x40 MSTORE DUP1 PUSH0 PUSH6 0xFFFFFFFFFFFF AND DUP2 MSTORE PUSH1 0x20 ADD PUSH0 PUSH26 0xFFFFFFFFFFFFFFFFFFFFFFFFFFFFFFFFFFFFFFFFFFFFFFFFFFFF AND DUP2 MSTORE POP SWAP1 JUMP JUMPDEST PUSH0 DUP2 MLOAD SWAP1 POP SWAP2 SWAP1 POP JUMP JUMPDEST PUSH0 DUP3 DUP3 MSTORE PUSH1 0x20 DUP3 ADD SWAP1 POP SWAP3 SWAP2 POP POP JUMP JUMPDEST DUP3 DUP2 DUP4 MCOPY PUSH0 DUP4 DUP4 ADD MSTORE POP POP POP JUMP JUMPDEST PUSH0 PUSH1 0x1F NOT PUSH1 0x1F DUP4 ADD AND SWAP1 POP SWAP2 SWAP1 POP JUMP JUMPDEST PUSH0 PUSH2 0x426A DUP3 PUSH2 0x4228 JUMP JUMPDEST PUSH2 0x4274 DUP2 DUP6 PUSH2 0x4232 JUMP JUMPDEST SWAP4 POP PUSH2 0x4284 DUP2 DUP6 PUSH1 0x20 DUP7 ADD PUSH2 0x4242 JUMP JUMPDEST PUSH2 0x428D DUP2 PUSH2 0x4250 JUMP JUMPDEST DUP5 ADD SWAP2 POP POP SWAP3 SWAP2 POP POP JUMP JUMPDEST PUSH0 PUSH1 0x20 DUP3 ADD SWAP1 POP DUP2 DUP2 SUB PUSH0 DUP4 ADD MSTORE PUSH2 0x42B0 DUP2 DUP5 PUSH2 0x4260 JUMP JUMPDEST SWAP1 POP SWAP3 SWAP2 POP POP JUMP JUMPDEST PUSH0 PUSH0 REVERT JUMPDEST PUSH0 PUSH20 0xFFFFFFFFFFFFFFFFFFFFFFFFFFFFFFFFFFFFFFFF DUP3 AND SWAP1 POP SWAP2 SWAP1 POP JUMP JUMPDEST PUSH0 PUSH2 0x42E5 DUP3 PUSH2 0x42BC JUMP JUMPDEST SWAP1 POP SWAP2 SWAP1 POP JUMP JUMPDEST PUSH2 0x42F5 DUP2 PUSH2 0x42DB JUMP JUMPDEST DUP2 EQ PUSH2 0x42FF JUMPI PUSH0 PUSH0 REVERT JUMPDEST POP JUMP JUMPDEST PUSH0 DUP2 CALLDATALOAD SWAP1 POP PUSH2 0x4310 DUP2 PUSH2 0x42EC JUMP JUMPDEST SWAP3 SWAP2 POP POP JUMP JUMPDEST PUSH0 DUP2 SWAP1 POP SWAP2 SWAP1 POP JUMP JUMPDEST PUSH2 0x4328 DUP2 PUSH2 0x4316 JUMP JUMPDEST DUP2 EQ PUSH2 0x4332 JUMPI PUSH0 PUSH0 REVERT JUMPDEST POP JUMP JUMPDEST PUSH0 DUP2 CALLDATALOAD SWAP1 POP PUSH2 0x4343 DUP2 PUSH2 0x431F JUMP JUMPDEST SWAP3 SWAP2 POP POP JUMP JUMPDEST PUSH0 PUSH0 PUSH1 0x40 DUP4 DUP6 SUB SLT ISZERO PUSH2 0x435F JUMPI PUSH2 0x435E PUSH2 0x42B8 JUMP JUMPDEST JUMPDEST PUSH0 PUSH2 0x436C DUP6 DUP3 DUP7 ADD PUSH2 0x4302 JUMP JUMPDEST SWAP3 POP POP PUSH1 0x20 PUSH2 0x437D DUP6 DUP3 DUP7 ADD PUSH2 0x4335 JUMP JUMPDEST SWAP2 POP POP SWAP3 POP SWAP3 SWAP1 POP JUMP JUMPDEST PUSH0 DUP2 ISZERO ISZERO SWAP1 POP SWAP2 SWAP1 POP JUMP JUMPDEST PUSH2 0x439B DUP2 PUSH2 0x4387 JUMP JUMPDEST DUP3 MSTORE POP POP JUMP JUMPDEST PUSH0 PUSH1 0x20 DUP3 ADD SWAP1 POP PUSH2 0x43B4 PUSH0 DUP4 ADD DUP5 PUSH2 0x4392 JUMP JUMPDEST SWAP3 SWAP2 POP POP JUMP JUMPDEST PUSH2 0x43C3 DUP2 PUSH2 0x4316 JUMP JUMPDEST DUP3 MSTORE POP POP JUMP JUMPDEST PUSH0 PUSH1 0x20 DUP3 ADD SWAP1 POP PUSH2 0x43DC PUSH0 DUP4 ADD DUP5 PUSH2 0x43BA JUMP JUMPDEST SWAP3 SWAP2 POP POP JUMP JUMPDEST PUSH0 PUSH0 PUSH0 PUSH1 0x60 DUP5 DUP7 SUB SLT ISZERO PUSH2 0x43F9 JUMPI PUSH2 0x43F8 PUSH2 0x42B8 JUMP JUMPDEST JUMPDEST PUSH0 PUSH2 0x4406 DUP7 DUP3 DUP8 ADD PUSH2 0x4302 JUMP JUMPDEST SWAP4 POP POP PUSH1 0x20 PUSH2 0x4417 DUP7 DUP3 DUP8 ADD PUSH2 0x4302 JUMP JUMPDEST SWAP3 POP POP PUSH1 0x40 PUSH2 0x4428 DUP7 DUP3 DUP8 ADD PUSH2 0x4335 JUMP JUMPDEST SWAP2 POP POP SWAP3 POP SWAP3 POP SWAP3 JUMP JUMPDEST PUSH0 PUSH1 0x20 DUP3 DUP5 SUB SLT ISZERO PUSH2 0x4447 JUMPI PUSH2 0x4446 PUSH2 0x42B8 JUMP JUMPDEST JUMPDEST PUSH0 PUSH2 0x4454 DUP5 DUP3 DUP6 ADD PUSH2 0x4335 JUMP JUMPDEST SWAP2 POP POP SWAP3 SWAP2 POP POP JUMP JUMPDEST PUSH0 PUSH1 0xFF DUP3 AND SWAP1 POP SWAP2 SWAP1 POP JUMP JUMPDEST PUSH2 0x4472 DUP2 PUSH2 0x445D JUMP JUMPDEST DUP3 MSTORE POP POP JUMP JUMPDEST PUSH0 PUSH1 0x20 DUP3 ADD SWAP1 POP PUSH2 0x448B PUSH0 DUP4 ADD DUP5 PUSH2 0x4469 JUMP JUMPDEST SWAP3 SWAP2 POP POP JUMP JUMPDEST PUSH0 DUP2 SWAP1 POP SWAP2 SWAP1 POP JUMP JUMPDEST PUSH2 0x44A3 DUP2 PUSH2 0x4491 JUMP JUMPDEST DUP3 MSTORE POP POP JUMP JUMPDEST PUSH0 PUSH1 0x20 DUP3 ADD SWAP1 POP PUSH2 0x44BC PUSH0 DUP4 ADD DUP5 PUSH2 0x449A JUMP JUMPDEST SWAP3 SWAP2 POP POP JUMP JUMPDEST PUSH0 PUSH1 0x20 DUP3 DUP5 SUB SLT ISZERO PUSH2 0x44D7 JUMPI PUSH2 0x44D6 PUSH2 0x42B8 JUMP JUMPDEST JUMPDEST PUSH0 PUSH2 0x44E4 DUP5 DUP3 DUP6 ADD PUSH2 0x4302 JUMP JUMPDEST SWAP2 POP POP SWAP3 SWAP2 POP POP JUMP JUMPDEST PUSH2 0x44F6 DUP2 PUSH2 0x42DB JUMP JUMPDEST DUP3 MSTORE POP POP JUMP JUMPDEST PUSH0 PUSH1 0x20 DUP3 ADD SWAP1 POP PUSH2 0x450F PUSH0 DUP4 ADD DUP5 PUSH2 0x44ED JUMP JUMPDEST SWAP3 SWAP2 POP POP JUMP JUMPDEST PUSH2 0x451E DUP2 PUSH2 0x4387 JUMP JUMPDEST DUP2 EQ PUSH2 0x4528 JUMPI PUSH0 PUSH0 REVERT JUMPDEST POP JUMP JUMPDEST PUSH0 DUP2 CALLDATALOAD SWAP1 POP PUSH2 0x4539 DUP2 PUSH2 0x4515 JUMP JUMPDEST SWAP3 SWAP2 POP POP JUMP JUMPDEST PUSH0 PUSH0 PUSH1 0x40 DUP4 DUP6 SUB SLT ISZERO PUSH2 0x4555 JUMPI PUSH2 0x4554 PUSH2 0x42B8 JUMP JUMPDEST JUMPDEST PUSH0 PUSH2 0x4562 DUP6 DUP3 DUP7 ADD PUSH2 0x4302 JUMP JUMPDEST SWAP3 POP POP PUSH1 0x20 PUSH2 0x4573 DUP6 DUP3 DUP7 ADD PUSH2 0x452B JUMP JUMPDEST SWAP2 POP POP SWAP3 POP SWAP3 SWAP1 POP JUMP JUMPDEST PUSH0 PUSH4 0xFFFFFFFF DUP3 AND SWAP1 POP SWAP2 SWAP1 POP JUMP JUMPDEST PUSH2 0x4595 DUP2 PUSH2 0x457D JUMP JUMPDEST DUP3 MSTORE POP POP JUMP JUMPDEST PUSH0 PUSH1 0x20 DUP3 ADD SWAP1 POP PUSH2 0x45AE PUSH0 DUP4 ADD DUP5 PUSH2 0x458C JUMP JUMPDEST SWAP3 SWAP2 POP POP JUMP JUMPDEST PUSH0 PUSH32 0xFF00000000000000000000000000000000000000000000000000000000000000 DUP3 AND SWAP1 POP SWAP2 SWAP1 POP JUMP JUMPDEST PUSH2 0x45E8 DUP2 PUSH2 0x45B4 JUMP JUMPDEST DUP3 MSTORE POP POP JUMP JUMPDEST PUSH0 DUP2 MLOAD SWAP1 POP SWAP2 SWAP1 POP JUMP JUMPDEST PUSH0 DUP3 DUP3 MSTORE PUSH1 0x20 DUP3 ADD SWAP1 POP SWAP3 SWAP2 POP POP JUMP JUMPDEST PUSH0 DUP2 SWAP1 POP PUSH1 0x20 DUP3 ADD SWAP1 POP SWAP2 SWAP1 POP JUMP JUMPDEST PUSH2 0x4620 DUP2 PUSH2 0x4316 JUMP JUMPDEST DUP3 MSTORE POP POP JUMP JUMPDEST PUSH0 PUSH2 0x4631 DUP4 DUP4 PUSH2 0x4617 JUMP JUMPDEST PUSH1 0x20 DUP4 ADD SWAP1 POP SWAP3 SWAP2 POP POP JUMP JUMPDEST PUSH0 PUSH1 0x20 DUP3 ADD SWAP1 POP SWAP2 SWAP1 POP JUMP JUMPDEST PUSH0 PUSH2 0x4653 DUP3 PUSH2 0x45EE JUMP JUMPDEST PUSH2 0x465D DUP2 DUP6 PUSH2 0x45F8 JUMP JUMPDEST SWAP4 POP PUSH2 0x4668 DUP4 PUSH2 0x4608 JUMP JUMPDEST DUP1 PUSH0 JUMPDEST DUP4 DUP2 LT ISZERO PUSH2 0x4698 JUMPI DUP2 MLOAD PUSH2 0x467F DUP9 DUP3 PUSH2 0x4626 JUMP JUMPDEST SWAP8 POP PUSH2 0x468A DUP4 PUSH2 0x463D JUMP JUMPDEST SWAP3 POP POP PUSH1 0x1 DUP2 ADD SWAP1 POP PUSH2 0x466B JUMP JUMPDEST POP DUP6 SWAP4 POP POP POP POP SWAP3 SWAP2 POP POP JUMP JUMPDEST PUSH0 PUSH1 0xE0 DUP3 ADD SWAP1 POP PUSH2 0x46B8 PUSH0 DUP4 ADD DUP11 PUSH2 0x45DF JUMP JUMPDEST DUP2 DUP2 SUB PUSH1 0x20 DUP4 ADD MSTORE PUSH2 0x46CA DUP2 DUP10 PUSH2 0x4260 JUMP JUMPDEST SWAP1 POP DUP2 DUP2 SUB PUSH1 0x40 DUP4 ADD MSTORE PUSH2 0x46DE DUP2 DUP9 PUSH2 0x4260 JUMP JUMPDEST SWAP1 POP PUSH2 0x46ED PUSH1 0x60 DUP4 ADD DUP8 PUSH2 0x43BA JUMP JUMPDEST PUSH2 0x46FA PUSH1 0x80 DUP4 ADD DUP7 PUSH2 0x44ED JUMP JUMPDEST PUSH2 0x4707 PUSH1 0xA0 DUP4 ADD DUP6 PUSH2 0x449A JUMP JUMPDEST DUP2 DUP2 SUB PUSH1 0xC0 DUP4 ADD MSTORE PUSH2 0x4719 DUP2 DUP5 PUSH2 0x4649 JUMP JUMPDEST SWAP1 POP SWAP9 SWAP8 POP POP POP POP POP POP POP POP JUMP JUMPDEST PUSH0 PUSH6 0xFFFFFFFFFFFF DUP3 AND SWAP1 POP SWAP2 SWAP1 POP JUMP JUMPDEST PUSH2 0x4741 DUP2 PUSH2 0x4727 JUMP JUMPDEST DUP3 MSTORE POP POP JUMP JUMPDEST PUSH0 PUSH1 0x20 DUP3 ADD SWAP1 POP PUSH2 0x475A PUSH0 DUP4 ADD DUP5 PUSH2 0x4738 JUMP JUMPDEST SWAP3 SWAP2 POP POP JUMP JUMPDEST PUSH2 0x4769 DUP2 PUSH2 0x445D JUMP JUMPDEST DUP2 EQ PUSH2 0x4773 JUMPI PUSH0 PUSH0 REVERT JUMPDEST POP JUMP JUMPDEST PUSH0 DUP2 CALLDATALOAD SWAP1 POP PUSH2 0x4784 DUP2 PUSH2 0x4760 JUMP JUMPDEST SWAP3 SWAP2 POP POP JUMP JUMPDEST PUSH2 0x4793 DUP2 PUSH2 0x4491 JUMP JUMPDEST DUP2 EQ PUSH2 0x479D JUMPI PUSH0 PUSH0 REVERT JUMPDEST POP JUMP JUMPDEST PUSH0 DUP2 CALLDATALOAD SWAP1 POP PUSH2 0x47AE DUP2 PUSH2 0x478A JUMP JUMPDEST SWAP3 SWAP2 POP POP JUMP JUMPDEST PUSH0 PUSH0 PUSH0 PUSH0 PUSH0 PUSH0 PUSH1 0xC0 DUP8 DUP10 SUB SLT ISZERO PUSH2 0x47CE JUMPI PUSH2 0x47CD PUSH2 0x42B8 JUMP JUMPDEST JUMPDEST PUSH0 PUSH2 0x47DB DUP10 DUP3 DUP11 ADD PUSH2 0x4302 JUMP JUMPDEST SWAP7 POP POP PUSH1 0x20 PUSH2 0x47EC DUP10 DUP3 DUP11 ADD PUSH2 0x4335 JUMP JUMPDEST SWAP6 POP POP PUSH1 0x40 PUSH2 0x47FD DUP10 DUP3 DUP11 ADD PUSH2 0x4335 JUMP JUMPDEST SWAP5 POP POP PUSH1 0x60 PUSH2 0x480E DUP10 DUP3 DUP11 ADD PUSH2 0x4776 JUMP JUMPDEST SWAP4 POP POP PUSH1 0x80 PUSH2 0x481F DUP10 DUP3 DUP11 ADD PUSH2 0x47A0 JUMP JUMPDEST SWAP3 POP POP PUSH1 0xA0 PUSH2 0x4830 DUP10 DUP3 DUP11 ADD PUSH2 0x47A0 JUMP JUMPDEST SWAP2 POP POP SWAP3 SWAP6 POP SWAP3 SWAP6 POP SWAP3 SWAP6 JUMP JUMPDEST PUSH0 PUSH0 PUSH1 0x40 DUP4 DUP6 SUB SLT ISZERO PUSH2 0x4853 JUMPI PUSH2 0x4852 PUSH2 0x42B8 JUMP JUMPDEST JUMPDEST PUSH0 PUSH2 0x4860 DUP6 DUP3 DUP7 ADD PUSH2 0x4335 JUMP JUMPDEST SWAP3 POP POP PUSH1 0x20 PUSH2 0x4871 DUP6 DUP3 DUP7 ADD PUSH2 0x4335 JUMP JUMPDEST SWAP2 POP POP SWAP3 POP SWAP3 SWAP1 POP JUMP JUMPDEST PUSH0 PUSH0 PUSH0 PUSH0 PUSH0 PUSH0 PUSH0 PUSH1 0xE0 DUP9 DUP11 SUB SLT ISZERO PUSH2 0x4896 JUMPI PUSH2 0x4895 PUSH2 0x42B8 JUMP JUMPDEST JUMPDEST PUSH0 PUSH2 0x48A3 DUP11 DUP3 DUP12 ADD PUSH2 0x4302 JUMP JUMPDEST SWAP8 POP POP PUSH1 0x20 PUSH2 0x48B4 DUP11 DUP3 DUP12 ADD PUSH2 0x4302 JUMP JUMPDEST SWAP7 POP POP PUSH1 0x40 PUSH2 0x48C5 DUP11 DUP3 DUP12 ADD PUSH2 0x4335 JUMP JUMPDEST SWAP6 POP POP PUSH1 0x60 PUSH2 0x48D6 DUP11 DUP3 DUP12 ADD PUSH2 0x4335 JUMP JUMPDEST SWAP5 POP POP PUSH1 0x80 PUSH2 0x48E7 DUP11 DUP3 DUP12 ADD PUSH2 0x4776 JUMP JUMPDEST SWAP4 POP POP PUSH1 0xA0 PUSH2 0x48F8 DUP11 DUP3 DUP12 ADD PUSH2 0x47A0 JUMP JUMPDEST SWAP3 POP POP PUSH1 0xC0 PUSH2 0x4909 DUP11 DUP3 DUP12 ADD PUSH2 0x47A0 JUMP JUMPDEST SWAP2 POP POP SWAP3 SWAP6 SWAP9 SWAP2 SWAP5 SWAP8 POP SWAP3 SWAP6 POP JUMP JUMPDEST PUSH0 PUSH0 PUSH1 0x40 DUP4 DUP6 SUB SLT ISZERO PUSH2 0x492E JUMPI PUSH2 0x492D PUSH2 0x42B8 JUMP JUMPDEST JUMPDEST PUSH0 PUSH2 0x493B DUP6 DUP3 DUP7 ADD PUSH2 0x4302 JUMP JUMPDEST SWAP3 POP POP PUSH1 0x20 PUSH2 0x494C DUP6 DUP3 DUP7 ADD PUSH2 0x4302 JUMP JUMPDEST SWAP2 POP POP SWAP3 POP SWAP3 SWAP1 POP JUMP JUMPDEST PUSH2 0x495F DUP2 PUSH2 0x457D JUMP JUMPDEST DUP2 EQ PUSH2 0x4969 JUMPI PUSH0 PUSH0 REVERT JUMPDEST POP JUMP JUMPDEST PUSH0 DUP2 CALLDATALOAD SWAP1 POP PUSH2 0x497A DUP2 PUSH2 0x4956 JUMP JUMPDEST SWAP3 SWAP2 POP POP JUMP JUMPDEST PUSH0 PUSH0 PUSH1 0x40 DUP4 DUP6 SUB SLT ISZERO PUSH2 0x4996 JUMPI PUSH2 0x4995 PUSH2 0x42B8 JUMP JUMPDEST JUMPDEST PUSH0 PUSH2 0x49A3 DUP6 DUP3 DUP7 ADD PUSH2 0x4302 JUMP JUMPDEST SWAP3 POP POP PUSH1 0x20 PUSH2 0x49B4 DUP6 DUP3 DUP7 ADD PUSH2 0x496C JUMP JUMPDEST SWAP2 POP POP SWAP3 POP SWAP3 SWAP1 POP JUMP JUMPDEST PUSH2 0x49C7 DUP2 PUSH2 0x4727 JUMP JUMPDEST DUP3 MSTORE POP POP JUMP JUMPDEST PUSH0 PUSH26 0xFFFFFFFFFFFFFFFFFFFFFFFFFFFFFFFFFFFFFFFFFFFFFFFFFFFF DUP3 AND SWAP1 POP SWAP2 SWAP1 POP JUMP JUMPDEST PUSH2 0x49FB DUP2 PUSH2 0x49CD JUMP JUMPDEST DUP3 MSTORE POP POP JUMP JUMPDEST PUSH1 0x40 DUP3 ADD PUSH0 DUP3 ADD MLOAD PUSH2 0x4A15 PUSH0 DUP6 ADD DUP3 PUSH2 0x49BE JUMP JUMPDEST POP PUSH1 0x20 DUP3 ADD MLOAD PUSH2 0x4A28 PUSH1 0x20 DUP6 ADD DUP3 PUSH2 0x49F2 JUMP JUMPDEST POP POP POP POP JUMP JUMPDEST PUSH0 PUSH1 0x40 DUP3 ADD SWAP1 POP PUSH2 0x4A41 PUSH0 DUP4 ADD DUP5 PUSH2 0x4A01 JUMP JUMPDEST SWAP3 SWAP2 POP POP JUMP JUMPDEST PUSH32 0x4E487B7100000000000000000000000000000000000000000000000000000000 PUSH0 MSTORE PUSH1 0x22 PUSH1 0x4 MSTORE PUSH1 0x24 PUSH0 REVERT JUMPDEST PUSH0 PUSH1 0x2 DUP3 DIV SWAP1 POP PUSH1 0x1 DUP3 AND DUP1 PUSH2 0x4A8B JUMPI PUSH1 0x7F DUP3 AND SWAP2 POP JUMPDEST PUSH1 0x20 DUP3 LT DUP2 SUB PUSH2 0x4A9E JUMPI PUSH2 0x4A9D PUSH2 0x4A47 JUMP JUMPDEST JUMPDEST POP SWAP2 SWAP1 POP JUMP JUMPDEST PUSH32 0x496E76616C696420616D6F756E74000000000000000000000000000000000000 PUSH0 DUP3 ADD MSTORE POP JUMP JUMPDEST PUSH0 PUSH2 0x4AD8 PUSH1 0xE DUP4 PUSH2 0x4232 JUMP JUMPDEST SWAP2 POP PUSH2 0x4AE3 DUP3 PUSH2 0x4AA4 JUMP JUMPDEST PUSH1 0x20 DUP3 ADD SWAP1 POP SWAP2 SWAP1 POP JUMP JUMPDEST PUSH0 PUSH1 0x20 DUP3 ADD SWAP1 POP DUP2 DUP2 SUB PUSH0 DUP4 ADD MSTORE PUSH2 0x4B05 DUP2 PUSH2 0x4ACC JUMP JUMPDEST SWAP1 POP SWAP2 SWAP1 POP JUMP JUMPDEST PUSH32 0x5374696C6C206C6F636B65640000000000000000000000000000000000000000 PUSH0 DUP3 ADD MSTORE POP JUMP JUMPDEST PUSH0 PUSH2 0x4B40 PUSH1 0xC DUP4 PUSH2 0x4232 JUMP JUMPDEST SWAP2 POP PUSH2 0x4B4B DUP3 PUSH2 0x4B0C JUMP JUMPDEST PUSH1 0x20 DUP3 ADD SWAP1 POP SWAP2 SWAP1 POP JUMP JUMPDEST PUSH0 PUSH1 0x20 DUP3 ADD SWAP1 POP DUP2 DUP2 SUB PUSH0 DUP4 ADD MSTORE PUSH2 0x4B6D DUP2 PUSH2 0x4B34 JUMP JUMPDEST SWAP1 POP SWAP2 SWAP1 POP JUMP JUMPDEST PUSH32 0x4E487B7100000000000000000000000000000000000000000000000000000000 PUSH0 MSTORE PUSH1 0x11 PUSH1 0x4 MSTORE PUSH1 0x24 PUSH0 REVERT JUMPDEST PUSH0 PUSH2 0x4BAB DUP3 PUSH2 0x4316 JUMP JUMPDEST SWAP2 POP PUSH2 0x4BB6 DUP4 PUSH2 0x4316 JUMP JUMPDEST SWAP3 POP DUP3 DUP3 SUB SWAP1 POP DUP2 DUP2 GT ISZERO PUSH2 0x4BCE JUMPI PUSH2 0x4BCD PUSH2 0x4B74 JUMP JUMPDEST JUMPDEST SWAP3 SWAP2 POP POP JUMP JUMPDEST PUSH0 PUSH2 0x4BDE DUP3 PUSH2 0x4316 JUMP JUMPDEST SWAP2 POP PUSH2 0x4BE9 DUP4 PUSH2 0x4316 JUMP JUMPDEST SWAP3 POP DUP3 DUP3 ADD SWAP1 POP DUP1 DUP3 GT ISZERO PUSH2 0x4C01 JUMPI PUSH2 0x4C00 PUSH2 0x4B74 JUMP JUMPDEST JUMPDEST SWAP3 SWAP2 POP POP JUMP JUMPDEST PUSH32 0x4D617820737570706C7920657863656564656400000000000000000000000000 PUSH0 DUP3 ADD MSTORE POP JUMP JUMPDEST PUSH0 PUSH2 0x4C3B PUSH1 0x13 DUP4 PUSH2 0x4232 JUMP JUMPDEST SWAP2 POP PUSH2 0x4C46 DUP3 PUSH2 0x4C07 JUMP JUMPDEST PUSH1 0x20 DUP3 ADD SWAP1 POP SWAP2 SWAP1 POP JUMP JUMPDEST PUSH0 PUSH1 0x20 DUP3 ADD SWAP1 POP DUP2 DUP2 SUB PUSH0 DUP4 ADD MSTORE PUSH2 0x4C68 DUP2 PUSH2 0x4C2F JUMP JUMPDEST SWAP1 POP SWAP2 SWAP1 POP JUMP JUMPDEST PUSH32 0x4E487B7100000000000000000000000000000000000000000000000000000000 PUSH0 MSTORE PUSH1 0x41 PUSH1 0x4 MSTORE PUSH1 0x24 PUSH0 REVERT JUMPDEST PUSH32 0x5A65726F20616D6F756E74000000000000000000000000000000000000000000 PUSH0 DUP3 ADD MSTORE POP JUMP JUMPDEST PUSH0 PUSH2 0x4CD0 PUSH1 0xB DUP4 PUSH2 0x4232 JUMP JUMPDEST SWAP2 POP PUSH2 0x4CDB DUP3 PUSH2 0x4C9C JUMP JUMPDEST PUSH1 0x20 DUP3 ADD SWAP1 POP SWAP2 SWAP1 POP JUMP JUMPDEST PUSH0 PUSH1 0x20 DUP3 ADD SWAP1 POP DUP2 DUP2 SUB PUSH0 DUP4 ADD MSTORE PUSH2 0x4CFD DUP2 PUSH2 0x4CC4 JUMP JUMPDEST SWAP1 POP SWAP2 SWAP1 POP JUMP JUMPDEST PUSH0 PUSH1 0x40 DUP3 ADD SWAP1 POP PUSH2 0x4D17 PUSH0 DUP4 ADD DUP6 PUSH2 0x43BA JUMP JUMPDEST PUSH2 0x4D24 PUSH1 0x20 DUP4 ADD DUP5 PUSH2 0x43BA JUMP JUMPDEST SWAP4 SWAP3 POP POP POP JUMP JUMPDEST PUSH32 0x546F6F20736F6F6E000000000000000000000000000000000000000000000000 PUSH0 DUP3 ADD MSTORE POP JUMP JUMPDEST PUSH0 PUSH2 0x4D5F PUSH1 0x8 DUP4 PUSH2 0x4232 JUMP JUMPDEST SWAP2 POP PUSH2 0x4D6A DUP3 PUSH2 0x4D2B JUMP JUMPDEST PUSH1 0x20 DUP3 ADD SWAP1 POP SWAP2 SWAP1 POP JUMP JUMPDEST PUSH0 PUSH1 0x20 DUP3 ADD SWAP1 POP DUP2 DUP2 SUB PUSH0 DUP4 ADD MSTORE PUSH2 0x4D8C DUP2 PUSH2 0x4D53 JUMP JUMPDEST SWAP1 POP SWAP2 SWAP1 POP JUMP JUMPDEST PUSH32 0x4E6F207265776172640000000000000000000000000000000000000000000000 PUSH0 DUP3 ADD MSTORE POP JUMP JUMPDEST PUSH0 PUSH2 0x4DC7 PUSH1 0x9 DUP4 PUSH2 0x4232 JUMP JUMPDEST SWAP2 POP PUSH2 0x4DD2 DUP3 PUSH2 0x4D93 JUMP JUMPDEST PUSH1 0x20 DUP3 ADD SWAP1 POP SWAP2 SWAP1 POP JUMP JUMPDEST PUSH0 PUSH1 0x20 DUP3 ADD SWAP1 POP DUP2 DUP2 SUB PUSH0 DUP4 ADD MSTORE PUSH2 0x4DF4 DUP2 PUSH2 0x4DBB JUMP JUMPDEST SWAP1 POP SWAP2 SWAP1 POP JUMP JUMPDEST PUSH0 PUSH2 0x4E05 DUP3 PUSH2 0x4316 JUMP JUMPDEST SWAP2 POP PUSH2 0x4E10 DUP4 PUSH2 0x4316 JUMP JUMPDEST SWAP3 POP DUP3 DUP3 MUL PUSH2 0x4E1E DUP2 PUSH2 0x4316 JUMP JUMPDEST SWAP2 POP DUP3 DUP3 DIV DUP5 EQ DUP4 ISZERO OR PUSH2 0x4E35 JUMPI PUSH2 0x4E34 PUSH2 0x4B74 JUMP JUMPDEST JUMPDEST POP SWAP3 SWAP2 POP POP JUMP JUMPDEST PUSH32 0x4E487B7100000000000000000000000000000000000000000000000000000000 PUSH0 MSTORE PUSH1 0x12 PUSH1 0x4 MSTORE PUSH1 0x24 PUSH0 REVERT JUMPDEST PUSH0 PUSH2 0x4E73 DUP3 PUSH2 0x4316 JUMP JUMPDEST SWAP2 POP PUSH2 0x4E7E DUP4 PUSH2 0x4316 JUMP JUMPDEST SWAP3 POP DUP3 PUSH2 0x4E8E JUMPI PUSH2 0x4E8D PUSH2 0x4E3C JUMP JUMPDEST JUMPDEST DUP3 DUP3 DIV SWAP1 POP SWAP3 SWAP2 POP POP JUMP JUMPDEST PUSH0 PUSH1 0x80 DUP3 ADD SWAP1 POP PUSH2 0x4EAC PUSH0 DUP4 ADD DUP8 PUSH2 0x449A JUMP JUMPDEST PUSH2 0x4EB9 PUSH1 0x20 DUP4 ADD DUP7 PUSH2 0x44ED JUMP JUMPDEST PUSH2 0x4EC6 PUSH1 0x40 DUP4 ADD DUP6 PUSH2 0x43BA JUMP JUMPDEST PUSH2 0x4ED3 PUSH1 0x60 DUP4 ADD DUP5 PUSH2 0x43BA JUMP JUMPDEST SWAP6 SWAP5 POP POP POP POP POP JUMP JUMPDEST PUSH32 0x496E76616C69642072616E676500000000000000000000000000000000000000 PUSH0 DUP3 ADD MSTORE POP JUMP JUMPDEST PUSH0 PUSH2 0x4F10 PUSH1 0xD DUP4 PUSH2 0x4232 JUMP JUMPDEST SWAP2 POP PUSH2 0x4F1B DUP3 PUSH2 0x4EDC JUMP JUMPDEST PUSH1 0x20 DUP3 ADD SWAP1 POP SWAP2 SWAP1 POP JUMP JUMPDEST PUSH0 PUSH1 0x20 DUP3 ADD SWAP1 POP DUP2 DUP2 SUB PUSH0 DUP4 ADD MSTORE PUSH2 0x4F3D DUP2 PUSH2 0x4F04 JUMP JUMPDEST SWAP1 POP SWAP2 SWAP1 POP JUMP JUMPDEST PUSH0 PUSH1 0xC0 DUP3 ADD SWAP1 POP PUSH2 0x4F57 PUSH0 DUP4 ADD DUP10 PUSH2 0x449A JUMP JUMPDEST PUSH2 0x4F64 PUSH1 0x20 DUP4 ADD DUP9 PUSH2 0x44ED JUMP JUMPDEST PUSH2 0x4F71 PUSH1 0x40 DUP4 ADD DUP8 PUSH2 0x44ED JUMP JUMPDEST PUSH2 0x4F7E PUSH1 0x60 DUP4 ADD DUP7 PUSH2 0x43BA JUMP JUMPDEST PUSH2 0x4F8B PUSH1 0x80 DUP4 ADD DUP6 PUSH2 0x43BA JUMP JUMPDEST PUSH2 0x4F98 PUSH1 0xA0 DUP4 ADD DUP5 PUSH2 0x43BA JUMP JUMPDEST SWAP8 SWAP7 POP POP POP POP POP POP POP JUMP JUMPDEST PUSH0 PUSH1 0x40 DUP3 ADD SWAP1 POP PUSH2 0x4FB6 PUSH0 DUP4 ADD DUP6 PUSH2 0x44ED JUMP JUMPDEST PUSH2 0x4FC3 PUSH1 0x20 DUP4 ADD DUP5 PUSH2 0x44ED JUMP JUMPDEST SWAP4 SWAP3 POP POP POP JUMP JUMPDEST PUSH32 0x5A65726F20616464726573730000000000000000000000000000000000000000 PUSH0 DUP3 ADD MSTORE POP JUMP JUMPDEST PUSH0 PUSH2 0x4FFE PUSH1 0xC DUP4 PUSH2 0x4232 JUMP JUMPDEST SWAP2 POP PUSH2 0x5009 DUP3 PUSH2 0x4FCA JUMP JUMPDEST PUSH1 0x20 DUP3 ADD SWAP1 POP SWAP2 SWAP1 POP JUMP JUMPDEST PUSH0 PUSH1 0x20 DUP3 ADD SWAP1 POP DUP2 DUP2 SUB PUSH0 DUP4 ADD MSTORE PUSH2 0x502B DUP2 PUSH2 0x4FF2 JUMP JUMPDEST SWAP1 POP SWAP2 SWAP1 POP JUMP JUMPDEST PUSH0 PUSH1 0x60 DUP3 ADD SWAP1 POP PUSH2 0x5045 PUSH0 DUP4 ADD DUP7 PUSH2 0x44ED JUMP JUMPDEST PUSH2 0x5052 PUSH1 0x20 DUP4 ADD DUP6 PUSH2 0x43BA JUMP JUMPDEST PUSH2 0x505F PUSH1 0x40 DUP4 ADD DUP5 PUSH2 0x43BA JUMP JUMPDEST SWAP5 SWAP4 POP POP POP POP JUMP JUMPDEST PUSH0 PUSH1 0x40 DUP3 ADD SWAP1 POP PUSH2 0x507A PUSH0 DUP4 ADD DUP6 PUSH2 0x43BA JUMP JUMPDEST PUSH2 0x5087 PUSH1 0x20 DUP4 ADD DUP5 PUSH2 0x4738 JUMP JUMPDEST SWAP4 SWAP3 POP POP POP JUMP JUMPDEST PUSH0 PUSH1 0x40 DUP3 ADD SWAP1 POP PUSH2 0x50A1 PUSH0 DUP4 ADD DUP6 PUSH2 0x44ED JUMP JUMPDEST PUSH2 0x50AE PUSH1 0x20 DUP4 ADD DUP5 PUSH2 0x43BA JUMP JUMPDEST SWAP4 SWAP3 POP POP POP JUMP JUMPDEST PUSH32 0x546F6B656E207472616E73666572207768696C65207061757365640000000000 PUSH0 DUP3 ADD MSTORE POP JUMP JUMPDEST PUSH0 PUSH2 0x50E9 PUSH1 0x1B DUP4 PUSH2 0x4232 JUMP JUMPDEST SWAP2 POP PUSH2 0x50F4 DUP3 PUSH2 0x50B5 JUMP JUMPDEST PUSH1 0x20 DUP3 ADD SWAP1 POP SWAP2 SWAP1 POP JUMP JUMPDEST PUSH0 PUSH1 0x20 DUP3 ADD SWAP1 POP DUP2 DUP2 SUB PUSH0 DUP4 ADD MSTORE PUSH2 0x5116 DUP2 PUSH2 0x50DD JUMP JUMPDEST SWAP1 POP SWAP2 SWAP1 POP JUMP JUMPDEST PUSH0 PUSH1 0x80 DUP3 ADD SWAP1 POP PUSH2 0x5130 PUSH0 DUP4 ADD DUP8 PUSH2 0x43BA JUMP JUMPDEST PUSH2 0x513D PUSH1 0x20 DUP4 ADD DUP7 PUSH2 0x43BA JUMP JUMPDEST PUSH2 0x514A PUSH1 0x40 DUP4 ADD DUP6 PUSH2 0x43BA JUMP JUMPDEST PUSH2 0x5157 PUSH1 0x60 DUP4 ADD DUP5 PUSH2 0x43BA JUMP JUMPDEST SWAP6 SWAP5 POP POP POP POP POP JUMP JUMPDEST PUSH0 PUSH1 0xA0 DUP3 ADD SWAP1 POP PUSH2 0x5173 PUSH0 DUP4 ADD DUP9 PUSH2 0x449A JUMP JUMPDEST PUSH2 0x5180 PUSH1 0x20 DUP4 ADD DUP8 PUSH2 0x449A JUMP JUMPDEST PUSH2 0x518D PUSH1 0x40 DUP4 ADD DUP7 PUSH2 0x449A JUMP JUMPDEST PUSH2 0x519A PUSH1 0x60 DUP4 ADD DUP6 PUSH2 0x43BA JUMP JUMPDEST PUSH2 0x51A7 PUSH1 0x80 DUP4 ADD DUP5 PUSH2 0x44ED JUMP JUMPDEST SWAP7 SWAP6 POP POP POP POP POP POP JUMP JUMPDEST PUSH0 DUP2 SWAP1 POP SWAP2 SWAP1 POP JUMP JUMPDEST PUSH0 DUP2 SWAP1 POP SWAP2 SWAP1 POP JUMP JUMPDEST PUSH0 PUSH2 0x51DD PUSH2 0x51D8 PUSH2 0x51D3 DUP5 PUSH2 0x51B1 JUMP JUMPDEST PUSH2 0x51BA JUMP JUMPDEST PUSH2 0x445D JUMP JUMPDEST SWAP1 POP SWAP2 SWAP1 POP JUMP JUMPDEST PUSH2 0x51ED DUP2 PUSH2 0x51C3 JUMP JUMPDEST DUP3 MSTORE POP POP JUMP JUMPDEST PUSH0 PUSH1 0x40 DUP3 ADD SWAP1 POP PUSH2 0x5206 PUSH0 DUP4 ADD DUP6 PUSH2 0x51E4 JUMP JUMPDEST PUSH2 0x5213 PUSH1 0x20 DUP4 ADD DUP5 PUSH2 0x43BA JUMP JUMPDEST SWAP4 SWAP3 POP POP POP JUMP JUMPDEST PUSH0 DUP2 SWAP1 POP SWAP2 SWAP1 POP JUMP JUMPDEST PUSH0 PUSH2 0x523D PUSH2 0x5238 PUSH2 0x5233 DUP5 PUSH2 0x521A JUMP JUMPDEST PUSH2 0x51BA JUMP JUMPDEST PUSH2 0x445D JUMP JUMPDEST SWAP1 POP SWAP2 SWAP1 POP JUMP JUMPDEST PUSH2 0x524D DUP2 PUSH2 0x5223 JUMP JUMPDEST DUP3 MSTORE POP POP JUMP JUMPDEST PUSH0 PUSH1 0x40 DUP3 ADD SWAP1 POP PUSH2 0x5266 PUSH0 DUP4 ADD DUP6 PUSH2 0x5244 JUMP JUMPDEST PUSH2 0x5273 PUSH1 0x20 DUP4 ADD DUP5 PUSH2 0x43BA JUMP JUMPDEST SWAP4 SWAP3 POP POP POP JUMP JUMPDEST PUSH0 PUSH1 0x80 DUP3 ADD SWAP1 POP PUSH2 0x528D PUSH0 DUP4 ADD DUP8 PUSH2 0x449A JUMP JUMPDEST PUSH2 0x529A PUSH1 0x20 DUP4 ADD DUP7 PUSH2 0x4469 JUMP JUMPDEST PUSH2 0x52A7 PUSH1 0x40 DUP4 ADD DUP6 PUSH2 0x449A JUMP JUMPDEST PUSH2 0x52B4 PUSH1 0x60 DUP4 ADD DUP5 PUSH2 0x449A JUMP JUMPDEST SWAP6 SWAP5 POP POP POP POP POP JUMP JUMPDEST PUSH32 0x4E487B7100000000000000000000000000000000000000000000000000000000 PUSH0 MSTORE PUSH1 0x21 PUSH1 0x4 MSTORE PUSH1 0x24 PUSH0 REVERT JUMPDEST PUSH32 0x4E487B7100000000000000000000000000000000000000000000000000000000 PUSH0 MSTORE PUSH1 0x32 PUSH1 0x4 MSTORE PUSH1 0x24 PUSH0 REVERT JUMPDEST PUSH0 PUSH2 0x5321 DUP3 PUSH2 0x49CD JUMP JUMPDEST SWAP2 POP PUSH2 0x532C DUP4 PUSH2 0x49CD JUMP JUMPDEST SWAP3 POP DUP3 DUP3 SUB SWAP1 POP PUSH26 0xFFFFFFFFFFFFFFFFFFFFFFFFFFFFFFFFFFFFFFFFFFFFFFFFFFFF DUP2 GT ISZERO PUSH2 0x535E JUMPI PUSH2 0x535D PUSH2 0x4B74 JUMP JUMPDEST JUMPDEST SWAP3 SWAP2 POP POP JUMP JUMPDEST PUSH0 DUP2 SWAP1 POP SWAP2 SWAP1 POP JUMP JUMPDEST PUSH0 PUSH2 0x5387 PUSH2 0x5382 PUSH2 0x537D DUP5 PUSH2 0x5364 JUMP JUMPDEST PUSH2 0x51BA JUMP JUMPDEST PUSH2 0x445D JUMP JUMPDEST SWAP1 POP SWAP2 SWAP1 POP JUMP JUMPDEST PUSH2 0x5397 DUP2 PUSH2 0x536D JUMP JUMPDEST DUP3 MSTORE POP POP JUMP JUMPDEST PUSH0 PUSH1 0x40 DUP3 ADD SWAP1 POP PUSH2 0x53B0 PUSH0 DUP4 ADD DUP6 PUSH2 0x538E JUMP JUMPDEST PUSH2 0x53BD PUSH1 0x20 DUP4 ADD DUP5 PUSH2 0x43BA JUMP JUMPDEST SWAP4 SWAP3 POP POP POP JUMP JUMPDEST PUSH0 PUSH2 0x53CE DUP3 PUSH2 0x49CD JUMP JUMPDEST SWAP2 POP PUSH2 0x53D9 DUP4 PUSH2 0x49CD JUMP JUMPDEST SWAP3 POP DUP3 DUP3 ADD SWAP1 POP PUSH26 0xFFFFFFFFFFFFFFFFFFFFFFFFFFFFFFFFFFFFFFFFFFFFFFFFFFFF DUP2 GT ISZERO PUSH2 0x540B JUMPI PUSH2 0x540A PUSH2 0x4B74 JUMP JUMPDEST JUMPDEST SWAP3 SWAP2 POP POP JUMP INVALID LOG2 PUSH5 0x6970667358 0x22 SLT KECCAK256 BALANCE DUP4 DUP10 INVALID 0xCB STATICCALL 0xE9 PREVRANDAO PUSH13 0x44D4F4D0B512672AFD90589C6B PUSH23 0xBAC11A579EA6FB3B2764736F6C634300081E0033000000 "
		},
		"gasEstimates": {
			"creation": {
				"codeDepositCost": "4315000",
				"executionCost": "infinite",
				"totalCost": "infinite"
			},
			"external": {
				"BURN_PERCENT()": "437",
				"CLOCK_MODE()": "infinite",
				"DOMAIN_SEPARATOR()": "infinite",
				"FEE_BASE()": "391",
				"FEE_MAX()": "2515",
				"FEE_MIN()": "2493",
				"MAX_CLAIM_PERCENT()": "392",
				"MIN_BLOCKS_BETWEEN_CLAIM()": "458",
				"MIN_LOCK_BLOCKS()": "436",
				"STAKING_PERCENT()": "438",
				"acceptOwnership()": "54738",
				"allowance(address,address)": "infinite",
				"approve(address,uint256)": "infinite",
				"balanceOf(address)": "2940",
				"burn(uint256)": "infinite",
				"burnFrom(address,uint256)": "infinite",
				"checkpoints(address,uint32)": "infinite",
				"claimReward()": "infinite",
				"clock()": "768",
				"decimals()": "407",
				"delegate(address)": "infinite",
				"delegateBySig(address,uint256,uint256,uint8,bytes32,bytes32)": "infinite",
				"delegates(address)": "infinite",
				"eip712Domain()": "infinite",
				"feePercent()": "2494",
				"getPastTotalSupply(uint256)": "infinite",
				"getPastVotes(address,uint256)": "infinite",
				"getVotes(address)": "infinite",
				"isExcludedFromFees(address)": "2939",
				"maxSupply()": "infinite",
				"mint(address,uint256)": "infinite",
				"name()": "infinite",
				"nonces(address)": "3046",
				"numCheckpoints(address)": "3275",
				"owner()": "2605",
				"pause()": "infinite",
				"paused()": "2585",
				"pendingOwner()": "2604",
				"permit(address,address,uint256,uint256,uint8,bytes32,bytes32)": "infinite",
				"renounceOwnership()": "infinite",
				"setExcludedFromFees(address,bool)": "infinite",
				"setFeeRange(uint256,uint256)": "infinite",
				"setTreasury(address)": "infinite",
				"stake(uint256)": "infinite",
				"stakedBalance(address)": "2968",
				"stakingPool()": "2546",
				"symbol()": "infinite",
				"totalMinted()": "2499",
				"totalStaked()": "2523",
				"totalSupply()": "2501",
				"transfer(address,uint256)": "infinite",
				"transferFrom(address,address,uint256)": "infinite",
				"transferOwnership(address)": "infinite",
				"treasury()": "2583",
				"unpause()": "infinite",
				"unstake(uint256)": "infinite"
			},
			"internal": {
				"_excludeFromFees(address,bool)": "24373",
				"_update(address,address,uint256)": "infinite",
				"_updateFee()": "infinite",
				"_updateRewards(address)": "infinite"
			}
		},
		"methodIdentifiers": {
			"BURN_PERCENT()": "9c986764",
			"CLOCK_MODE()": "4bf5d7e9",
			"DOMAIN_SEPARATOR()": "3644e515",
			"FEE_BASE()": "ecefc705",
			"FEE_MAX()": "c2624e1e",
			"FEE_MIN()": "59c13403",
			"MAX_CLAIM_PERCENT()": "e085c45e",
			"MIN_BLOCKS_BETWEEN_CLAIM()": "b0bb1050",
			"MIN_LOCK_BLOCKS()": "ece6c0d3",
			"STAKING_PERCENT()": "288264e3",
			"acceptOwnership()": "79ba5097",
			"allowance(address,address)": "dd62ed3e",
			"approve(address,uint256)": "095ea7b3",
			"balanceOf(address)": "70a08231",
			"burn(uint256)": "42966c68",
			"burnFrom(address,uint256)": "79cc6790",
			"checkpoints(address,uint32)": "f1127ed8",
			"claimReward()": "b88a802f",
			"clock()": "91ddadf4",
			"decimals()": "313ce567",
			"delegate(address)": "5c19a95c",
			"delegateBySig(address,uint256,uint256,uint8,bytes32,bytes32)": "c3cda520",
			"delegates(address)": "587cde1e",
			"eip712Domain()": "84b0196e",
			"feePercent()": "7fd6f15c",
			"getPastTotalSupply(uint256)": "8e539e8c",
			"getPastVotes(address,uint256)": "3a46b1a8",
			"getVotes(address)": "9ab24eb0",
			"isExcludedFromFees(address)": "4fbee193",
			"maxSupply()": "d5abeb01",
			"mint(address,uint256)": "40c10f19",
			"name()": "06fdde03",
			"nonces(address)": "7ecebe00",
			"numCheckpoints(address)": "6fcfff45",
			"owner()": "8da5cb5b",
			"pause()": "8456cb59",
			"paused()": "5c975abb",
			"pendingOwner()": "e30c3978",
			"permit(address,address,uint256,uint256,uint8,bytes32,bytes32)": "d505accf",
			"renounceOwnership()": "715018a6",
			"setExcludedFromFees(address,bool)": "590ffdce",
			"setFeeRange(uint256,uint256)": "d0fb2483",
			"setTreasury(address)": "f0f44260",
			"stake(uint256)": "a694fc3a",
			"stakedBalance(address)": "60217267",
			"stakingPool()": "0c56ae3b",
			"symbol()": "95d89b41",
			"totalMinted()": "a2309ff8",
			"totalStaked()": "817b1cd2",
			"totalSupply()": "18160ddd",
			"transfer(address,uint256)": "a9059cbb",
			"transferFrom(address,address,uint256)": "23b872dd",
			"transferOwnership(address)": "f2fde38b",
			"treasury()": "61d027b3",
			"unpause()": "3f4ba83a",
			"unstake(uint256)": "2e17de78"
		}
	},
	"abi": [
		{
			"inputs": [
				{
					"internalType": "address",
					"name": "initialOwner",
					"type": "address"
				},
				{
					"internalType": "address",
					"name": "treasuryAddress",
					"type": "address"
				}
			],
			"stateMutability": "nonpayable",
			"type": "constructor"
		},
		{
			"inputs": [],
			"name": "CheckpointUnorderedInsertion",
			"type": "error"
		},
		{
			"inputs": [],
			"name": "ECDSAInvalidSignature",
			"type": "error"
		},
		{
			"inputs": [
				{
					"internalType": "uint256",
					"name": "length",
					"type": "uint256"
				}
			],
			"name": "ECDSAInvalidSignatureLength",
			"type": "error"
		},
		{
			"inputs": [
				{
					"internalType": "bytes32",
					"name": "s",
					"type": "bytes32"
				}
			],
			"name": "ECDSAInvalidSignatureS",
			"type": "error"
		},
		{
			"inputs": [
				{
					"internalType": "uint256",
					"name": "increasedSupply",
					"type": "uint256"
				},
				{
					"internalType": "uint256",
					"name": "cap",
					"type": "uint256"
				}
			],
			"name": "ERC20ExceededSafeSupply",
			"type": "error"
		},
		{
			"inputs": [
				{
					"internalType": "address",
					"name": "spender",
					"type": "address"
				},
				{
					"internalType": "uint256",
					"name": "allowance",
					"type": "uint256"
				},
				{
					"internalType": "uint256",
					"name": "needed",
					"type": "uint256"
				}
			],
			"name": "ERC20InsufficientAllowance",
			"type": "error"
		},
		{
			"inputs": [
				{
					"internalType": "address",
					"name": "sender",
					"type": "address"
				},
				{
					"internalType": "uint256",
					"name": "balance",
					"type": "uint256"
				},
				{
					"internalType": "uint256",
					"name": "needed",
					"type": "uint256"
				}
			],
			"name": "ERC20InsufficientBalance",
			"type": "error"
		},
		{
			"inputs": [
				{
					"internalType": "address",
					"name": "approver",
					"type": "address"
				}
			],
			"name": "ERC20InvalidApprover",
			"type": "error"
		},
		{
			"inputs": [
				{
					"internalType": "address",
					"name": "receiver",
					"type": "address"
				}
			],
			"name": "ERC20InvalidReceiver",
			"type": "error"
		},
		{
			"inputs": [
				{
					"internalType": "address",
					"name": "sender",
					"type": "address"
				}
			],
			"name": "ERC20InvalidSender",
			"type": "error"
		},
		{
			"inputs": [
				{
					"internalType": "address",
					"name": "spender",
					"type": "address"
				}
			],
			"name": "ERC20InvalidSpender",
			"type": "error"
		},
		{
			"inputs": [
				{
					"internalType": "uint256",
					"name": "deadline",
					"type": "uint256"
				}
			],
			"name": "ERC2612ExpiredSignature",
			"type": "error"
		},
		{
			"inputs": [
				{
					"internalType": "address",
					"name": "signer",
					"type": "address"
				},
				{
					"internalType": "address",
					"name": "owner",
					"type": "address"
				}
			],
			"name": "ERC2612InvalidSigner",
			"type": "error"
		},
		{
			"inputs": [
				{
					"internalType": "uint256",
					"name": "timepoint",
					"type": "uint256"
				},
				{
					"internalType": "uint48",
					"name": "clock",
					"type": "uint48"
				}
			],
			"name": "ERC5805FutureLookup",
			"type": "error"
		},
		{
			"inputs": [],
			"name": "ERC6372InconsistentClock",
			"type": "error"
		},
		{
			"inputs": [],
			"name": "EnforcedPause",
			"type": "error"
		},
		{
			"inputs": [],
			"name": "ExpectedPause",
			"type": "error"
		},
		{
			"inputs": [
				{
					"internalType": "address",
					"name": "account",
					"type": "address"
				},
				{
					"internalType": "uint256",
					"name": "currentNonce",
					"type": "uint256"
				}
			],
			"name": "InvalidAccountNonce",
			"type": "error"
		},
		{
			"inputs": [],
			"name": "InvalidShortString",
			"type": "error"
		},
		{
			"inputs": [
				{
					"internalType": "address",
					"name": "owner",
					"type": "address"
				}
			],
			"name": "OwnableInvalidOwner",
			"type": "error"
		},
		{
			"inputs": [
				{
					"internalType": "address",
					"name": "account",
					"type": "address"
				}
			],
			"name": "OwnableUnauthorizedAccount",
			"type": "error"
		},
		{
			"inputs": [],
			"name": "ReentrancyGuardReentrantCall",
			"type": "error"
		},
		{
			"inputs": [
				{
					"internalType": "uint8",
					"name": "bits",
					"type": "uint8"
				},
				{
					"internalType": "uint256",
					"name": "value",
					"type": "uint256"
				}
			],
			"name": "SafeCastOverflowedUintDowncast",
			"type": "error"
		},
		{
			"inputs": [
				{
					"internalType": "string",
					"name": "str",
					"type": "string"
				}
			],
			"name": "StringTooLong",
			"type": "error"
		},
		{
			"inputs": [
				{
					"internalType": "uint256",
					"name": "expiry",
					"type": "uint256"
				}
			],
			"name": "VotesExpiredSignature",
			"type": "error"
		},
		{
			"anonymous": false,
			"inputs": [
				{
					"indexed": true,
					"internalType": "address",
					"name": "owner",
					"type": "address"
				},
				{
					"indexed": true,
					"internalType": "address",
					"name": "spender",
					"type": "address"
				},
				{
					"indexed": false,
					"internalType": "uint256",
					"name": "value",
					"type": "uint256"
				}
			],
			"name": "Approval",
			"type": "event"
		},
		{
			"anonymous": false,
			"inputs": [
				{
					"indexed": true,
					"internalType": "address",
					"name": "delegator",
					"type": "address"
				},
				{
					"indexed": true,
					"internalType": "address",
					"name": "fromDelegate",
					"type": "address"
				},
				{
					"indexed": true,
					"internalType": "address",
					"name": "toDelegate",
					"type": "address"
				}
			],
			"name": "DelegateChanged",
			"type": "event"
		},
		{
			"anonymous": false,
			"inputs": [
				{
					"indexed": true,
					"internalType": "address",
					"name": "delegate",
					"type": "address"
				},
				{
					"indexed": false,
					"internalType": "uint256",
					"name": "previousVotes",
					"type": "uint256"
				},
				{
					"indexed": false,
					"internalType": "uint256",
					"name": "newVotes",
					"type": "uint256"
				}
			],
			"name": "DelegateVotesChanged",
			"type": "event"
		},
		{
			"anonymous": false,
			"inputs": [],
			"name": "EIP712DomainChanged",
			"type": "event"
		},
		{
			"anonymous": false,
			"inputs": [
				{
					"indexed": true,
					"internalType": "address",
					"name": "from",
					"type": "address"
				},
				{
					"indexed": false,
					"internalType": "uint256",
					"name": "fee",
					"type": "uint256"
				},
				{
					"indexed": false,
					"internalType": "uint256",
					"name": "burn",
					"type": "uint256"
				},
				{
					"indexed": false,
					"internalType": "uint256",
					"name": "staking",
					"type": "uint256"
				},
				{
					"indexed": false,
					"internalType": "uint256",
					"name": "treasury",
					"type": "uint256"
				}
			],
			"name": "FeeApplied",
			"type": "event"
		},
		{
			"anonymous": false,
			"inputs": [
				{
					"indexed": true,
					"internalType": "address",
					"name": "account",
					"type": "address"
				},
				{
					"indexed": false,
					"internalType": "bool",
					"name": "excluded",
					"type": "bool"
				}
			],
			"name": "FeeExclusionSet",
			"type": "event"
		},
		{
			"anonymous": false,
			"inputs": [
				{
					"indexed": false,
					"internalType": "uint256",
					"name": "newFeePercent",
					"type": "uint256"
				}
			],
			"name": "FeePercentUpdated",
			"type": "event"
		},
		{
			"anonymous": false,
			"inputs": [
				{
					"indexed": true,
					"internalType": "address",
					"name": "to",
					"type": "address"
				},
				{
					"indexed": false,
					"internalType": "uint256",
					"name": "amount",
					"type": "uint256"
				}
			],
			"name": "Mint",
			"type": "event"
		},
		{
			"anonymous": false,
			"inputs": [
				{
					"indexed": true,
					"internalType": "address",
					"name": "previousOwner",
					"type": "address"
				},
				{
					"indexed": true,
					"internalType": "address",
					"name": "newOwner",
					"type": "address"
				}
			],
			"name": "OwnershipTransferStarted",
			"type": "event"
		},
		{
			"anonymous": false,
			"inputs": [
				{
					"indexed": true,
					"internalType": "address",
					"name": "previousOwner",
					"type": "address"
				},
				{
					"indexed": true,
					"internalType": "address",
					"name": "newOwner",
					"type": "address"
				}
			],
			"name": "OwnershipTransferred",
			"type": "event"
		},
		{
			"anonymous": false,
			"inputs": [
				{
					"indexed": false,
					"internalType": "address",
					"name": "account",
					"type": "address"
				}
			],
			"name": "Paused",
			"type": "event"
		},
		{
			"anonymous": false,
			"inputs": [
				{
					"indexed": true,
					"internalType": "address",
					"name": "user",
					"type": "address"
				},
				{
					"indexed": false,
					"internalType": "uint256",
					"name": "amount",
					"type": "uint256"
				}
			],
			"name": "RewardClaimed",
			"type": "event"
		},
		{
			"anonymous": false,
			"inputs": [
				{
					"indexed": true,
					"internalType": "address",
					"name": "user",
					"type": "address"
				},
				{
					"indexed": false,
					"internalType": "uint256",
					"name": "amount",
					"type": "uint256"
				},
				{
					"indexed": false,
					"internalType": "uint256",
					"name": "lockedUntilBlock",
					"type": "uint256"
				}
			],
			"name": "Staked",
			"type": "event"
		},
		{
			"anonymous": false,
			"inputs": [
				{
					"indexed": true,
					"internalType": "address",
					"name": "from",
					"type": "address"
				},
				{
					"indexed": true,
					"internalType": "address",
					"name": "to",
					"type": "address"
				},
				{
					"indexed": false,
					"internalType": "uint256",
					"name": "value",
					"type": "uint256"
				}
			],
			"name": "Transfer",
			"type": "event"
		},
		{
			"anonymous": false,
			"inputs": [
				{
					"indexed": true,
					"internalType": "address",
					"name": "newTreasury",
					"type": "address"
				}
			],
			"name": "TreasuryUpdated",
			"type": "event"
		},
		{
			"anonymous": false,
			"inputs": [
				{
					"indexed": false,
					"internalType": "address",
					"name": "account",
					"type": "address"
				}
			],
			"name": "Unpaused",
			"type": "event"
		},
		{
			"anonymous": false,
			"inputs": [
				{
					"indexed": true,
					"internalType": "address",
					"name": "user",
					"type": "address"
				},
				{
					"indexed": false,
					"internalType": "uint256",
					"name": "amount",
					"type": "uint256"
				}
			],
			"name": "Unstaked",
			"type": "event"
		},
		{
			"inputs": [],
			"name": "BURN_PERCENT",
			"outputs": [
				{
					"internalType": "uint256",
					"name": "",
					"type": "uint256"
				}
			],
			"stateMutability": "view",
			"type": "function"
		},
		{
			"inputs": [],
			"name": "CLOCK_MODE",
			"outputs": [
				{
					"internalType": "string",
					"name": "",
					"type": "string"
				}
			],
			"stateMutability": "view",
			"type": "function"
		},
		{
			"inputs": [],
			"name": "DOMAIN_SEPARATOR",
			"outputs": [
				{
					"internalType": "bytes32",
					"name": "",
					"type": "bytes32"
				}
			],
			"stateMutability": "view",
			"type": "function"
		},
		{
			"inputs": [],
			"name": "FEE_BASE",
			"outputs": [
				{
					"internalType": "uint256",
					"name": "",
					"type": "uint256"
				}
			],
			"stateMutability": "view",
			"type": "function"
		},
		{
			"inputs": [],
			"name": "FEE_MAX",
			"outputs": [
				{
					"internalType": "uint256",
					"name": "",
					"type": "uint256"
				}
			],
			"stateMutability": "view",
			"type": "function"
		},
		{
			"inputs": [],
			"name": "FEE_MIN",
			"outputs": [
				{
					"internalType": "uint256",
					"name": "",
					"type": "uint256"
				}
			],
			"stateMutability": "view",
			"type": "function"
		},
		{
			"inputs": [],
			"name": "MAX_CLAIM_PERCENT",
			"outputs": [
				{
					"internalType": "uint256",
					"name": "",
					"type": "uint256"
				}
			],
			"stateMutability": "view",
			"type": "function"
		},
		{
			"inputs": [],
			"name": "MIN_BLOCKS_BETWEEN_CLAIM",
			"outputs": [
				{
					"internalType": "uint256",
					"name": "",
					"type": "uint256"
				}
			],
			"stateMutability": "view",
			"type": "function"
		},
		{
			"inputs": [],
			"name": "MIN_LOCK_BLOCKS",
			"outputs": [
				{
					"internalType": "uint256",
					"name": "",
					"type": "uint256"
				}
			],
			"stateMutability": "view",
			"type": "function"
		},
		{
			"inputs": [],
			"name": "STAKING_PERCENT",
			"outputs": [
				{
					"internalType": "uint256",
					"name": "",
					"type": "uint256"
				}
			],
			"stateMutability": "view",
			"type": "function"
		},
		{
			"inputs": [],
			"name": "acceptOwnership",
			"outputs": [],
			"stateMutability": "nonpayable",
			"type": "function"
		},
		{
			"inputs": [
				{
					"internalType": "address",
					"name": "owner",
					"type": "address"
				},
				{
					"internalType": "address",
					"name": "spender",
					"type": "address"
				}
			],
			"name": "allowance",
			"outputs": [
				{
					"internalType": "uint256",
					"name": "",
					"type": "uint256"
				}
			],
			"stateMutability": "view",
			"type": "function"
		},
		{
			"inputs": [
				{
					"internalType": "address",
					"name": "spender",
					"type": "address"
				},
				{
					"internalType": "uint256",
					"name": "value",
					"type": "uint256"
				}
			],
			"name": "approve",
			"outputs": [
				{
					"internalType": "bool",
					"name": "",
					"type": "bool"
				}
			],
			"stateMutability": "nonpayable",
			"type": "function"
		},
		{
			"inputs": [
				{
					"internalType": "address",
					"name": "account",
					"type": "address"
				}
			],
			"name": "balanceOf",
			"outputs": [
				{
					"internalType": "uint256",
					"name": "",
					"type": "uint256"
				}
			],
			"stateMutability": "view",
			"type": "function"
		},
		{
			"inputs": [
				{
					"internalType": "uint256",
					"name": "amount",
					"type": "uint256"
				}
			],
			"name": "burn",
			"outputs": [],
			"stateMutability": "nonpayable",
			"type": "function"
		},
		{
			"inputs": [
				{
					"internalType": "address",
					"name": "account",
					"type": "address"
				},
				{
					"internalType": "uint256",
					"name": "value",
					"type": "uint256"
				}
			],
			"name": "burnFrom",
			"outputs": [],
			"stateMutability": "nonpayable",
			"type": "function"
		},
		{
			"inputs": [
				{
					"internalType": "address",
					"name": "account",
					"type": "address"
				},
				{
					"internalType": "uint32",
					"name": "pos",
					"type": "uint32"
				}
			],
			"name": "checkpoints",
			"outputs": [
				{
					"components": [
						{
							"internalType": "uint48",
							"name": "_key",
							"type": "uint48"
						},
						{
							"internalType": "uint208",
							"name": "_value",
							"type": "uint208"
						}
					],
					"internalType": "struct Checkpoints.Checkpoint208",
					"name": "",
					"type": "tuple"
				}
			],
			"stateMutability": "view",
			"type": "function"
		},
		{
			"inputs": [],
			"name": "claimReward",
			"outputs": [],
			"stateMutability": "nonpayable",
			"type": "function"
		},
		{
			"inputs": [],
			"name": "clock",
			"outputs": [
				{
					"internalType": "uint48",
					"name": "",
					"type": "uint48"
				}
			],
			"stateMutability": "view",
			"type": "function"
		},
		{
			"inputs": [],
			"name": "decimals",
			"outputs": [
				{
					"internalType": "uint8",
					"name": "",
					"type": "uint8"
				}
			],
			"stateMutability": "view",
			"type": "function"
		},
		{
			"inputs": [
				{
					"internalType": "address",
					"name": "delegatee",
					"type": "address"
				}
			],
			"name": "delegate",
			"outputs": [],
			"stateMutability": "nonpayable",
			"type": "function"
		},
		{
			"inputs": [
				{
					"internalType": "address",
					"name": "delegatee",
					"type": "address"
				},
				{
					"internalType": "uint256",
					"name": "nonce",
					"type": "uint256"
				},
				{
					"internalType": "uint256",
					"name": "expiry",
					"type": "uint256"
				},
				{
					"internalType": "uint8",
					"name": "v",
					"type": "uint8"
				},
				{
					"internalType": "bytes32",
					"name": "r",
					"type": "bytes32"
				},
				{
					"internalType": "bytes32",
					"name": "s",
					"type": "bytes32"
				}
			],
			"name": "delegateBySig",
			"outputs": [],
			"stateMutability": "nonpayable",
			"type": "function"
		},
		{
			"inputs": [
				{
					"internalType": "address",
					"name": "account",
					"type": "address"
				}
			],
			"name": "delegates",
			"outputs": [
				{
					"internalType": "address",
					"name": "",
					"type": "address"
				}
			],
			"stateMutability": "view",
			"type": "function"
		},
		{
			"inputs": [],
			"name": "eip712Domain",
			"outputs": [
				{
					"internalType": "bytes1",
					"name": "fields",
					"type": "bytes1"
				},
				{
					"internalType": "string",
					"name": "name",
					"type": "string"
				},
				{
					"internalType": "string",
					"name": "version",
					"type": "string"
				},
				{
					"internalType": "uint256",
					"name": "chainId",
					"type": "uint256"
				},
				{
					"internalType": "address",
					"name": "verifyingContract",
					"type": "address"
				},
				{
					"internalType": "bytes32",
					"name": "salt",
					"type": "bytes32"
				},
				{
					"internalType": "uint256[]",
					"name": "extensions",
					"type": "uint256[]"
				}
			],
			"stateMutability": "view",
			"type": "function"
		},
		{
			"inputs": [],
			"name": "feePercent",
			"outputs": [
				{
					"internalType": "uint256",
					"name": "",
					"type": "uint256"
				}
			],
			"stateMutability": "view",
			"type": "function"
		},
		{
			"inputs": [
				{
					"internalType": "uint256",
					"name": "timepoint",
					"type": "uint256"
				}
			],
			"name": "getPastTotalSupply",
			"outputs": [
				{
					"internalType": "uint256",
					"name": "",
					"type": "uint256"
				}
			],
			"stateMutability": "view",
			"type": "function"
		},
		{
			"inputs": [
				{
					"internalType": "address",
					"name": "account",
					"type": "address"
				},
				{
					"internalType": "uint256",
					"name": "timepoint",
					"type": "uint256"
				}
			],
			"name": "getPastVotes",
			"outputs": [
				{
					"internalType": "uint256",
					"name": "",
					"type": "uint256"
				}
			],
			"stateMutability": "view",
			"type": "function"
		},
		{
			"inputs": [
				{
					"internalType": "address",
					"name": "account",
					"type": "address"
				}
			],
			"name": "getVotes",
			"outputs": [
				{
					"internalType": "uint256",
					"name": "",
					"type": "uint256"
				}
			],
			"stateMutability": "view",
			"type": "function"
		},
		{
			"inputs": [
				{
					"internalType": "address",
					"name": "account",
					"type": "address"
				}
			],
			"name": "isExcludedFromFees",
			"outputs": [
				{
					"internalType": "bool",
					"name": "",
					"type": "bool"
				}
			],
			"stateMutability": "view",
			"type": "function"
		},
		{
			"inputs": [],
			"name": "maxSupply",
			"outputs": [
				{
					"internalType": "uint256",
					"name": "",
					"type": "uint256"
				}
			],
			"stateMutability": "view",
			"type": "function"
		},
		{
			"inputs": [
				{
					"internalType": "address",
					"name": "to",
					"type": "address"
				},
				{
					"internalType": "uint256",
					"name": "amount",
					"type": "uint256"
				}
			],
			"name": "mint",
			"outputs": [],
			"stateMutability": "nonpayable",
			"type": "function"
		},
		{
			"inputs": [],
			"name": "name",
			"outputs": [
				{
					"internalType": "string",
					"name": "",
					"type": "string"
				}
			],
			"stateMutability": "view",
			"type": "function"
		},
		{
			"inputs": [
				{
					"internalType": "address",
					"name": "owner",
					"type": "address"
				}
			],
			"name": "nonces",
			"outputs": [
				{
					"internalType": "uint256",
					"name": "",
					"type": "uint256"
				}
			],
			"stateMutability": "view",
			"type": "function"
		},
		{
			"inputs": [
				{
					"internalType": "address",
					"name": "account",
					"type": "address"
				}
			],
			"name": "numCheckpoints",
			"outputs": [
				{
					"internalType": "uint32",
					"name": "",
					"type": "uint32"
				}
			],
			"stateMutability": "view",
			"type": "function"
		},
		{
			"inputs": [],
			"name": "owner",
			"outputs": [
				{
					"internalType": "address",
					"name": "",
					"type": "address"
				}
			],
			"stateMutability": "view",
			"type": "function"
		},
		{
			"inputs": [],
			"name": "pause",
			"outputs": [],
			"stateMutability": "nonpayable",
			"type": "function"
		},
		{
			"inputs": [],
			"name": "paused",
			"outputs": [
				{
					"internalType": "bool",
					"name": "",
					"type": "bool"
				}
			],
			"stateMutability": "view",
			"type": "function"
		},
		{
			"inputs": [],
			"name": "pendingOwner",
			"outputs": [
				{
					"internalType": "address",
					"name": "",
					"type": "address"
				}
			],
			"stateMutability": "view",
			"type": "function"
		},
		{
			"inputs": [
				{
					"internalType": "address",
					"name": "owner",
					"type": "address"
				},
				{
					"internalType": "address",
					"name": "spender",
					"type": "address"
				},
				{
					"internalType": "uint256",
					"name": "value",
					"type": "uint256"
				},
				{
					"internalType": "uint256",
					"name": "deadline",
					"type": "uint256"
				},
				{
					"internalType": "uint8",
					"name": "v",
					"type": "uint8"
				},
				{
					"internalType": "bytes32",
					"name": "r",
					"type": "bytes32"
				},
				{
					"internalType": "bytes32",
					"name": "s",
					"type": "bytes32"
				}
			],
			"name": "permit",
			"outputs": [],
			"stateMutability": "nonpayable",
			"type": "function"
		},
		{
			"inputs": [],
			"name": "renounceOwnership",
			"outputs": [],
			"stateMutability": "nonpayable",
			"type": "function"
		},
		{
			"inputs": [
				{
					"internalType": "address",
					"name": "account",
					"type": "address"
				},
				{
					"internalType": "bool",
					"name": "excluded",
					"type": "bool"
				}
			],
			"name": "setExcludedFromFees",
			"outputs": [],
			"stateMutability": "nonpayable",
			"type": "function"
		},
		{
			"inputs": [
				{
					"internalType": "uint256",
					"name": "minFee",
					"type": "uint256"
				},
				{
					"internalType": "uint256",
					"name": "maxFee",
					"type": "uint256"
				}
			],
			"name": "setFeeRange",
			"outputs": [],
			"stateMutability": "nonpayable",
			"type": "function"
		},
		{
			"inputs": [
				{
					"internalType": "address",
					"name": "newTreasury",
					"type": "address"
				}
			],
			"name": "setTreasury",
			"outputs": [],
			"stateMutability": "nonpayable",
			"type": "function"
		},
		{
			"inputs": [
				{
					"internalType": "uint256",
					"name": "amount",
					"type": "uint256"
				}
			],
			"name": "stake",
			"outputs": [],
			"stateMutability": "nonpayable",
			"type": "function"
		},
		{
			"inputs": [
				{
					"internalType": "address",
					"name": "user",
					"type": "address"
				}
			],
			"name": "stakedBalance",
			"outputs": [
				{
					"internalType": "uint256",
					"name": "",
					"type": "uint256"
				}
			],
			"stateMutability": "view",
			"type": "function"
		},
		{
			"inputs": [],
			"name": "stakingPool",
			"outputs": [
				{
					"internalType": "uint256",
					"name": "",
					"type": "uint256"
				}
			],
			"stateMutability": "view",
			"type": "function"
		},
		{
			"inputs": [],
			"name": "symbol",
			"outputs": [
				{
					"internalType": "string",
					"name": "",
					"type": "string"
				}
			],
			"stateMutability": "view",
			"type": "function"
		},
		{
			"inputs": [],
			"name": "totalMinted",
			"outputs": [
				{
					"internalType": "uint256",
					"name": "",
					"type": "uint256"
				}
			],
			"stateMutability": "view",
			"type": "function"
		},
		{
			"inputs": [],
			"name": "totalStaked",
			"outputs": [
				{
					"internalType": "uint256",
					"name": "",
					"type": "uint256"
				}
			],
			"stateMutability": "view",
			"type": "function"
		},
		{
			"inputs": [],
			"name": "totalSupply",
			"outputs": [
				{
					"internalType": "uint256",
					"name": "",
					"type": "uint256"
				}
			],
			"stateMutability": "view",
			"type": "function"
		},
		{
			"inputs": [
				{
					"internalType": "address",
					"name": "to",
					"type": "address"
				},
				{
					"internalType": "uint256",
					"name": "value",
					"type": "uint256"
				}
			],
			"name": "transfer",
			"outputs": [
				{
					"internalType": "bool",
					"name": "",
					"type": "bool"
				}
			],
			"stateMutability": "nonpayable",
			"type": "function"
		},
		{
			"inputs": [
				{
					"internalType": "address",
					"name": "from",
					"type": "address"
				},
				{
					"internalType": "address",
					"name": "to",
					"type": "address"
				},
				{
					"internalType": "uint256",
					"name": "value",
					"type": "uint256"
				}
			],
			"name": "transferFrom",
			"outputs": [
				{
					"internalType": "bool",
					"name": "",
					"type": "bool"
				}
			],
			"stateMutability": "nonpayable",
			"type": "function"
		},
		{
			"inputs": [
				{
					"internalType": "address",
					"name": "newOwner",
					"type": "address"
				}
			],
			"name": "transferOwnership",
			"outputs": [],
			"stateMutability": "nonpayable",
			"type": "function"
		},
		{
			"inputs": [],
			"name": "treasury",
			"outputs": [
				{
					"internalType": "address",
					"name": "",
					"type": "address"
				}
			],
			"stateMutability": "view",
			"type": "function"
		},
		{
			"inputs": [],
			"name": "unpause",
			"outputs": [],
			"stateMutability": "nonpayable",
			"type": "function"
		},
		{
			"inputs": [
				{
					"internalType": "uint256",
					"name": "amount",
					"type": "uint256"
				}
			],
			"name": "unstake",
			"outputs": [],
			"stateMutability": "nonpayable",
			"type": "function"
		}
	]
}